:020000040800F2
:100000009804002001010008850E0008810E0008F8
:10001000830E0008590100085F110008000000006D
:10002000000000000000000000000000A90E000811
:100030005B01000800000000A70E0008AB0E0008DE
:100040001B0100081B0100081B0100081B01000820
:100050001B0100081B0100081B0100081B01000810
:100060001B0100081B0100081B0100081B01000800
:100070001B0100081B0100081B0100081B010008F0
:100080001B0100081B0100081B0100081B010008E0
:100090001B0100081B0100081B0100081B010008D0
:1000A0001B0100081B0100081B0100081B010008C0
:1000B0001B0100081B0100081B0100081B010008B0
:1000C0001B0100081B0100081B0100081B010008A0
:1000D0001B0100081B0100081B0100081B01000890
:1000E0001B0100081B0100081B010008DFF80CD0F1
:1000F00000F020F800480047811100089804002013
:100100000648804706480047FEE7FEE7FEE7FEE7B1
:10011000FEE7FEE7FEE7FEE7FEE7FEE7150F000855
:10012000ED000008421C10F8011B0029FBD1801AC9
:1001300070470000064C074D06E0E06840F0010300
:1001400094E8070098471034AC42F6D3FFF7D2FF8B
:1001500098120008B8120008FEE7704731B500F0A9
:10016000F1F8044600F0EEF80099001B8842F9D33C
:1001700038BD00002DE9F84FDFF890A100220AF108
:10018000040B144601274FF00F090BF1040E00BFBA
:100190000B6807FA04F52B40AB4274D1DFF870C14D
:1001A0004E68A6EB0C0866452BD00DDC032E34D030
:1001B00005DC36B3012E19D0022E2FD11BE0112EF3
:1001C00016D0122E2AD119E0B8F5881F19D006DCF6
:1001D000B8F5803F15D0B8F5801F1FD111E0B8F5F4
:1001E000001F0ED0B8F5041F18D10AE0CA6815E048
:1001F000CA68121D12E0CA6808320FE0CA680C32E1
:100200000CE08A682AB1012A4FF0080203D0456148
:1002100004E0042202E0056100E00022FF2B01D887
:10022000064601E000F104064FEA840501D9A5F174
:100230002005D6F800C009FA05F82CEA080C02FAE5
:1002400005F54CEA050CC6F800C04D68ED0057D521
:10025000304DAE6946F00106AE61AD6924F003068B
:1002600005F0010500952C4D06EB050CDCF8085057
:10027000A6074FEA167809FA08F6B543274EB042AA
:1002800002D1002610E03BE0254EB04201D101260C
:100290000AE0244EB04201D1022605E0224EB042CF
:1002A00001D1032600E0042606FA08F62E43CCF816
:1002B00008604D68DAF80060ED03554601D51E432D
:1002C00000E09E432E604D68DBF80060AD035D46A4
:1002D00001D51E4300E09E432E604D68DEF80060AD
:1002E000ED02754601D51E4300E09E432E604D6829
:1002F000AD020E4D2E6801D51E4300E09E432E60D8
:10030000641C102CFFF444AFBDE8F88F00040140DA
:1003100000001110001002400000014000080140E0
:10032000000C014000100140001401400C04014089
:10033000C2684A40C26070470AB10161704709044F
:10034000FBE7000001480068704700000000002043
:1003500002480168491C016070470000000000204D
:10036000074810B5016841F010010160032000F05A
:100370007BF8002000F006F800F016F8002010BD11
:100380000020024010B5044600F044F94FF47A71A1
:10039000B0FBF1F000F084FC00222146501E00F07A
:1003A00043F8002010BD00001D4808B5816941F0E8
:1003B00001018161806900F001000090032000F0DC
:1003C00053F8002211466FF00B0000F02DF80022C8
:1003D00011466FF00A0000F027F8002211466FF076
:1003E000090000F021F800221146501F00F01CF80F
:1003F00000221146101F00F017F800221146901E2F
:1004000000F012F800221146501E00F00DF80548C9
:10041000416821F0E06141F00071416008BD0000D9
:100420000010024000000140F0B40E4B1B680C4667
:10043000C3F30223C3F10705042D00D90425191DB8
:10044000072901D2002300E0DB1E012606FA05F190
:10045000491E214099409E40761E16403143F0BC13
:1004600000F011BD0CED00E0064900F0070208683D
:100470004FF6FF03184040EA0220034A1043086089
:10048000704700000CED00E00000FA052DE9F04790
:10049000DFF8708105460E46D8F8000000F007002E
:1004A000B0420CD2D8F8001021F007013143C8F84F
:1004B0000010D8F8000000F00700B04277D128788B
:1004C000514C800705D56068A96820F0F00008430A
:1004D00060602878C00759D06968012001290DD0D3
:1004E000022929D05FF0020393FAA3F2B2FA82F252
:1004F00042F02002520904D0226803E04FF4003396
:10050000F2E7626A93FAA3F3B3FA83F303F01F03EB
:10051000984002424BD0606820F0030008436060BE
:10052000FFF710FF6968074641F2883001290DD0B6
:100530000229814617D025E04FF00073D4E700BFB1
:10054000FFF700FFC11B494501D918E081466068EB
:10055000C0F381000128F3D118E000BFFFF7F2FEDD
:10056000C11B49450BD86068C0F381000228F5D152
:100570000CE000BFFFF7E6FEC11B494502D903208E
:10058000BDE8F087606810F00C0FF3D1D8F80010C8
:10059000404601F00701B1420BD9016821F0070183
:1005A00031430160006800F00700B04201D0012033
:1005B000E6E72878400705D56068E96820F4E06040
:1005C000084360602878000706D56068296920F430
:1005D000605040EAC100606000F052F86168F022AB
:1005E00092FAA2F201F0F001B2FA82F2D140074A87
:1005F000515CC840064908600020FFF7C3FE002098
:10060000BEE70000002002400010024080120008F7
:10061000040000200148006870470000040000202A
:1006200008480949006849684FF4E06292FAA2F26A
:1006300001F4E061B2FA82F2D140044A515CC84050
:1006400070470000040000200010024090120008D3
:1006500008480949006849684FF4605292FAA2F2CA
:1006600001F46051B2FA82F2D140044A515CC840B0
:1006700070470000040000200010024090120008A3
:1006800010B519A385B00FCB8DE80F001AA01B4B36
:10069000006804905A681A4802F00C0104291DD021
:1006A00008291BD14FF4701494FAA4F402F47011C9
:1006B000B4FA84F4E140D2031DF8011010D55A6851
:1006C0004FF4003393FAA3F302F40032B3FA83F346
:1006D000DA4004AB9A5CB0FBF2F0484305B010BDC1
:1006E00008484843FAE70000020304050607080922
:1006F0000A0B0C0D0E0F101001020000001002403A
:1007000000127A0000093D002DE9F84F04460078F8
:10071000F74DC0074FF0010625D068687704C0F395
:100720008100012807D06868C0F3810002281BD12E
:100730006868C00318D597FAA7F0B0FA80F040F0C7
:100740002000400901D0286800E0686A97FAA7F104
:10075000B1FA81F101F01F0106FA01F108425ED001
:10076000606800287CD05AE06068B0F5803F0BD00C
:1007700010B1B0F5A02F11D0286820F48030286087
:10078000286820F4802002E0286840F48030286047
:10079000606828B3FFF7D6FD80460BE0286840F478
:1007A00080202860F0E700BFFFF7CCFDA0EB080039
:1007B000642871D897FAA7F0B0FA80F040F02000D2
:1007C000400901D0286800E0686A97FAA7F1B1FAF9
:1007D00081F101F01F0106FA01F10842E4D01EE0A8
:1007E000FFF7B0FD804605E0FFF7ACFDA0EB080089
:1007F0006428DED897FAA7F0B0FA80F040F0200025
:10080000400901D0286800E0686A97FAA7F1B1FAB8
:1008100081F101F01F0106FA01F10842E4D12078CC
:10082000DFF8D08280074FF000094FF002075BD558
:1008300068684FF0F80B10F00C0F07D06868C0F331
:10084000810002281CD16868C00319D497FAA7F068
:10085000B0FA80F040F02000400902D0286801E0A2
:100860008BE0686A97FAA7F1B1FA81F101F01F01F4
:1008700006FA01F108422CD0206901287DD128E038
:10088000206990B396FAA6F0B0FA80F048F820609C
:10089000FFF758FD824607E011E100BFFFF752FD68
:1008A000A0EB0A00022884D897FAA7F0B0FA80F0EB
:1008B00040F02000400901D0286800E0686A97FAFB
:1008C000A7F1B1FA81F101F01F0106FA01F1084226
:1008D000E4D028689BFAABF26169B2FA82F220F0A8
:1008E000F80091400843286025E0FFE796FAA6F15A
:1008F000B1FA81F148F82190FFF724FD824605E026
:10090000FFF720FDA0EB0A000228CCD897FAA7F049
:10091000B0FA80F040F02000400901D0286800E0E3
:10092000686A97FAA7F1B1FA81F101F01F0106FA9E
:1009300001F10842E4D1207800076ED5A069B8B370
:1009400096FAA6F0B0FA80F008EB8000C0F8806458
:10095000FFF7F8FC824605E0FFF7F4FCA0EB0A0085
:100960000228A0D897FAA7F0B0FA80F040F0600013
:10097000B6EB501F02D128680CE062E197FAA7F0AD
:10098000B0FA80F040F06000B7EB501F01D1286A48
:1009900000E0686A97FAA7F1B1FA81F101F01F014E
:1009A00006FA01F21042D7D00120FFF7D7FB34E05E
:1009B000FFE796FAA6F1B1FA81F108EB8101C1F8DF
:1009C0008094FFF7BFFC824606E000BFFFF7BAFC49
:1009D000A0EB0A00022872D897FAA7F0B0FA80F0CC
:1009E00040F06000B6EB501F01D128680BE097FA89
:1009F000A7F0B0FA80F040F06000B7EB501F01D1D3
:100A0000286A00E0686A97FAA7F1B1FA81F101F06B
:100A10001F0106FA01F21042D8D12078400765D5AF
:100A2000E86940F08050E861E869DFF8CCB000F098
:100A300080500090DBF8001041F48071CBF800107A
:100A4000FFF780FC824605E0FFF77CFCA0EB0A0084
:100A5000642834D8DBF80000C005F5D5E06801282B
:100A60000AD008B1052813D0286A20F001002862B6
:100A7000286A20F0040002E0286A40F001002862A1
:100A8000E06841F2883B90B3FFF75CFC82460BE0E4
:100A9000286A40F004002862EEE700BFFFF752FC2E
:100AA000A0EB0A0159450AD897FAA7F0B0FA80F0EE
:100AB00040F04000B6EB501F02D128680CE0A3E0E4
:100AC00097FAA7F0B0FA80F040F04000B7EB501F63
:100AD00001D1286A00E0686A97FAA7F1B1FA81F1BA
:100AE00001F01F0206FA02F10842D7D031E005E01A
:100AF000001002400000424200700040FFF722FC5C
:100B0000824605E0FFF71EFCA0EB0A0159457BD8A1
:100B100097FAA7F0B0FA80F040F04000B6EB501F13
:100B200001D128680BE097FAA7F0B0FA80F040F006
:100B30004000B7EB501F01D1286A00E0686A97FABD
:100B4000A7F1B1FA81F101F01F0206FA02F10842A1
:100B5000D8D1E06980B36968C1F38101022970D0FE
:100B60004FF080714F000228484609D091FAA1F158
:100B7000B1FA81F148F82100FFF7E4FB044669E08F
:100B80008A4691FAA1F1B1FA81F1C14648F82100F3
:100B9000FFF7D8FB804605E0FFF7D4FBA0EB080089
:100BA000022854D897FAA7F0B0FA80F040F020005D
:100BB000400902D0286801E061E0686A97FAA7F16D
:100BC000B1FA81F101F01F0106FA01F10842E3D107
:100BD000206AB0F5803F05D16868A16820F4003034
:100BE00008436860D4E908010843696821F4741176
:100BF000084368609AFAAAF0B0FA80F049F82060D9
:100C0000FFF7A0FB044606E021E000BFFFF79AFBD8
:100C1000001B02281BD897FAA7F0B0FA80F040F02A
:100C20002000400901D0286800E0686A97FAA7F11F
:100C3000B1FA81F101F01F0106FA01F10842E5D095
:100C40001DE01EE0FFF77EFB001B022802D90320F7
:100C5000BDE8F88F97FAA7F0B0FA80F040F02000D6
:100C6000400901D0286800E0686A97FAA7F1B1FA54
:100C700081F101F01F0106FA01F10842E2D10020E2
:100C8000E6E70120E4E74FF0E0210428086903D0FB
:100C900020F004000861704740F00400FAE7704754
:100CA00010B5401EB0F1807F01D3012010BD4FF080
:100CB000E02460610F21601700F0E5F80020A061DA
:100CC00007202061002010BD10B5FFF7E8FF10BD20
:100CD00070B5040004D094F83900002510B106E086
:100CE000012070BD84F83850204600F021F8022021
:100CF00084F839002068C16821F40051C1602046A1
:100D000000F02CF92068016921F49041016120680C
:100D1000416921F02A0141612068C16841F4005114
:100D2000C160E563012084F83900002070BD000037
:100D300070B51C4E036800241B49022003221B4D82
:100D400086B0B34211D18B6943F480438B618969CA
:100D5000039201F4804104910102CDE9001069463B
:100D60002846FFF707FA281513E0114EB34217D1B2
:100D7000CB6943F40033CB61C969039201F40031BC
:100D800004910421CDE9001069462846FFF7F2F9E5
:100D90000820CDE90004694628460294FFF7EAF9E5
:100DA00006B070BD0038014000100240000801404C
:100DB000004400402DE9F047044690F83900994678
:100DC0000D46012801D0222858D12DB322B394F822
:100DD0003800012852D0012684F838600027E763E4
:100DE00094F8390022281AD05FF0120084F83900F4
:100DF000A284E2844FF48058E08C4B46401EE0848D
:100E0000A0684FF0000240454FF08001204613D10A
:100E100000F05CF908BB04E00120BDE8F087322057
:100E2000E4E728882168C0F308004860206908B119
:100E30006D1C08E0AD1C06E000F048F968B92168B7
:100E400015F8010B4860E08C0028D5D14B460022F4
:100E50004021204600F03AF908B10320DDE794F87C
:100E60003900322806D084F8396000BF84F8387021
:100E70000020D2E7222084F83900F7E70220CCE7EF
:100E8000FEE7FEE770470907090E002806DA00F0C2
:100E90000F0000F1E02080F8141D704700F1E02001
:100EA00080F8001470477047704710B5FFF750FA8C
:100EB000BDE81040FFF708BF10B590B002200090C9
:100EC0000120049010200024059007946846FFF745
:100ED0001BFC00B1FEE70F20CDE90A040C940D9431
:100EE00000210AA80E94FFF7D1FA00B1FEE7FFF740
:100EF00091FB4FF47A71B0FBF1F0FFF7D1FE0420C3
:100F0000FFF7C1FE00221146501EFFF78DFA10B008
:100F100010BD00000D48016841F001010160416809
:100F20000B4A1140416001680A4A114001600168A2
:100F300021F480210160416821F4FE0141604FF4F9
:100F40001F0181600449C00308607047001002401F
:100F50000000FFF8FFFFF6FE08ED00E02DE9F0418C
:100F6000044600680169E26821F4405111430161BF
:100F70002169A0680843616908432168CA6841F291
:100F80000C639A430243CA6020684169A26921F454
:100F90004071114341614C492068642532268842E2
:100FA0003CD1FFF755FB00EBC00101EB001061687D
:100FB0008900B0FBF1F7FFF74BFB00EBC00101EB41
:100FC00000106168B0468900B0FBF1F0B0FBF5F0AD
:100FD0006FF01801484307EB800106EB0110B0FBEE
:100FE000F5F000F0F006FFF733FB00EBC00101EB7A
:100FF000001061688900B0FBF1F0B0FBF5F006EB82
:101000000016FFF725FB00EBC00101EB0010616843
:101010008900B0FBF1F7FFF71BFB3BE0FFF700FB9C
:1010200000EBC00101EB001061688900B0FBF1F733
:10103000FFF7F6FA00EBC00101EB00106168B04663
:101040008900B0FBF1F0B0FBF5F06FF018014843F8
:1010500007EB800106EB0110B0FBF5F000F0F006A5
:10106000FFF7DEFA00EBC00101EB001061688900B8
:10107000B0FBF1F0B0FBF5F006EB0016FFF7D0FA8D
:1010800000EBC00101EB001061688900B0FBF1F7D3
:10109000FFF7C6FA00EBC00101EB001061688900A0
:1010A000B0FBF1F0B0FBF5F06FF01801484307EB2F
:1010B000800108EB0110B0FBF5F0216800F00F0093
:1010C00030448860BDE8F081003801402DE9F047E8
:1010D0001D4690460E460446FFF734F907465FEA80
:1010E00008004FF000094FF0010808D030E0681CFC
:1010F00005D095B1FFF726F9C01BA8420DD820688E
:10110000006836EA0000F2D127E0681C20D025B143
:10111000FFF718F9C01BA8421AD92068C16821F04E
:101120008001C1602068C16821F02001C160206891
:10113000C16821F48071C1602068416921F001011A
:10114000416184F8398084F838900320BDE8F08745
:101150002068006836EA0000D7D00020F6E7FEE7F6
:1011600002E008C8121F08C1002AFAD17047704770
:10117000002001E001C1121F002AFBD170470000CE
:1011800086B0FFF7EDF8FFF797FE3348816941F02D
:1011900004018161816901F004010091816941F0DC
:1011A000040181618069DFF8B48000F004000490DC
:1011B0000022012144464046FFF7BEF801250220E7
:1011C00003900095694601952046FEF7D3FF254818
:1011D00023494FF4E13600240160C0E901640C2783
:1011E000C460C0E904478461C461FFF771FD00B1C8
:1011F000FEE71C481C4940380160C0E90164C46036
:10120000C0E904478461C461FFF762FD00B1FEE7F5
:1012100014480321403044464560C0E9025101466C
:1012200005604046FEF7A6FF10A54FF4FA764FF68C
:10123000FF7701212046FFF77BF83046FEF78EFF4F
:101240002846FEF76FFF82B206483B4629464038E3
:10125000FFF7B0FDEDE7000000100240000801407C
:1012600000440040480000200038014048656C6C94
:101270006F204E75636C656F2046756E210A0D00F8
:101280000000000000000000010203040607080936
:101290000000000001020304B81200080000002052
:1012A0000800000060110008C012000808000020BB
:1012B00090040000701100080000000000A24A0421
:04000005080000ED02
:00000001FF
