:020000040800F2
:100000007805002001010008CF1200088D110008BA
:10001000CD12000849010008471600080000000042
:100020000000000000000000000000009113000824
:100030004B01000800000000F112000893130008B3
:100040001B0100081B0100081B0100081B01000820
:100050001B0100081B0100081B0100081B01000810
:100060001B0100081B0100081B0100081B01000800
:100070001B0100081B0100081B0100081B010008F0
:100080001B0100081B0100081B0100081B010008E0
:100090001B0100081B0100081B0100081B010008D0
:1000A0001B0100081B0100081B0100081B010008C0
:1000B0001B0100081B0100081B0100081B010008B0
:1000C0001B0100081B0100081B0100081B010008A0
:1000D0001B0100081B0100081B0100081B01000890
:1000E0001B0100081B0100081B010008DFF80CD0F1
:1000F00000F018F800480047B916000878050020FD
:100100000648804706480047FEE7FEE7FEE7FEE7B1
:10011000FEE7FEE7FEE7FEE7FEE7FEE7FD13000869
:10012000ED000008064C074D06E0E06840F00103D2
:1001300094E8070098471034AC42F6D3FFF7DAFF93
:10014000B4170008D4170008FEE7704731B500F077
:10015000EDF8044600F0EAF80099001B8842F9D354
:1001600038BD00002DE9F84FDFF890A100220AF118
:10017000040B144601274FF00F090BF1040E00BFCA
:100180000B6807FA04F52B40AB4274D1DFF870C15D
:100190004E68A6EB0C0866452BD00DDC032E34D040
:1001A00005DC36B3012E19D0022E2FD11BE0112E03
:1001B00016D0122E2AD119E0B8F5881F19D006DC06
:1001C000B8F5803F15D0B8F5801F1FD111E0B8F504
:1001D000001F0ED0B8F5041F18D10AE0CA6815E058
:1001E000CA68121D12E0CA6808320FE0CA680C32F1
:1001F0000CE08A682AB1012A4FF0080203D0456159
:1002000004E0042202E0056100E00022FF2B01D897
:10021000064601E000F104064FEA840501D9A5F184
:100220002005D6F800C009FA05F82CEA080C02FAF5
:1002300005F54CEA050CC6F800C04D68ED0057D531
:10024000304DAE6946F00106AE61AD6924F003069B
:1002500005F0010500952C4D06EB050CDCF8085067
:10026000A6074FEA167809FA08F6B543274EB042BA
:1002700002D1002610E03BE0254EB04201D101261C
:100280000AE0244EB04201D1022605E0224EB042DF
:1002900001D1032600E0042606FA08F62E43CCF826
:1002A00008604D68DAF80060ED03554601D51E433D
:1002B00000E09E432E604D68DBF80060AD035D46B4
:1002C00001D51E4300E09E432E604D68DEF80060BD
:1002D000ED02754601D51E4300E09E432E604D6839
:1002E000AD020E4D2E6801D51E4300E09E432E60E8
:1002F000641C102CFFF444AFBDE8F88F00040140EB
:1003000000001110001002400000014000080140F0
:10031000000C014000100140001401400C04014099
:100320000AB1016170470904FBE700000148006859
:10033000704700001C00002002480168491C016051
:10034000704700001C000020074810B5016841F00C
:1003500010010160032000F07BF8002000F006F897
:1003600000F016F8002010BD0020024010B5044631
:1003700000F044F94FF47A71B0FBF1F000F0B0FDF9
:1003800000222146501E00F043F8002010BD00005E
:100390001D4808B5816941F001018161806900F063
:1003A00001000090032000F053F8002211466FF086
:1003B0000B0000F02DF8002211466FF00A0000F04B
:1003C00027F8002211466FF0090000F021F8002202
:1003D0001146501F00F01CF800221146101F00F0BB
:1003E00017F800221146901E00F012F80022114664
:1003F000501E00F00DF80548416821F0E06141F021
:100400000071416008BD0000001002400000014082
:10041000F0B40E4B1B680C46C3F30223C3F107056F
:10042000042D00D90425191D072901D2002300E05D
:10043000DB1E012606FA05F1491E214099409E4027
:10044000761E16403143F0BC00F042BF0CED00E0D8
:10045000064900F0070208684FF6FF03184040EA1B
:100460000220034A10430860704700000CED00E0D2
:100470000000FA052DE9F047DFF8708105460E46C9
:10048000D8F8000000F00700B0420CD2D8F80010F5
:1004900021F007013143C8F80010D8F8000000F03F
:1004A0000700B04277D12878514C800705D56068A5
:1004B000A96820F0F000084360602878C00759D090
:1004C0006968012001290DD0022929D05FF00203BB
:1004D00093FAA3F2B2FA82F242F02002520904D057
:1004E000226803E04FF40033F2E7626A93FAA3F361
:1004F000B3FA83F303F01F03984002424BD06068C5
:1005000020F0030008436060FFF710FF69680746AA
:1005100041F2883001290DD00229814617D025E00B
:100520004FF00073D4E700BFFFF700FFC11B494540
:1005300001D918E081466068C0F381000128F3D139
:1005400018E000BFFFF7F2FEC11B49450BD86068F9
:10055000C0F381000228F5D10CE000BFFFF7E6FEF2
:10056000C11B494502D90320BDE8F087606810F03F
:100570000C0FF3D1D8F80010404601F00701B1424A
:100580000BD9016821F0070131430160006800F0D8
:100590000700B04201D00120E6E72878400705D5E2
:1005A0006068E96820F4E06008436060287800072C
:1005B00006D56068296920F4605040EAC100606097
:1005C00000F052F86168F02292FAA2F201F0F00114
:1005D000B2FA82F2D140074A515CC840064908602D
:1005E0000020FFF7C3FE0020BEE70000002002400D
:1005F000001002409C1700082400002001480068F9
:100600007047000024000020084809490068496834
:100610004FF4E06292FAA2F201F4E061B2FA82F2DF
:10062000D140044A515CC8407047000024000020BB
:1006300000100240AC1700080848094900684968E2
:100640004FF4605292FAA2F201F46051B2FA82F2CF
:10065000D140044A515CC84070470000240000208B
:1006600000100240AC17000810B519A385B00FCBDD
:100670008DE80F001AA01B4B006804905A681A48B6
:1006800002F00C0104291DD008291BD14FF470146D
:1006900094FAA4F402F47011B4FA84F4E140D203A1
:1006A0001DF8011010D55A684FF4003393FAA3F3E4
:1006B00002F40032B3FA83F3DA4004AB9A5CB0FB85
:1006C000F2F0484305B010BD08484843FAE700007F
:1006D00002030405060708090A0B0C0D0E0F101083
:1006E000010200000010024000127A0000093D00E3
:1006F0002DE9F84F04460078F74DC0074FF001068A
:1007000025D068687704C0F38100012807D06868A5
:10071000C0F3810002281BD16868C00318D597FA7E
:10072000A7F0B0FA80F040F02000400901D028681E
:1007300000E0686A97FAA7F1B1FA81F101F01F01B0
:1007400006FA01F108425ED0606800287CD05AE0C9
:100750006068B0F5803F0BD010B1B0F5A02F11D07C
:10076000286820F480302860286820F4802002E087
:10077000286840F480302860606828B3FFF7D6FD11
:1007800080460BE0286840F480202860F0E700BF36
:10079000FFF7CCFDA0EB0800642871D897FAA7F00A
:1007A000B0FA80F040F02000400901D0286800E055
:1007B000686A97FAA7F1B1FA81F101F01F0106FA10
:1007C00001F10842E4D01EE0FFF7B0FD804605E0ED
:1007D000FFF7ACFDA0EB08006428DED897FAA7F07D
:1007E000B0FA80F040F02000400901D0286800E015
:1007F000686A97FAA7F1B1FA81F101F01F0106FAD0
:1008000001F10842E4D12078DFF8D08280074FF070
:1008100000094FF002075BD568684FF0F80B10F045
:100820000C0F07D06868C0F3810002281CD16868EB
:10083000C00319D497FAA7F0B0FA80F040F0200076
:10084000400902D0286801E08BE0686A97FAA7F1B6
:10085000B1FA81F101F01F0106FA01F108422CD032
:10086000206901287DD128E0206990B396FAA6F08E
:10087000B0FA80F048F82060FFF758FD824607E0A4
:1008800011E100BFFFF752FDA0EB0A00022884D857
:1008900097FAA7F0B0FA80F040F02000400901D0AC
:1008A000286800E0686A97FAA7F1B1FA81F101F0CF
:1008B0001F0106FA01F10842E4D028689BFAABF266
:1008C0006169B2FA82F220F0F80091400843286092
:1008D00025E0FFE796FAA6F1B1FA81F148F82190F8
:1008E000FFF724FD824605E0FFF720FDA0EB0A009C
:1008F0000228CCD897FAA7F0B0FA80F040F0200098
:10090000400901D0286800E0686A97FAA7F1B1FAB7
:1009100081F101F01F0106FA01F10842E4D12078CB
:1009200000076ED5A069B8B396FAA6F0B0FA80F0C9
:1009300008EB8000C0F88064FFF7F8FC824605E011
:10094000FFF7F4FCA0EB0A000228A0D897FAA7F062
:10095000B0FA80F040F06000B6EB501F02D128687A
:100960000CE062E197FAA7F0B0FA80F040F0600086
:10097000B7EB501F01D1286A00E0686A97FAA7F127
:10098000B1FA81F101F01F0106FA01F21042D7D04D
:100990000120FFF7DBFB34E0FFE796FAA6F1B1FA9E
:1009A00081F108EB8101C1F88094FFF7BFFC82461A
:1009B00006E000BFFFF7BAFCA0EB0A00022872D8DD
:1009C00097FAA7F0B0FA80F040F06000B6EB501F45
:1009D00001D128680BE097FAA7F0B0FA80F040F058
:1009E0006000B7EB501F01D1286A00E0686A97FAEF
:1009F000A7F1B1FA81F101F01F0106FA01F21042EC
:100A0000D8D12078400765D5E86940F08050E8618A
:100A1000E869DFF8CCB000F080500090DBF80010FF
:100A200041F48071CBF80010FFF780FC824605E0AE
:100A3000FFF77CFCA0EB0A00642834D8DBF8000048
:100A4000C005F5D5E06801280AD008B1052813D003
:100A5000286A20F001002862286A20F0040002E0E1
:100A6000286A40F001002862E06841F2883B90B3B8
:100A7000FFF75CFC82460BE0286A40F00400286225
:100A8000EEE700BFFFF752FCA0EB0A0159450AD878
:100A900097FAA7F0B0FA80F040F04000B6EB501F94
:100AA00002D128680CE0A3E097FAA7F0B0FA80F032
:100AB00040F04000B7EB501F01D1286A00E0686A9F
:100AC00097FAA7F1B1FA81F101F01F0206FA02F1DB
:100AD0000842D7D031E005E0001002400000424259
:100AE00000700040FFF722FC824605E0FFF71EFC85
:100AF000A0EB0A0159457BD897FAA7F0B0FA80F02D
:100B000040F04000B6EB501F01D128680BE097FA87
:100B1000A7F0B0FA80F040F04000B7EB501F01D1D1
:100B2000286A00E0686A97FAA7F1B1FA81F101F04A
:100B30001F0206FA02F10842D8D1E06980B3696861
:100B4000C1F38101022970D04FF080714F0002285B
:100B5000484609D091FAA1F1B1FA81F148F8210093
:100B6000FFF7E4FB044669E08A4691FAA1F1B1FA85
:100B700081F1C14648F82100FFF7D8FB804605E027
:100B8000FFF7D4FBA0EB0800022854D897FAA7F08F
:100B9000B0FA80F040F02000400902D0286801E05F
:100BA00061E0686A97FAA7F1B1FA81F101F01F01DB
:100BB00006FA01F10842E3D1206AB0F5803F05D181
:100BC0006868A16820F4003008436860D4E908012F
:100BD0000843696821F47411084368609AFAAAF01E
:100BE000B0FA80F049F82060FFF7A0FB044606E069
:100BF00021E000BFFFF79AFB001B02281BD897FAE1
:100C0000A7F0B0FA80F040F02000400901D0286839
:100C100000E0686A97FAA7F1B1FA81F101F01F01CB
:100C200006FA01F10842E5D01DE01EE0FFF77EFB69
:100C3000001B022802D90320BDE8F88F97FAA7F01D
:100C4000B0FA80F040F02000400901D0286800E0B0
:100C5000686A97FAA7F1B1FA81F101F01F0106FA6B
:100C600001F10842E2D10020E6E70120E4E70000BC
:100C700010B5040003D094F8510010B104E0012035
:100C800010BD204600F038F8022084F8510020689A
:100C9000016821F040010160D4E901010843D4E971
:100CA00003121143084361690843218B01F4007169
:100CB0000843E1690843216A0843A16A084321689F
:100CC0000860A069042101EA1040616A08432168B4
:100CD00048602168E06A08612068C16921F4006108
:100CE000C1610449002008706065012084F851004A
:100CF000002010BD2000002010B51C4C03681C48CB
:100D00000221032286B0A3420ED1836943F48053AB
:100D100083618069039200F480500490A020CDE9A3
:100D20000001694613481CE0134CA3421BD1C36960
:100D300043F48043C361C069104C00F480400490C8
:100D40004FF42040CDE90001039269462046FFF7A9
:100D500009FA00214FF48040CDE900010291694673
:100D60002046FFF7FFF906B010BD0000003001403B
:100D7000001002400008014000380040000C014013
:100D80002DE9F843044690F851009846012870D1A7
:100D900039B332B394F8500001286AD0012684F8A0
:100DA0005060122084F85100002565652163A286F9
:100DB000E286E564A564A563A587E587A06A770355
:100DC000B84209D12068016821F40051016020680F
:100DD000016841F400510160A068B0F5004F03D0F4
:100DE00007E00120BDE8F8832068016841F48041F4
:100DF000016020680168490603D4016841F04001A0
:100E00000160E0680028606804D0D8B1E08E012855
:100E100018D021E010B1E08E012808D1206B411CD0
:100E2000216321680078C860E08E401EE0860004DF
:100E3000000C1FD0434600220221204600F059FA40
:100E4000A8B9EBE7206B21680088C860206B801C84
:100E50002063E08E401EE0860004000C0AD043466A
:100E600000220221204600F044FA0028EAD00320A4
:100E7000B8E726E0A06AB84204D12068016841F4CE
:100E800080510160434600220221204600F031FAE1
:100E900030B9434601228021204600F02AFA20B1D1
:100EA000606D40F010006065E1E7A06818B9206847
:100EB000C1688068009084F8516084F85050002028
:100EC00090E702208EE74FF0E0210428086903D064
:100ED00020F004000861704740F00400FAE7704712
:100EE00010B5401EB0F1807F01D3012010BD4FF03E
:100EF000E02460610F21601700F0EAF90020A06192
:100F000007202061002010BD10B5FFF7E8FF10BDDD
:100F100070B5040004D094F83900002510B106E043
:100F2000012070BD84F83850204600F021F80220DE
:100F300084F839002068C16821F40051C16020465E
:100F400000F080FA2068016921F490410161206875
:100F5000416921F02A0141612068C16841F40051D2
:100F6000C160E563012084F83900002070BD0000F5
:100F700070B51C4E036800241B49022003221B4D40
:100F800086B0B34211D18B6943F480438B61896988
:100F9000039201F4804104910102CDE900106946F9
:100FA0002846FFF7DFF8281513E0114EB34217D19A
:100FB000CB6943F40033CB61C969039201F400317A
:100FC00004910421CDE9001069462846FFF7CAF8CC
:100FD0000820CDE90004694628460294FFF7C2F8CC
:100FE00006B070BD0038014000100240000801400A
:100FF000004400402DE9F047044690F83900994636
:101000000D46012801D0122858D12DB322B394F8EF
:101010003800012852D0012684F838600027E763A1
:1010200094F8390012281AD05FF0220084F83900B1
:10103000A285E2854FF48058E08D4B46401EE08546
:10104000A0684FF0000240454FF02001204616D125
:1010500000F0B0FAB0B904E00120BDE8F08732201A
:10106000E4E7206900282068406803D0C1B225F871
:10107000011B12E0C0F3080125F8021B0DE000F08F
:1010800099FA08B10320E8E7206900282068406841
:1010900001D000F07F0005F8010BE08D0028CBD1D6
:1010A00094F83900322805D084F8396084F8387013
:1010B0000020D2E7122084F83900F7E70220CCE7BD
:1010C0002DE9F047044690F8390099460D4601286D
:1010D00001D0222858D12DB322B394F8380001282A
:1010E00052D0012684F838600027E76394F839006D
:1010F00022281AD05FF0120084F83900A284E2841A
:101100004FF48058E08C4B46401EE084A0684FF0BE
:10111000000240454FF08001204613D100F04AFA0A
:1011200008BB04E00120BDE8F0873220E4E728880E
:101130002168C0F308004860206908B16D1C08E010
:10114000AD1C06E000F036FA68B9216815F8010B0D
:101150004860E08C0028D5D14B4600224021204633
:1011600000F028FA08B10320DDE794F839003228AE
:1011700006D084F8396000BF84F838700020D2E7C8
:10118000222084F83900F7E70220CCE7FEE70000D0
:101190002DE9F043294885B0816941F01001816152
:1011A000816901F010010491816941F004018161BC
:1011B000816901F004010491816941F008018161B4
:1011C00080691F4F00F008000490002280213846FB
:1011D000FFF7A6F88020DFF86C804FF460440090A1
:1011E000002221464046FFF79BF800225221384654
:1011F000FFF796F8DFF8509041F2230600223146BF
:101200004846FFF78DF800940124022569464046C0
:1012100003950194FEF7A6FF5220CDE9000469462C
:1012200003953846FEF79EFFCDE9006469464846BF
:101230000395FEF797FF05B0BDE8F083001002406C
:101240000008014000100140000C01400E4810B59C
:101250000C4901604FF482714160002181600122DC
:10126000C160C0E90412520282612822C0E907214C
:10127000416281620A21C162FFF7FAFC002800D0B6
:10128000FEE710BD00300140280000200E4810B5D8
:101290000C4901604FF4827141600021022281609B
:1012A000C0E903121202C0E905123822C0E9072181
:1012B000416281620A21C162FFF7DAFC002800D096
:1012C000FEE710BD0038004080000020FEE77047B8
:1012D0000907090E002806DA00F00F0000F1E020EF
:1012E00080F8141D704700F1E02080F8001470476A
:1012F00070472DE9F0471D4690460E460446FFF71D
:1013000015F807465FEA08004FF000084FF4005A4E
:101310004FF0010926D034E0681C23D025B1FFF737
:1013200005F8C01BA8421DD92068416821F0E001E2
:1013300041602068016821F040010160A06A5045C9
:1013400009D12068016821F400510160206801681A
:1013500041F40051016084F8519084F850800320DA
:10136000BDE8F0872068806836EA0000D4D10DE03F
:10137000681C06D0002DD7D0FEF7D8FFC01BA842AE
:10138000D2D82068806836EA0000F1D00020E7E774
:10139000704710B5FEF7D0FFBDE81040FFF7B4BDB1
:1013A00010B590B00220009001200490102000247D
:1013B000059007946846FFF79BF900B1FEE70F2000
:1013C000CDE90A040C940D9400210AA80E94FFF7AD
:1013D00051F800B1FEE7FFF711F94FF47A71B0FB55
:1013E000F1F0FFF77DFD0420FFF76DFD00221146AF
:1013F000501EFFF70DF810B010BD00000D48016839
:1014000041F00101016041680B4A114041600168EF
:101410000A4A11400160016821F48021016041689D
:1014200021F4FE0141604FF41F0181600449C003B3
:1014300008607047001002400000FFF8FFFFF6FE52
:1014400008ED00E02DE9F041044600680169E2681A
:1014500021F44051114301612169A0680843616989
:1014600008432168CA6841F20C639A430243CA6088
:1014700020684169A26921F44071114341614C49DE
:1014800020686425322688423CD1FFF7D5F800EB6E
:10149000C00101EB001061688900B0FBF1F7FFF7B4
:1014A000CBF800EBC00101EB00106168B046890089
:1014B000B0FBF1F0B0FBF5F06FF01801484307EB1B
:1014C000800106EB0110B0FBF5F000F0F006FFF72D
:1014D000B3F800EBC00101EB001061688900B0FBBC
:1014E000F1F0B0FBF5F006EB0016FFF7A5F800EB06
:1014F000C00101EB001061688900B0FBF1F7FFF754
:101500009BF83BE0FFF780F800EBC00101EB001017
:1015100061688900B0FBF1F7FFF776F800EBC001D6
:1015200001EB00106168B0468900B0FBF1F0B0FB40
:10153000F5F06FF01801484307EB800106EB01104E
:10154000B0FBF5F000F0F006FFF75EF800EBC0012D
:1015500001EB001061688900B0FBF1F0B0FBF5F021
:1015600006EB0016FFF750F800EBC00101EB00108E
:1015700061688900B0FBF1F7FFF746F800EBC001A6
:1015800001EB001061688900B0FBF1F0B0FBF5F0F1
:101590006FF01801484307EB800108EB0110B0FB26
:1015A000F5F0216800F00F0030448860BDE8F0815C
:1015B000003801402DE9F0471D4690460E4604468E
:1015C000FEF7B4FE07465FEA08004FF000094FF04F
:1015D000010808D030E0681C05D095B1FEF7A6FEE2
:1015E000C01BA8420DD82068006836EA0000F2D17E
:1015F00027E0681C20D025B1FEF798FEC01BA8424A
:101600001AD92068C16821F08001C1602068C168D2
:1016100021F02001C1602068C16821F48071C1609F
:101620002068416921F00101416184F8398084F822
:1016300038900320BDE8F0872068006836EA000093
:10164000D7D00020F6E7FEE70FB4084610B5064AEB
:1016500002A900F01AF8044602A9002000F026F8BA
:10166000204610BC5DF814FBAD16000802E008C867
:10167000121F08C1002AFAD170477047002001E00C
:1016800001C1121F002AFBD170472DE9F041164617
:101690000F460446002503E03946B047641C6D1C24
:1016A00020780028F8D12846BDE8F0810A68531C4C
:1016B0000B6010707047000008B5FEF745FEFFF79D
:1016C0006FFEFFF765FDFFF7E1FD284826494FF45F
:1016D000E13500240160C0E901540C26C460C0E972
:1016E00004468461C461FFF713FC00B1FEE71F48A4
:1016F0001F4940380160C0E90154C460C0E9044694
:101700008461C461FFF704FC00B1FEE7FFF79EFDB2
:10171000164818A14030FFF797FF14494123403184
:101720001E22A1F18000FFF7CBFC4FF0FF340F48E1
:101730002346012269464038FFF75CFC0B4812A1A2
:101740004030FFF781FF0949412340311E22A1F1BA
:101750008000FFF7B5FC054801231C220E49F03834
:10176000FFF70EFBE3E700000044004018010020F3
:10177000003801400D77696C6C206C6967687420D3
:101780007570210A0D0000000D737461727420538E
:1017900050490A0D00000000000000200000000079
:1017A0000000000001020304060708090000000011
:1017B00001020304D41700080000002028000000E4
:1017C0006C160008FC1700082800002050050000D7
:1017D0007C16000896DFFFFFFFFFFFFFFFFFFFFF04
:1017E000FFFFFFFFFFFFFFFFFFFFFFFFFFFF000007
:0C17F000000000000000000000A24A04FD
:04000005080000ED02
:00000001FF
