:020000040800F2
:10000000B8050020010100082B130008E1110008C9
:100010002913000869020008A31600080000000068
:10002000000000000000000000000000ED130008C8
:100030006B020008000000004D130008EF130008D9
:100040001B0100081B0100081B0100081B01000820
:100050001B0100081B0100081B0100081B01000810
:100060001B0100081B0100081B0100081B01000800
:100070001B0100081B0100081B0100081B010008F0
:100080001B0100081B0100081B0100081B010008E0
:100090001B0100081B0100081B0100081B010008D0
:1000A0001B0100081B0100081B0100081B010008C0
:1000B0001B0100081B0100081B0100081B010008B0
:1000C0001B0100081B0100081B0100081B010008A0
:1000D0001B0100081B0100081B0100081B01000890
:1000E0001B0100081B0100081B010008DFF80CD0F1
:1000F00000F040F800480047B9180008B805002093
:100100000648804706480047FEE7FEE7FEE7FEE7B1
:10011000FEE7FEE7FEE7FEE7FEE7FEE7591400080C
:10012000ED00000840EA01039B0703D009E008C97D
:10013000121F08C0042AFAD203E011F8013B00F8AC
:10014000013B521EF9D2704730B50B4601460020E4
:100150002022012409E021FA02F59D4205D303FA89
:1001600002F5491B04FA02F52844151EA2F101020A
:10017000F1DC30BD064C074D06E0E06840F00103BD
:1001800094E8070098471034AC42F6D3FFF7B2FF6B
:10019000C4190008E41900082DE9F04188B01C22B8
:1001A00022A16846FFF7BEFF274C0020FF266D46C0
:1001B00020274FF47A782060404205EB4000C67655
:1001C0008776684601F042FB226820A1504205EB89
:1001D0004000037F224801F065FA214941231E2295
:1001E000A1F1800000F096FF226818A1504205EBB3
:1001F0004000C37E1A4801F055FA194941231E22D6
:10020000A1F1800000F086FF0A231C2269461548F0
:1002100000F046FE404600F029F82068401C2060AF
:100220000A28C9DB08B0BDE8F081000096DFFFFFB7
:1002300000000000000000000000000000000000BE
:100240000000000000000000000000200D4C4544AC
:10025000206E722E2025693A2025750A0D000000B7
:100260007801002048000020FEE7704731B500F01B
:10027000EDF8044600F0EAF80099001B8842F9D333
:1002800038BD00002DE9F84FDFF890A100220AF1F7
:10029000040B144601274FF00F090BF1040E00BFA9
:1002A0000B6807FA04F52B40AB4274D1DFF870C13C
:1002B0004E68A6EB0C0866452BD00DDC032E34D01F
:1002C00005DC36B3012E19D0022E2FD11BE0112EE2
:1002D00016D0122E2AD119E0B8F5881F19D006DCE5
:1002E000B8F5803F15D0B8F5801F1FD111E0B8F5E3
:1002F000001F0ED0B8F5041F18D10AE0CA6815E037
:10030000CA68121D12E0CA6808320FE0CA680C32CF
:100310000CE08A682AB1012A4FF0080203D0456137
:1003200004E0042202E0056100E00022FF2B01D876
:10033000064601E000F104064FEA840501D9A5F163
:100340002005D6F800C009FA05F82CEA080C02FAD4
:1003500005F54CEA050CC6F800C04D68ED0057D510
:10036000304DAE6946F00106AE61AD6924F003067A
:1003700005F0010500952C4D06EB050CDCF8085046
:10038000A6074FEA167809FA08F6B543274EB04299
:1003900002D1002610E03BE0254EB04201D10126FB
:1003A0000AE0244EB04201D1022605E0224EB042BE
:1003B00001D1032600E0042606FA08F62E43CCF805
:1003C00008604D68DAF80060ED03554601D51E431C
:1003D00000E09E432E604D68DBF80060AD035D4693
:1003E00001D51E4300E09E432E604D68DEF800609C
:1003F000ED02754601D51E4300E09E432E604D6818
:10040000AD020E4D2E6801D51E4300E09E432E60C6
:10041000641C102CFFF444AFBDE8F88F00040140C9
:1004200000001110001002400000014000080140CF
:10043000000C014000100140001401400C04014078
:100440000AB1016170470904FBE700000148006838
:10045000704700003C00002002480168491C016010
:10046000704700003C000020074810B5016841F0CB
:1004700010010160032000F07BF8002000F006F876
:1004800000F016F8002010BD0020024010B5044610
:1004900000F044F94FF47A71B0FBF1F000F0B0FDD8
:1004A00000222146501E00F043F8002010BD00003D
:1004B0001D4808B5816941F001018161806900F042
:1004C00001000090032000F053F8002211466FF065
:1004D0000B0000F02DF8002211466FF00A0000F02A
:1004E00027F8002211466FF0090000F021F80022E1
:1004F0001146501F00F01CF800221146101F00F09A
:1005000017F800221146901E00F012F80022114642
:10051000501E00F00DF80548416821F0E06141F0FF
:100520000071416008BD0000001002400000014061
:10053000F0B40E4B1B680C46C3F30223C3F107054E
:10054000042D00D90425191D072901D2002300E03C
:10055000DB1E012606FA05F1491E214099409E4006
:10056000761E16403143F0BC00F0E0BE0CED00E01A
:10057000064900F0070208684FF6FF03184040EAFA
:100580000220034A10430860704700000CED00E0B1
:100590000000FA052DE9F047DFF8708105460E46A8
:1005A000D8F8000000F00700B0420CD2D8F80010D4
:1005B00021F007013143C8F80010D8F8000000F01E
:1005C0000700B04277D12878514C800705D5606884
:1005D000A96820F0F000084360602878C00759D06F
:1005E0006968012001290DD0022929D05FF002039A
:1005F00093FAA3F2B2FA82F242F02002520904D036
:10060000226803E04FF40033F2E7626A93FAA3F33F
:10061000B3FA83F303F01F03984002424BD06068A3
:1006200020F0030008436060FFF710FF6968074689
:1006300041F2883001290DD00229814617D025E0EA
:100640004FF00073D4E700BFFFF700FFC11B49451F
:1006500001D918E081466068C0F381000128F3D118
:1006600018E000BFFFF7F2FEC11B49450BD86068D8
:10067000C0F381000228F5D10CE000BFFFF7E6FED1
:10068000C11B494502D90320BDE8F087606810F01E
:100690000C0FF3D1D8F80010404601F00701B14229
:1006A0000BD9016821F0070131430160006800F0B7
:1006B0000700B04201D00120E6E72878400705D5C1
:1006C0006068E96820F4E06008436060287800070B
:1006D00006D56068296920F4605040EAC100606076
:1006E00000F052F86168F02292FAA2F201F0F001F3
:1006F000B2FA82F2D140074A515CC840064908600C
:100700000020FFF7C3FE0020BEE7000000200240EB
:1007100000100240AC1900084400002001480068A5
:1007200070470000440000200848094900684968F3
:100730004FF4E06292FAA2F201F4E061B2FA82F2BE
:10074000D140044A515CC84070470000440000207A
:1007500000100240BC1900080848094900684968AF
:100760004FF4605292FAA2F201F46051B2FA82F2AE
:10077000D140044A515CC84070470000440000204A
:1007800000100240BC19000810B519A385B00FCBAA
:100790008DE80F001AA01B4B006804905A681A4895
:1007A00002F00C0104291DD008291BD14FF470144C
:1007B00094FAA4F402F47011B4FA84F4E140D20380
:1007C0001DF8011010D55A684FF4003393FAA3F3C3
:1007D00002F40032B3FA83F3DA4004AB9A5CB0FB64
:1007E000F2F0484305B010BD08484843FAE700005E
:1007F00002030405060708090A0B0C0D0E0F101062
:10080000010200000010024000127A0000093D00C1
:100810002DE9F84F04460078F74DC0074FF0010668
:1008200025D068687704C0F38100012807D0686884
:10083000C0F3810002281BD16868C00318D597FA5D
:10084000A7F0B0FA80F040F02000400901D02868FD
:1008500000E0686A97FAA7F1B1FA81F101F01F018F
:1008600006FA01F108425ED0606800287CD05AE0A8
:100870006068B0F5803F0BD010B1B0F5A02F11D05B
:10088000286820F480302860286820F4802002E066
:10089000286840F480302860606828B3FFF7D6FDF0
:1008A00080460BE0286840F480202860F0E700BF15
:1008B000FFF7CCFDA0EB0800642871D897FAA7F0E9
:1008C000B0FA80F040F02000400901D0286800E034
:1008D000686A97FAA7F1B1FA81F101F01F0106FAEF
:1008E00001F10842E4D01EE0FFF7B0FD804605E0CC
:1008F000FFF7ACFDA0EB08006428DED897FAA7F05C
:10090000B0FA80F040F02000400901D0286800E0F3
:10091000686A97FAA7F1B1FA81F101F01F0106FAAE
:1009200001F10842E4D12078DFF8D08280074FF04F
:1009300000094FF002075BD568684FF0F80B10F024
:100940000C0F07D06868C0F3810002281CD16868CA
:10095000C00319D497FAA7F0B0FA80F040F0200055
:10096000400902D0286801E08BE0686A97FAA7F195
:10097000B1FA81F101F01F0106FA01F108422CD011
:10098000206901287DD128E0206990B396FAA6F06D
:10099000B0FA80F048F82060FFF758FD824607E083
:1009A00011E100BFFFF752FDA0EB0A00022884D836
:1009B00097FAA7F0B0FA80F040F02000400901D08B
:1009C000286800E0686A97FAA7F1B1FA81F101F0AE
:1009D0001F0106FA01F10842E4D028689BFAABF245
:1009E0006169B2FA82F220F0F80091400843286071
:1009F00025E0FFE796FAA6F1B1FA81F148F82190D7
:100A0000FFF724FD824605E0FFF720FDA0EB0A007A
:100A10000228CCD897FAA7F0B0FA80F040F0200076
:100A2000400901D0286800E0686A97FAA7F1B1FA96
:100A300081F101F01F0106FA01F10842E4D12078AA
:100A400000076ED5A069B8B396FAA6F0B0FA80F0A8
:100A500008EB8000C0F88064FFF7F8FC824605E0F0
:100A6000FFF7F4FCA0EB0A000228A0D897FAA7F041
:100A7000B0FA80F040F06000B6EB501F02D1286859
:100A80000CE062E197FAA7F0B0FA80F040F0600065
:100A9000B7EB501F01D1286A00E0686A97FAA7F106
:100AA000B1FA81F101F01F0106FA01F21042D7D02C
:100AB0000120FFF7DBFB34E0FFE796FAA6F1B1FA7D
:100AC00081F108EB8101C1F88094FFF7BFFC8246F9
:100AD00006E000BFFFF7BAFCA0EB0A00022872D8BC
:100AE00097FAA7F0B0FA80F040F06000B6EB501F24
:100AF00001D128680BE097FAA7F0B0FA80F040F037
:100B00006000B7EB501F01D1286A00E0686A97FACD
:100B1000A7F1B1FA81F101F01F0106FA01F21042CA
:100B2000D8D12078400765D5E86940F08050E86169
:100B3000E869DFF8CCB000F080500090DBF80010DE
:100B400041F48071CBF80010FFF780FC824605E08D
:100B5000FFF77CFCA0EB0A00642834D8DBF8000027
:100B6000C005F5D5E06801280AD008B1052813D0E2
:100B7000286A20F001002862286A20F0040002E0C0
:100B8000286A40F001002862E06841F2883B90B397
:100B9000FFF75CFC82460BE0286A40F00400286204
:100BA000EEE700BFFFF752FCA0EB0A0159450AD857
:100BB00097FAA7F0B0FA80F040F04000B6EB501F73
:100BC00002D128680CE0A3E097FAA7F0B0FA80F011
:100BD00040F04000B7EB501F01D1286A00E0686A7E
:100BE00097FAA7F1B1FA81F101F01F0206FA02F1BA
:100BF0000842D7D031E005E0001002400000424238
:100C000000700040FFF722FC824605E0FFF71EFC63
:100C1000A0EB0A0159457BD897FAA7F0B0FA80F00B
:100C200040F04000B6EB501F01D128680BE097FA66
:100C3000A7F0B0FA80F040F04000B7EB501F01D1B0
:100C4000286A00E0686A97FAA7F1B1FA81F101F029
:100C50001F0206FA02F10842D8D1E06980B3696840
:100C6000C1F38101022970D04FF080714F0002283A
:100C7000484609D091FAA1F1B1FA81F148F8210072
:100C8000FFF7E4FB044669E08A4691FAA1F1B1FA64
:100C900081F1C14648F82100FFF7D8FB804605E006
:100CA000FFF7D4FBA0EB0800022854D897FAA7F06E
:100CB000B0FA80F040F02000400902D0286801E03E
:100CC00061E0686A97FAA7F1B1FA81F101F01F01BA
:100CD00006FA01F10842E3D1206AB0F5803F05D160
:100CE0006868A16820F4003008436860D4E908010E
:100CF0000843696821F47411084368609AFAAAF0FD
:100D0000B0FA80F049F82060FFF7A0FB044606E047
:100D100021E000BFFFF79AFB001B02281BD897FABF
:100D2000A7F0B0FA80F040F02000400901D0286818
:100D300000E0686A97FAA7F1B1FA81F101F01F01AA
:100D400006FA01F10842E5D01DE01EE0FFF77EFB48
:100D5000001B022802D90320BDE8F88F97FAA7F0FC
:100D6000B0FA80F040F02000400901D0286800E08F
:100D7000686A97FAA7F1B1FA81F101F01F0106FA4A
:100D800001F10842E2D10020E6E70120E4E700009B
:100D900010B5040003D094F8510010B104E0012014
:100DA00010BD204600F038F8022084F85100206879
:100DB000016821F040010160D4E901010843D4E950
:100DC00003121143084361690843218B01F4007148
:100DD0000843E1690843216A0843A16A084321687E
:100DE0000860A069042101EA1040616A0843216893
:100DF00048602168E06A08612068C16921F40061E7
:100E0000C1610449002008706065012084F8510028
:100E1000002010BD4000002010B51C4C03681C4889
:100E20000221032286B0A3420ED1836943F480538A
:100E300083618069039200F480500490A020CDE982
:100E40000001694613481CE0134CA3421BD1C3693F
:100E500043F48043C361C069104C00F480400490A7
:100E60004FF42040CDE90001039269462046FFF788
:100E700009FA00214FF48040CDE900010291694652
:100E80002046FFF7FFF906B010BD0000003001401A
:100E9000001002400008014000380040000C0140F2
:100EA0002DE9F843044690F851009846012870D186
:100EB00039B332B394F8500001286AD0012684F87F
:100EC0005060122084F85100002565652163A286D8
:100ED000E286E564A564A563A587E587A06A770334
:100EE000B84209D12068016821F4005101602068EE
:100EF000016841F400510160A068B0F5004F03D0D3
:100F000007E00120BDE8F8832068016841F48041D2
:100F1000016020680168490603D4016841F040017E
:100F20000160E0680028606804D0D8B1E08E012834
:100F300018D021E010B1E08E012808D1206B411CAF
:100F4000216321680078C860E08E401EE0860004BE
:100F5000000C1FD0434600220221204600F0F7F982
:100F6000A8B9EBE7206B21680088C860206B801C63
:100F70002063E08E401EE0860004000C0AD0434649
:100F800000220221204600F0E2F90028EAD00320E6
:100F9000B8E726E0A06AB84204D12068016841F4AD
:100FA00080510160434600220221204600F0CFF923
:100FB00030B9434601228021204600F0C8F920B113
:100FC000606D40F010006065E1E7A06818B9206826
:100FD000C1688068009084F8516084F85050002007
:100FE00090E702208EE74FF0E0210428086903D043
:100FF00020F004000861704740F00400FAE77047F1
:1010000010B5401EB0F1807F01D3012010BD4FF01C
:10101000E02460610F21601700F088F90020A061D2
:1010200007202061002010BD10B5FFF7E8FF10BDBC
:1010300070B5040004D094F83900002510B106E022
:10104000012070BD84F83850204600F021F80220BD
:1010500084F839002068C16821F40051C16020463D
:1010600000F01EFA2068016921F4904101612068B6
:10107000416921F02A0141612068C16841F40051B1
:10108000C160E563012084F83900002070BD0000D4
:1010900070B51C4E036800241B49022003221B4D1F
:1010A00086B0B34211D18B6943F480438B61896967
:1010B000039201F4804104910102CDE900106946D8
:1010C0002846FFF7DFF8281513E0114EB34217D179
:1010D000CB6943F40033CB61C969039201F4003159
:1010E00004910421CDE9001069462846FFF7CAF8AB
:1010F0000820CDE90004694628460294FFF7C2F8AB
:1011000006B070BD003801400010024000080140E8
:10111000004400402DE9F047044690F83900994614
:101120000D46012801D0222858D12DB322B394F8BE
:101130003800012852D0012684F838600027E76380
:1011400094F8390022281AD05FF0120084F8390090
:10115000A284E2844FF48058E08C4B46401EE08429
:10116000A0684FF0000240454FF08001204613D1A7
:1011700000F04EFA08BB04E00120BDE8F087322001
:10118000E4E728882168C0F308004860206908B1B6
:101190006D1C08E0AD1C06E000F03AFA68B9216861
:1011A00015F8010B4860E08C0028D5D14B46002291
:1011B0004021204600F02CFA08B10320DDE794F826
:1011C0003900322806D084F8396000BF84F83870BE
:1011D0000020D2E7222084F83900F7E70220CCE78C
:1011E000FEE700002DE9F043294885B0816941F010
:1011F00010018161816901F010010491816941F060
:1012000004018161816901F004010491816941F067
:101210000801816180691F4F00F0080004900022DE
:1012200080213846FFF70CF98020DFF86C804FF4FE
:1012300060440090002221464046FFF701F9002259
:1012400052213846FFF7FCF8DFF8509041F22306B0
:10125000002231464846FFF7F3F8009401240225A6
:101260006946404603950194FFF70CF85220CDE9FA
:101270000004694603953846FFF704F8CDE9006499
:10128000694648460395FEF7FDFF05B0BDE8F083CB
:10129000001002400008014000100140000C014015
:1012A000104810B50E4901604FF4827141604FF44F
:1012B0000041816000210222C0E903120122426143
:1012C000520282612822C0E90721416281620A211B
:1012D000C162FFF75DFD002800D0FEE710BD0000F1
:1012E00000300140480000200E4810B50C49016054
:1012F0004FF482714160002102228160C0E9031233
:101300001202C0E905123822C0E907214162816258
:101310000A21C162FFF73CFD002800D0FEE710BDA6
:1013200000380040A0000020FEE770470907090EC2
:10133000002806DA00F00F0000F1E02080F8141D0C
:10134000704700F1E02080F80014704770472DE9E5
:10135000F0471D4690460E460446FFF777F80746CD
:101360005FEA08004FF000084FF4005A4FF00109FF
:1013700026D034E0681C23D025B1FFF767F8C01BE6
:10138000A8421DD92068416821F0E0014160206831
:10139000016821F040010160A06A504509D1206830
:1013A000016821F4005101602068016841F4005196
:1013B000016084F8519084F850800320BDE8F087E4
:1013C0002068806836EA0000D4D10DE0681C06D0A1
:1013D000002DD7D0FFF73AF8C01BA842D2D820681A
:1013E000806836EA0000F1D00020E7E7704710B5CA
:1013F000FFF732F8BDE81040FFF716BE10B590B009
:1014000002200090012004901020002405900794F1
:101410006846FFF7FDF900B1FEE70F20CDE90A04A9
:101420000C940D9400210AA80E94FFF7B3F800B1B4
:10143000FEE7FFF773F94FF47A71B0FBF1F0FFF7B5
:10144000DFFD0420FFF7CFFD00221146501EFFF7FD
:101450006FF810B010BD00000D48016841F00101A7
:10146000016041680B4A1140416001680A4A11401D
:101470000160016821F480210160416821F4FE01CE
:1014800041604FF41F0181600449C0030860704748
:10149000001002400000FFF8FFFFF6FE08ED00E03C
:1014A0002DE9F041044600680169E26821F44051E9
:1014B000114301612169A0680843616908432168FB
:1014C000CA6841F20C639A430243CA6020684169CA
:1014D000A26921F44071114341614C49206864259F
:1014E000322688423CD1FFF737F900EBC00101EB0F
:1014F000001061688900B0FBF1F7FFF72DF900EBF0
:10150000C00101EB00106168B0468900B0FBF1F04A
:10151000B0FBF5F06FF01801484307EB800106EBD4
:101520000110B0FBF5F000F0F006FFF715F900EB45
:10153000C00101EB001061688900B0FBF1F0B0FB65
:10154000F5F006EB0016FFF707F900EBC00101EB21
:10155000001061688900B0FBF1F7FFF7FDF83BE090
:10156000FFF7E2F800EBC00101EB001061688900B1
:10157000B0FBF1F7FFF7D8F800EBC00101EB00106A
:101580006168B0468900B0FBF1F0B0FBF5F06FF098
:101590001801484307EB800106EB0110B0FBF5F0A2
:1015A00000F0F006FFF7C0F800EBC00101EB0010FF
:1015B00061688900B0FBF1F0B0FBF5F006EB0016B6
:1015C000FFF7B2F800EBC00101EB00106168890081
:1015D000B0FBF1F7FFF7A8F800EBC00101EB00103A
:1015E00061688900B0FBF1F0B0FBF5F06FF0180115
:1015F000484307EB800108EB0110B0FBF5F02168D0
:1016000000F00F0030448860BDE8F08100380140F0
:101610002DE9F0471D4690460E460446FEF716FF9C
:1016200007465FEA08004FF000094FF0010808D0B4
:1016300030E0681C05D095B1FEF708FFC01BA8423A
:101640000DD82068006836EA0000F2D127E0681C57
:1016500020D025B1FEF7FAFEC01BA8421AD9206897
:10166000C16821F08001C1602068C16821F02001BB
:10167000C1602068C16821F48071C160206841693F
:1016800021F00101416184F8398084F83890032009
:10169000BDE8F0872068006836EA0000D7D0002057
:1016A000F6E7FEE70FB4084B10B504A902AA0398A9
:1016B00000F01CF8044602A9002000F0C1F8204602
:1016C00010BC5DF814FB00004118000802E008C8D7
:1016D000121F08C1002AFAD170477047002001E0AC
:1016E00001C1121F002AFBD1704700002DE9FF4FF6
:1016F00089B09B460446002506E025280BD05A46B3
:101700000B999047641C6D1C20780028F5D10DB012
:101710002846BDE8F08F0027B8460122474900E07F
:10172000074314F8013F203B02FA03F00842F7D1C7
:1017300020782E2819D114F8010F47F004072A2821
:101740000ED06FF02F022078A0F1300109290CD8BB
:1017500008EB880102EB410100EB0108641CF2E791
:101760000A98641C50F8048B0A9020780028CED088
:10177000642808D0692806D075281ED05A460B99CF
:1017800090476D1C58E00A994FF00A0901C90A9167
:10179000002802DA40422D2102E0390504D52B2130
:1017A0008DF82010012103E0F90704D02021F7E78C
:1017B0008A4608AE0DE00021FAE70A994FF00A09BF
:1017C00001C90A91F7E74946FEF7BEFC303106F839
:1017D000011D0028F7D1ADEB060000F120097807C4
:1017E00001D44FF00108C84502DDA8EB090000E074
:1017F00000208046002706E008A85A46C05D0B99E5
:1018000090476D1C7F1C5745F6DB04E030205A469C
:101810000B9990476D1CB8F10001A8F10108F5DCA7
:1018200005E016F8010B5A460B9990476D1CB9F16B
:101830000001A9F10109F4DC641C65E70928010035
:101840000A68531C0B6010707047000070B50546A5
:1018500013A11648FFF726FF144941231E22A1F1C8
:101860009E00FFF757FC002411A12A5D0F48FFF7E7
:1018700019FF0E4941231E22A1F19E00FFF74AFCE9
:10188000641C1C2CF0DB0BA10848FFF70BFFBDE824
:101890007040064941231E22A1F19E00FFF73ABC89
:1018A0000A0D61727261793A090000009601002008
:1018B000257509000A0D0000FEF7D6FDFFF79EFD15
:1018C000FFF790FCFFF710FD2C482B494FF4E13552
:1018D00000240160C0E901540C26C460C0E904463C
:1018E0008461C461FFF7A4FB00B1FEE723482449EB
:1018F00040380160C0E90154C460C0E90446846115
:10190000C461FFF795FB00B1FEE7FFF7C9FC1B4878
:101910001CA14030FFF7C6FE1849412340311E226A
:10192000A1F18000FFF7F6FB4FF47A7413481AA177
:101930004030FFF7B7FE1149412340311E22A1F18B
:101940008000FFF7E7FB0D480A231C221649F038F8
:10195000FFF7A6FA2046FEF789FC134907480A2339
:101960001C221C31F038FFF79BFA2046FEF77EFC64
:10197000FEF712FCDAE700000044004038010020C6
:10198000003801400D4C4544732077696C6C20622F
:101990006C696E6B210A0D000D73746172742053B3
:1019A00050490A0D00000000040000200000000063
:1019B00000000000010203040607080900000000FF
:1019C00001020304E41900080000002048000000A0
:1019D000CC1600082C1A00084800002070050000F2
:1019E000DC1600080000000096DFFFFF20FF20FF4C
:1019F00020FF20FF20FF20FF20FF20FF20FF20FFEF
:101A000020FF20FF96DFFFFF000000000000000025
:101A100000000000000000000000000000000000C6
:0C1A2000000000000000000000A24A04CA
:04000005080000ED02
:00000001FF
