:020000040800F2
:100000002005002001010008090100080B0100087B
:100010000D0100080F010008110100080000000098
:1000200000000000000000000000000013010008B4
:10003000150100080000000017010008EF12000879
:100040001B0100081B0100081B0100081B01000820
:100050001B0100081B0100081B0100081B01000810
:100060001B0100081B0100081B0100081B01000800
:100070001B0100081B0100081B0100081B010008F0
:100080001B0100081B0100081B0100081B010008E0
:100090001B0100081B0100081B0100081B010008D0
:1000A0001B0100081B0100081B0100081B010008C0
:1000B0001B0100081B0100081B0100081B010008B0
:1000C0001B0100081B0100081B0100081B010008A0
:1000D0001B0100081B0100081B0100081B01000890
:1000E000490100081B0100081B010008DFF80CD0C3
:1000F00000F018F8004800472116000820050020ED
:100100000648804706480047FEE7FEE7FEE7FEE7B1
:10011000FEE7FEE7FEE7FEE7FEE7FEE76513000801
:10012000ED000008064C074D06E0E06840F00103D2
:1001300094E8070098471034AC42F6D3FFF7DAFF93
:1001400018170008381700084FF4005000F00CB8DA
:1001500031B500F0F3F8044600F0F0F80099001B08
:100160008842F9D338BD7047044910B50A68024285
:1001700002D00860FFF7F7FF10BD00001404014033
:100180002DE9F84FDFF890A100220AF1040B144684
:1001900001274FF00F090BF1040E00BF0B6807FA9F
:1001A00004F52B40AB4274D1DFF870C14E68A6EB6A
:1001B0000C0866452BD00DDC032E34D005DC36B39D
:1001C000012E19D0022E2FD11BE0112E16D0122E87
:1001D0002AD119E0B8F5881F19D006DCB8F5803FA0
:1001E00015D0B8F5801F1FD111E0B8F5001F0ED053
:1001F000B8F5041F18D10AE0CA6815E0CA68121DD4
:1002000012E0CA6808320FE0CA680C320CE08A6853
:100210002AB1012A4FF0080203D0456104E004220C
:1002200002E0056100E00022FF2B01D8064601E054
:1002300000F104064FEA840501D9A5F12005D6F89E
:1002400000C009FA05F82CEA080C02FA05F54CEA98
:10025000050CC6F800C04D68ED0057D5304DAE69AD
:1002600046F00106AE61AD6924F0030605F0010514
:1002700000952C4D06EB050CDCF80850A6074FEA5C
:10028000167809FA08F6B543274EB04202D1002687
:1002900010E03BE0254EB04201D101260AE0244E99
:1002A000B04201D1022605E0224EB04201D1032620
:1002B00000E0042606FA08F62E43CCF808604D68E4
:1002C000DAF80060ED03554601D51E4300E09E4379
:1002D0002E604D68DBF80060AD035D4601D51E431E
:1002E00000E09E432E604D68DEF80060ED0275462A
:1002F00001D51E4300E09E432E604D68AD020E4DB9
:100300002E6801D51E4300E09E432E60641C102C15
:10031000FFF444AFBDE8F88F000401400000111065
:10032000001002400000014000080140000C0140A4
:1003300000100140001401400C0401400148006815
:10034000704700002400002002480168491C016039
:100350007047000024000020074810B5016841F0F4
:1003600010010160032000F087F8002000F006F87B
:1003700000F016F8002010BD0020024010B5044621
:1003800000F050F94FF47A71B0FBF1F000F09AFDF3
:1003900000222146501E00F04FF8002010BD000042
:1003A0001D4808B5816941F001018161806900F053
:1003B00001000090032000F05FF8002211466FF06A
:1003C0000B0000F039F8002211466FF00A0000F02F
:1003D00033F8002211466FF0090000F02DF80022DA
:1003E0001146501F00F028F800221146101F00F09F
:1003F00023F800221146901E00F01EF8002211463C
:10040000501E00F019F80548416821F0E06141F004
:100410000071416008BD0000001002400000014072
:1004200000F01F02012191404009800000F1E0200E
:10043000C0F8001170470000F0B40E4B1B680C466A
:10044000C3F30223C3F10705042D00D90425191DA8
:10045000072901D2002300E0DB1E012606FA05F180
:10046000491E214099409E40761E16403143F0BC03
:1004700000F0DEBE0CED00E0064900F0070208685F
:100480004FF6FF03184040EA0220034A1043086079
:10049000704700000CED00E00000FA052DE9F04780
:1004A000DFF8708105460E46D8F8000000F007001E
:1004B000B0420CD2D8F8001021F007013143C8F83F
:1004C0000010D8F8000000F00700B04277D128787B
:1004D000514C800705D56068A96820F0F0000843FA
:1004E00060602878C00759D06968012001290DD0C3
:1004F000022929D05FF0020393FAA3F2B2FA82F242
:1005000042F02002520904D0226803E04FF4003385
:10051000F2E7626A93FAA3F3B3FA83F303F01F03DB
:10052000984002424BD0606820F0030008436060AE
:10053000FFF704FF6968074641F2883001290DD0B2
:100540000229814617D025E04FF00073D4E700BFA1
:10055000FFF7F4FEC11B494501D918E081466068E8
:10056000C0F381000128F3D118E000BFFFF7E6FED9
:10057000C11B49450BD86068C0F381000228F5D142
:100580000CE000BFFFF7DAFEC11B494502D903208A
:10059000BDE8F087606810F00C0FF3D1D8F80010B8
:1005A000404601F00701B1420BD9016821F0070173
:1005B00031430160006800F00700B04201D0012023
:1005C000E6E72878400705D56068E96820F4E06030
:1005D000084360602878000706D56068296920F420
:1005E000605040EAC100606000F052F86168F0229B
:1005F00092FAA2F201F0F001B2FA82F2D140074A77
:10060000515CC840064908600020FFF7B7FE002093
:10061000BEE7000000200240001002400017000862
:100620001C00002001480068704700001C000020EA
:1006300008480949006849684FF4E06292FAA2F25A
:1006400001F4E061B2FA82F2D140044A515CC84040
:10065000704700001C000020001002401017000826
:1006600008480949006849684FF4605292FAA2F2BA
:1006700001F46051B2FA82F2D140044A515CC840A0
:10068000704700001C0000200010024010170008F6
:1006900010B519A385B00FCB8DE80F001AA01B4B26
:1006A000006804905A681A4802F00C0104291DD011
:1006B00008291BD14FF4701494FAA4F402F47011B9
:1006C000B4FA84F4E140D2031DF8011010D55A6841
:1006D0004FF4003393FAA3F302F40032B3FA83F336
:1006E000DA4004AB9A5CB0FBF2F0484305B010BDB1
:1006F00008484843FAE70000020304050607080912
:100700000A0B0C0D0E0F1010010200000010024029
:1007100000127A0000093D002DE9F84F04460078E8
:10072000F74DC0074FF0010625D068687704C0F385
:100730008100012807D06868C0F3810002281BD11E
:100740006868C00318D597FAA7F0B0FA80F040F0B7
:100750002000400901D0286800E0686A97FAA7F1F4
:10076000B1FA81F101F01F0106FA01F108425ED0F1
:10077000606800287CD05AE06068B0F5803F0BD0FC
:1007800010B1B0F5A02F11D0286820F48030286077
:10079000286820F4802002E0286840F48030286037
:1007A000606828B3FFF7CAFD80460BE0286840F474
:1007B00080202860F0E700BFFFF7C0FDA0EB080035
:1007C000642871D897FAA7F0B0FA80F040F02000C2
:1007D000400901D0286800E0686A97FAA7F1B1FAE9
:1007E00081F101F01F0106FA01F10842E4D01EE098
:1007F000FFF7A4FD804605E0FFF7A0FDA0EB080091
:100800006428DED897FAA7F0B0FA80F040F0200014
:10081000400901D0286800E0686A97FAA7F1B1FAA8
:1008200081F101F01F0106FA01F10842E4D12078BC
:10083000DFF8D08280074FF000094FF002075BD548
:1008400068684FF0F80B10F00C0F07D06868C0F321
:10085000810002281CD16868C00319D497FAA7F058
:10086000B0FA80F040F02000400902D0286801E092
:100870008BE0686A97FAA7F1B1FA81F101F01F01E4
:1008800006FA01F108422CD0206901287DD128E028
:10089000206990B396FAA6F0B0FA80F048F820608C
:1008A000FFF74CFD824607E011E100BFFFF746FD70
:1008B000A0EB0A00022884D897FAA7F0B0FA80F0DB
:1008C00040F02000400901D0286800E0686A97FAEB
:1008D000A7F1B1FA81F101F01F0106FA01F1084216
:1008E000E4D028689BFAABF26169B2FA82F220F098
:1008F000F80091400843286025E0FFE796FAA6F14A
:10090000B1FA81F148F82190FFF718FD824605E021
:10091000FFF714FDA0EB0A000228CCD897FAA7F045
:10092000B0FA80F040F02000400901D0286800E0D3
:10093000686A97FAA7F1B1FA81F101F01F0106FA8E
:1009400001F10842E4D1207800076ED5A069B8B360
:1009500096FAA6F0B0FA80F008EB8000C0F8806448
:10096000FFF7ECFC824605E0FFF7E8FCA0EB0A008D
:100970000228A0D897FAA7F0B0FA80F040F0600003
:10098000B6EB501F02D128680CE062E197FAA7F09D
:10099000B0FA80F040F06000B7EB501F01D1286A38
:1009A00000E0686A97FAA7F1B1FA81F101F01F013E
:1009B00006FA01F21042D7D00120FFF7C9FB34E05C
:1009C000FFE796FAA6F1B1FA81F108EB8101C1F8CF
:1009D0008094FFF7B3FC824606E000BFFFF7AEFC51
:1009E000A0EB0A00022872D897FAA7F0B0FA80F0BC
:1009F00040F06000B6EB501F01D128680BE097FA79
:100A0000A7F0B0FA80F040F06000B7EB501F01D1C2
:100A1000286A00E0686A97FAA7F1B1FA81F101F05B
:100A20001F0106FA01F21042D8D12078400765D59F
:100A3000E86940F08050E861E869DFF8CCB000F088
:100A400080500090DBF8001041F48071CBF800106A
:100A5000FFF774FC824605E0FFF770FCA0EB0A008C
:100A6000642834D8DBF80000C005F5D5E06801281B
:100A70000AD008B1052813D0286A20F001002862A6
:100A8000286A20F0040002E0286A40F00100286291
:100A9000E06841F2883B90B3FFF750FC82460BE0E0
:100AA000286A40F004002862EEE700BFFFF746FC2A
:100AB000A0EB0A0159450AD897FAA7F0B0FA80F0DE
:100AC00040F04000B6EB501F02D128680CE0A3E0D4
:100AD00097FAA7F0B0FA80F040F04000B7EB501F53
:100AE00001D1286A00E0686A97FAA7F1B1FA81F1AA
:100AF00001F01F0206FA02F10842D7D031E005E00A
:100B0000001002400000424200700040FFF716FC57
:100B1000824605E0FFF712FCA0EB0A0159457BD89D
:100B200097FAA7F0B0FA80F040F04000B6EB501F03
:100B300001D128680BE097FAA7F0B0FA80F040F0F6
:100B40004000B7EB501F01D1286A00E0686A97FAAD
:100B5000A7F1B1FA81F101F01F0206FA02F1084291
:100B6000D8D1E06980B36968C1F38101022970D0EE
:100B70004FF080714F000228484609D091FAA1F148
:100B8000B1FA81F148F82100FFF7D8FB044669E08B
:100B90008A4691FAA1F1B1FA81F1C14648F82100E3
:100BA000FFF7CCFB804605E0FFF7C8FBA0EB080091
:100BB000022854D897FAA7F0B0FA80F040F020004D
:100BC000400902D0286801E061E0686A97FAA7F15D
:100BD000B1FA81F101F01F0106FA01F10842E3D1F7
:100BE000206AB0F5803F05D16868A16820F4003024
:100BF00008436860D4E908010843696821F4741166
:100C0000084368609AFAAAF0B0FA80F049F82060C8
:100C1000FFF794FB044606E021E000BFFFF78EFBE0
:100C2000001B02281BD897FAA7F0B0FA80F040F01A
:100C30002000400901D0286800E0686A97FAA7F10F
:100C4000B1FA81F101F01F0106FA01F10842E5D085
:100C50001DE01EE0FFF772FB001B022802D90320F3
:100C6000BDE8F88F97FAA7F0B0FA80F040F02000C6
:100C7000400901D0286800E0686A97FAA7F1B1FA44
:100C800081F101F01F0106FA01F10842E2D10020D2
:100C9000E6E70120E4E7000010B5040003D094F873
:100CA000510010B104E0012010BD204600F038F8DA
:100CB000022084F851002068016821F040010160A1
:100CC000D4E901010843D4E90312114308436169DF
:100CD0000843218B01F400710843E1690843216A4C
:100CE0000843A16A084321680860A069042101EA59
:100CF0001040616A0843216848602168E06A086121
:100D00002068C16921F40061C161044900200870B4
:100D10006065012084F85100002010BD20000020F3
:100D200000B500680C4985B0884212D10B48816932
:100D300041F4805181618069694600F480500490DB
:100D4000A020009002200190032003900448FFF7A8
:100D500017FA05B000BD000000300140001002404D
:100D6000000801402DE9F843044690F851009846E8
:100D7000012870D139B332B394F8500001286AD0F9
:100D8000012684F85060122084F851000025656522
:100D90002163A286E286E564A564A563A587E5874D
:100DA000A06A7703B84209D12068016821F4005194
:100DB00001602068016841F400510160A068B0F54D
:100DC000004F03D007E00120BDE8F88320680168E8
:100DD00041F48041016020680168490603D401683C
:100DE00041F040010160E0680028606804D0D8B19B
:100DF000E08E012818D021E010B1E08E012808D142
:100E0000206B411C216321680078C860E08E401E81
:100E1000E0860004000C1FD0434600220221204639
:100E200000F016FAA8B9EBE7206B21680088C860CB
:100E3000206B801C2063E08E401EE0860004000CC6
:100E40000AD0434600220221204600F001FA002881
:100E5000EAD00320B8E726E0A06AB84204D12068AF
:100E6000016841F48051016043460022022120467E
:100E700000F0EEF930B9434601228021204600F00F
:100E8000E7F920B1606D40F010006065E1E7A0680F
:100E900018B92068C1688068009084F8516084F8AF
:100EA0005050002090E702208EE74FF0E021042808
:100EB000086903D020F004000861704740F0040086
:100EC000FAE7704710B5401EB0F1807F01D30120D2
:100ED00010BD4FF0E02460610F21601700F0A8F909
:100EE0000020A06107202061002010BD10B5FFF791
:100EF000E8FF10BD70B5040004D094F83900002557
:100F000010B106E0012070BD84F83850204600F092
:100F100021F8022084F839002068C16821F40051CA
:100F2000C160204600F042FA2068016921F4904136
:100F300001612068416921F02A0141612068C1688E
:100F400041F40051C160E563012084F839000020BC
:100F500070BD000010B51B4C03681B4902221B48E2
:100F600086B0A34219D18B6943F480438B618969B0
:100F7000044601F4804104914115CDE9001203219A
:100F800003916946FFF7FCF84FF480600090002061
:100F900001900290694620460FE00D4CA3420ED10D
:100FA000CB6943F40033CB61C969039201F400318A
:100FB00004910C21CDE900126946FFF7E1F806B073
:100FC00010BD000000380140001002400008014040
:100FD000004400402DE9F047044690F83900994656
:100FE0000D46012801D0122858D12DB322B394F810
:100FF0003800012852D0012684F838600027E763C2
:1010000094F8390012281AD05FF0220084F83900D1
:10101000A285E2854FF48058E08D4B46401EE08566
:10102000A0684FF0000240454FF02001204616D145
:1010300000F074FAB0B904E00120BDE8F087322076
:10104000E4E7206900282068406803D0C1B225F891
:10105000011B12E0C0F3080125F8021B0DE000F0AF
:101060005DFA08B10320E8E720690028206840689D
:1010700001D000F07F0005F8010BE08D0028CBD1F6
:1010800094F83900322805D084F8396084F8387033
:101090000020D2E7122084F83900F7E70220CCE7DD
:1010A0002DE9F047044690F8390099460D4601288D
:1010B00001D0222858D12DB322B394F8380001284A
:1010C00052D0012684F838600027E76394F839008D
:1010D00022281AD05FF0120084F83900A284E2843A
:1010E0004FF48058E08C4B46401EE084A0684FF0DF
:1010F000000240454FF08001204613D100F00EFA67
:1011000008BB04E00120BDE8F0873220E4E728882E
:101110002168C0F308004860206908B16D1C08E030
:10112000AD1C06E000F0FAF968B9216815F8010B6A
:101130004860E08C0028D5D14B4600224021204653
:1011400000F0ECF908B10320DDE794F8390032280B
:1011500006D084F8396000BF84F838700020D2E7E8
:10116000222084F83900F7E70220CCE71B4800B5BD
:10117000816985B041F010018161816901F0100140
:101180000491816941F020018161816901F02001B0
:101190000491816941F004018161816901F00401D8
:1011A0000491816941F0080181618069694600F01C
:1011B000080004904FF4005000900948019000206E
:1011C00002900848FEF7DCFF002211462820FFF7B6
:1011D00033F92820FFF724F905B000BD00100240C4
:1011E0000000211000100140104810B50E490160A8
:1011F0004FF4827141604FF400418160002102226E
:10120000C0E9031201224261520282612022C0E938
:101210000721416281620A21C162FFF73DFD00287A
:1012200000D0FEE710BD0000003001402800002083
:101230000907090E002806DA00F00F0000F1E0208F
:1012400080F8141D704700F1E02080F8001470470A
:101250002DE9F0471D4690460E460446FFF76EF80E
:1012600007465FEA08004FF000084FF4005A4FF0BD
:10127000010926D034E0681C23D025B1FFF75EF8C1
:10128000C01BA8421DD92068416821F0E0014160DF
:101290002068016821F040010160A06A504509D131
:1012A0002068016821F4005101602068016841F460
:1012B0000051016084F8519084F850800320BDE80B
:1012C000F0872068806836EA0000D4D10DE0681C01
:1012D00006D0002DD7D0FFF731F8C01BA842D2D8D6
:1012E0002068806836EA0000F1D00020E7E710B5FA
:1012F000FFF72AF8BDE81040FFF7F8BD30B58FB012
:1013000002250120049000951020059000244FF440
:101310006010CDE9084007956846FFF7FDF900B178
:10132000FEE70F20CDE90A054FF48060CDE90C40BF
:1013300002210AA80E94FFF7B1F800B1FEE7FFF70B
:1013400071F94FF47A71B0FBF1F0FFF7BBFD0420A7
:10135000FFF7ABFD00221146501EFFF76DF80FB0EE
:1013600030BD00000D48016841F001010160416895
:101370000B4A1140416001680A4A1140016001684E
:1013800021F480210160416821F4FE0141604FF4A5
:101390001F0181600449C0030860704700100240CB
:1013A0000000FFF8FFFFF6FE08ED00E02DE9F04138
:1013B000044600680169E26821F44051114301616B
:1013C0002169A0680843616908432168CA6841F23D
:1013D0000C639A430243CA6020684169A26921F400
:1013E0004071114341614C4920686425322688428E
:1013F0003CD1FFF735F900EBC00101EB001061684B
:101400008900B0FBF1F7FFF72BF900EBC00101EB0E
:1014100000106168B0468900B0FBF1F0B0FBF5F058
:101420006FF01801484307EB800106EB0110B0FB99
:10143000F5F000F0F006FFF713F900EBC00101EB47
:10144000001061688900B0FBF1F0B0FBF5F006EB2D
:101450000016FFF705F900EBC00101EB0010616811
:101460008900B0FBF1F7FFF7FBF83BE0FFF7E0F88E
:1014700000EBC00101EB001061688900B0FBF1F7DF
:10148000FFF7D6F800EBC00101EB00106168B04631
:101490008900B0FBF1F0B0FBF5F06FF018014843A4
:1014A00007EB800106EB0110B0FBF5F000F0F00651
:1014B000FFF7BEF800EBC00101EB00106168890086
:1014C000B0FBF1F0B0FBF5F006EB0016FFF7B0F85B
:1014D00000EBC00101EB001061688900B0FBF1F77F
:1014E000FFF7A6F800EBC00101EB0010616889006E
:1014F000B0FBF1F0B0FBF5F06FF01801484307EBDB
:10150000800108EB0110B0FBF5F0216800F00F003E
:1015100030448860BDE8F081003801402DE9F04793
:101520001D4690460E460446FEF708FF07465FEA52
:1015300008004FF000094FF0010808D030E0681CA7
:1015400005D095B1FEF7FAFEC01BA8420DD8206861
:10155000006836EA0000F2D127E0681C20D025B1EF
:10156000FEF7ECFEC01BA8421AD92068C16821F022
:101570008001C1602068C16821F02001C16020683D
:10158000C16821F48071C1602068416921F00101C6
:10159000416184F8398084F838900320BDE8F087F1
:1015A0002068006836EA0000D7D00020F6E7000087
:1015B0000FB4084610B5064A02A900F01AF804460E
:1015C00002A9002000F026F8204610BC5DF814FBAC
:1015D0001516000802E008C8121F08C1002AFAD137
:1015E00070477047002001E001C1121F002AFBD1A3
:1015F00070472DE9F04116460F460446002503E0EA
:101600003946B047641C6D1C20780028F8D1284664
:10161000BDE8F0810A68531C0B6010707047000031
:1016200008B5FEF799FEFFF769FEFFF79FFDFFF78C
:10163000DBFD274825494FF4E13500240160C0E96E
:1016400001540C26C460C0E904468461C461FFF7FC
:1016500051FC00B1FEE71E481E4940380160C0E958
:101660000154C460C0E904468461C461FFF742FCD0
:1016700000B1FEE7164818A14030FFF799FF144962
:1016800041231E2240311248FFF70AFD4FF0FF347C
:101690002346012269460E48FFF79CFC0C4813A123
:1016A0004030FFF785FF0A4941231E224031084898
:1016B000FFF7F6FC06480A231C2210499838FFF76A
:1016C00051FB6420FEF744FDE2E7000000440040C7
:1016D000C0000020003801400D77696C6C206C69F7
:1016E000676874207570210A0D0000000D73746125
:1016F0007274205350490A0D0000000000000020C1
:1017000000000000000000000102030406070809B1
:101710000000000001020304381700080000002048
:1017200028000000D41500086017000828000020D9
:10173000F8040000E415000896DFFFFFFFFFFFFF3D
:10174000FFFFFFFFFFFFFFFFFFFFFFFFFFFFFFFFA9
:10175000FFFFFFFF00A24A0400000000000000009D
:04000005080000ED02
:00000001FF
