:020000040800F2
:10000000B005002001010008BB1C0008A51A00086B
:10001000B91C0008B90600083720000800000000DD
:10002000000000000000000000000000811D00082A
:10003000C706000800000000DD1C0008831D000842
:100040001B0100081B0100081B0100081B01000820
:100050001B0100081B0100081B0100081B01000810
:100060001B0100081B0100081B0100081B01000800
:100070001B0100081B0100081B0100081B010008F0
:100080001B0100081B0100081B0100081B010008E0
:100090001B0100081B0100081B0100081B010008D0
:1000A0001B0100081B0100081B0100081B010008C0
:1000B0001B0100081B0100081B0100081B010008B0
:1000C0001B0100081B0100081B0100081B010008A0
:1000D0001B0100081B0100081B0100081B01000890
:1000E0001B0100081B0100081B010008DFF80CD0F1
:1000F00000F0D0FA004800477D290008B005002034
:100100000648804706480047FEE7FEE7FEE7FEE7B1
:10011000FEE7FEE7FEE7FEE7FEE7FEE7ED1D00086F
:10012000ED000008202A04DB203A21FA02F0002129
:10013000704721FA02F3D040C2F1200291400843F7
:1001400019467047421C10F8011B0029FBD1801A88
:1001500070472DE9FE4F804681EA0300C00F0C4630
:10016000009021F0004123F00045B8EB0200A941C6
:1001700005D24046214690461C460B46024623F0D7
:100180000040104347D0270DC7F30A00C3F30A51BC
:100190000290401A019040286BDAC3F3130040F438
:1001A000801B0098924620B10023D2EB030A63EB38
:1001B0000B0B01985946C0F14002504600F04DF932
:1001C00006460D4650465946019A00F055F910EB87
:1001D00008006141002487EA115284EAE7731A4358
:1001E00040D0009A62B3019A012A4FEA075215DC07
:1001F000001B61EB02014FF0004202EA0752CDE919
:100200000042001C41F5801132462B4600F055F9A2
:1002100003B0BDE8F08F40462146F9E7001B61EBD3
:100220000201001C41F5801300185B412018A2F563
:10023000001747EB030140EAD570B6196D4111E094
:100240006D084FEA360645EAC0754FEA0752001BB3
:1002500061EB0201001C41F5801149084FEA3000B2
:100260000019514132462B4603B0BDE8F04F00F073
:1002700015B90098012240000023D0EB020263EB85
:10028000E073009821464FEAE074B8EB000061EBA0
:100290000401E9E783F000435BE781F0004158E7A0
:1002A0002DE9FE4F81EA030404F0004421F00041EF
:1002B00000944FF0000B23F0004350EA01045ED09D
:1002C00052EA03045BD0C3F30A54C1F30A552C4429
:1002D000A4F2F3340194A0FB0254C1F3130141F4DE
:1002E0008011C3F3130343F4801301FB024400FBAA
:1002F000034E840A970A44EA815447EA8357A4FBD1
:10030000076802958D0A05FB07854FEA932C04FBCD
:100310000C542705029D4FEA065847EA1637B5EBFD
:1003200008056EEB070C870E920E47EA811742EA2A
:100330008312A7FB0201B6EB0B0164EB00042B0D4B
:1003400043EA0C335E1844EB1C50DA465146E7FB97
:100350000201C5F313044FEA0B3343EA14534FEA87
:100360000432019C43EA0603A4F10C040294009CAD
:10037000CDE900B400F0A1F803B0BDE8F08F002093
:100380000146F9E770B521F0004303430CD0C1F3F7
:100390000A550024D5EB040564EB0403D617AD1A07
:1003A000B34102DB0020014670BD201841EB025131
:1003B00070BD0EB540F2334102910021CDE900112C
:1003C0000A460B4600F079F803B000BD30B50B4685
:1003D000014600202022012409E021FA02F59D4275
:1003E00005D303FA02F5491B04FA02F52844151E49
:1003F000A2F10102F1DC30BD2DE9F05F05460020DD
:1004000092469B4688460646814640241BE0284685
:10041000414647462246FFF785FE53465A46C01AD4
:10042000914110D311461846224600F016F82D1AB5
:1004300067EB01084F4622460120002100F00DF82D
:1004400017EB00094E41201EA4F10104DFDC4846F1
:1004500031462A464346BDE8F09F202A04DB203A75
:1004600000FA02F1002070479140C2F1200320FA07
:1004700003F3194390407047202A06DBCB17203A3C
:1004800041FA02F043EAE07306E041FA02F3D04099
:10049000C2F12002914008431946704710B5141E5E
:1004A00073F1000408DA401C41F1000192185B412D
:1004B0001A4301D120F0010010BD2DE9F04D924604
:1004C0009B4611B1B1FA81F202E0B0FA80F220321B
:1004D0009046FFF7C2FF04460F4640EA0A0041EA91
:1004E0000B0153465A46084313D0114653EA010004
:1004F00019D0C8F140025046FFF714FE05460E46DB
:10050000504659464246FFF7A8FF084305D0012050
:1005100004E020463946BDE8F08D0020054346EA58
:10052000E0762C4337430A986305E40AA0EB080001
:100530000022FD0A44EA47540A3002D50020014651
:10054000E9E7010510196941DDE90845001969412C
:10055000BDE8F04DA2E72DE9F04D81EA030404F077
:10056000004B21F0004514464FF0000A23F00041F3
:1005700050EA050220D054EA01021DD0C5F30A5703
:100580000246C5F31303C1F31300C1F30A5640F446
:10059000801543F48013A7EB0608101BD64608F21B
:1005A000FD3873EB050002D308F1010801E0921851
:1005B0005B41B8F1000F03DA00200146BDE8F08D81
:1005C00000204FF48011064684460EE0171B73EBA3
:1005D000050705D3121B63EB050306434CEA010C28
:1005E00049084FEA300092185B4150EA0107EDD10B
:1005F00052EA030012D082EA040083EA05010843AC
:1006000005D0101BAB4106D20122002306E00022D8
:100610004FF0004302E06FF0010253101AEB0600A6
:100620004CEB085110EB0A0041EB0B01BDE8F04D1B
:10063000FFF734BFC1F30A52C1F3130140F2FF3395
:1006400041F480119A4202DA00200146704740F2DC
:1006500033439A42A2F2334202DC5242FFF762BDB8
:10066000FFF7FBBE30B5041E71F1000404DB4FF050
:100670000044404264EB0101141E73F1000405DBE9
:100680001C464FF00043524263EB0403994208BFFB
:10069000904230BD064C074D06E0E06840F0010393
:1006A00094E8070098471034AC42F6D3FFF722FDD8
:1006B000282B0008482B0008FEE7012200F0F2B8C2
:1006C000002200F0EFB8704731B500F0F1F80446B1
:1006D00000F0EEF80099001B8842F9D338BD000005
:1006E0002DE9F84FDFF890A100220AF1040B14461F
:1006F00001274FF00F090BF1040E00BF0B6807FA3A
:1007000004F52B40AB4274D1DFF870C14E68A6EB04
:100710000C0866452BD00DDC032E34D005DC36B337
:10072000012E19D0022E2FD11BE0112E16D0122E21
:100730002AD119E0B8F5881F19D006DCB8F5803F3A
:1007400015D0B8F5801F1FD111E0B8F5001F0ED0ED
:10075000B8F5041F18D10AE0CA6815E0CA68121D6E
:1007600012E0CA6808320FE0CA680C320CE08A68EE
:100770002AB1012A4FF0080203D0456104E00422A7
:1007800002E0056100E00022FF2B01D8064601E0EF
:1007900000F104064FEA840501D9A5F12005D6F839
:1007A00000C009FA05F82CEA080C02FA05F54CEA33
:1007B000050CC6F800C04D68ED0057D5304DAE6948
:1007C00046F00106AE61AD6924F0030605F00105AF
:1007D00000952C4D06EB050CDCF80850A6074FEAF7
:1007E000167809FA08F6B543274EB04202D1002622
:1007F00010E03BE0254EB04201D101260AE0244E34
:10080000B04201D1022605E0224EB04201D10326BA
:1008100000E0042606FA08F62E43CCF808604D687E
:10082000DAF80060ED03554601D51E4300E09E4313
:100830002E604D68DBF80060AD035D4601D51E43B8
:1008400000E09E432E604D68DEF80060ED027546C4
:1008500001D51E4300E09E432E604D68AD020E4D53
:100860002E6801D51E4300E09E432E60641C102CB0
:10087000FFF444AFBDE8F88F000401400000111000
:10088000001002400000014000080140000C01403F
:1008900000100140001401400C040140C2684A40AD
:1008A000C26070470AB1016170470904FBE70000AC
:1008B00001480068704700000000002002480168FD
:1008C000491C01607047000000000020074810B577
:1008D000016841F010010160032000F07BF8002066
:1008E00000F006F800F016F8002010BD00200240CD
:1008F00010B5044600F044F94FF47A71B0FBF1F002
:1009000000F0E9FF00222146501E00F043F80020CD
:1009100010BD00001D4808B5816941F001018161E9
:10092000806900F001000090032000F053F80022DD
:1009300011466FF00B0000F02DF8002211466FF009
:100940000A0000F027F8002211466FF0090000F0BD
:1009500021F800221146501F00F01CF80022114619
:10096000101F00F017F800221146901E00F012F838
:1009700000221146501E00F00DF80548416821F094
:10098000E06141F00071416008BD000000100240CC
:1009900000000140F0B40E4B1B680C46C3F3022369
:1009A000C3F10705042D00D90425191D072901D21B
:1009B000002300E0DB1E012606FA05F1491E214056
:1009C00099409E40761E16403143F0BC01F076B946
:1009D0000CED00E0064900F0070208684FF6FF033F
:1009E000184040EA0220034A1043086070470000A4
:1009F0000CED00E00000FA052DE9F047DFF870810A
:100A000005460E46D8F8000000F00700B0420CD2B0
:100A1000D8F8001021F007013143C8F80010D8F8C9
:100A2000000000F00700B04277D12878514C8007D1
:100A300005D56068A96820F0F00008436060287858
:100A4000C00759D06968012001290DD0022929D099
:100A50005FF0020393FAA3F2B2FA82F242F02002AC
:100A6000520904D0226803E04FF40033F2E7626ACF
:100A700093FAA3F3B3FA83F303F01F0398400242FF
:100A80004BD0606820F0030008436060FFF710FF60
:100A90006968074641F2883001290DD00229814654
:100AA00017D025E04FF00073D4E700BFFFF700FF39
:100AB000C11B494501D918E081466068C0F3810037
:100AC0000128F3D118E000BFFFF7F2FEC11B494532
:100AD0000BD86068C0F381000228F5D10CE000BF9C
:100AE000FFF7E6FEC11B494502D90320BDE8F087A8
:100AF000606810F00C0FF3D1D8F80010404601F0F8
:100B00000701B1420BD9016821F0070131430160AF
:100B1000006800F00700B04201D00120E6E7287825
:100B2000400705D56068E96820F4E060084360602C
:100B30002878000706D56068296920F4605040EAEB
:100B4000C100606000F052F86168F02292FAA2F2EF
:100B500001F0F001B2FA82F2D140074A515CC8407C
:100B6000064908600020FFF7C3FE0020BEE7000032
:100B70000020024000100240102B000864000020FA
:100B800001480068704700006400002008480949D7
:100B9000006849684FF4E06292FAA2F201F4E06161
:100BA000B2FA82F2D140044A515CC840704700005A
:100BB0006400002000100240202B0008084809496A
:100BC000006849684FF4605292FAA2F201F4605151
:100BD000B2FA82F2D140044A515CC840704700002A
:100BE0006400002000100240202B000810B519A35B
:100BF00085B00FCB8DE80F001AA01B4B0068049046
:100C00005A681A4802F00C0104291DD008291BD18A
:100C10004FF4701494FAA4F402F47011B4FA84F44A
:100C2000E140D2031DF8011010D55A684FF400338B
:100C300093FAA3F302F40032B3FA83F3DA4004AB7D
:100C40009A5CB0FBF2F0484305B010BD0848484339
:100C5000FAE7000002030405060708090A0B0C0D59
:100C60000E0F1010010200000010024000127A0066
:100C700000093D002DE9F84F04460078F74DC00704
:100C80004FF0010625D068687704C0F38100012881
:100C900007D06868C0F3810002281BD16868C003D0
:100CA00018D597FAA7F0B0FA80F040F0200040097C
:100CB00001D0286800E0686A97FAA7F1B1FA81F1DB
:100CC00001F01F0106FA01F108425ED060680028B9
:100CD0007CD05AE06068B0F5803F0BD010B1B0F521
:100CE000A02F11D0286820F480302860286820F4D4
:100CF000802002E0286840F480302860606828B3D3
:100D0000FFF7D6FD80460BE0286840F4802028607D
:100D1000F0E700BFFFF7CCFDA0EB0800642871D816
:100D200097FAA7F0B0FA80F040F02000400901D017
:100D3000286800E0686A97FAA7F1B1FA81F101F03A
:100D40001F0106FA01F10842E4D01EE0FFF7B0FDF2
:100D5000804605E0FFF7ACFDA0EB08006428DED874
:100D600097FAA7F0B0FA80F040F02000400901D0D7
:100D7000286800E0686A97FAA7F1B1FA81F101F0FA
:100D80001F0106FA01F10842E4D12078DFF8D08291
:100D900080074FF000094FF002075BD568684FF0FD
:100DA000F80B10F00C0F07D06868C0F38100022820
:100DB0001CD16868C00319D497FAA7F0B0FA80F084
:100DC00040F02000400902D0286801E08BE0686A0A
:100DD00097FAA7F1B1FA81F101F01F0106FA01F1CA
:100DE00008422CD0206901287DD128E0206990B3E9
:100DF00096FAA6F0B0FA80F048F82060FFF758FDA8
:100E0000824607E011E100BFFFF752FDA0EB0A00A8
:100E1000022884D897FAA7F0B0FA80F040F02000BA
:100E2000400901D0286800E0686A97FAA7F1B1FA92
:100E300081F101F01F0106FA01F10842E4D02868AF
:100E40009BFAABF26169B2FA82F220F0F8009140AD
:100E50000843286025E0FFE796FAA6F1B1FA81F190
:100E600048F82190FFF724FD824605E0FFF720FDBA
:100E7000A0EB0A000228CCD897FAA7F0B0FA80F0CD
:100E800040F02000400901D0286800E0686A97FA25
:100E9000A7F1B1FA81F101F01F0106FA01F1084250
:100EA000E4D1207800076ED5A069B8B396FAA6F011
:100EB000B0FA80F008EB8000C0F88064FFF7F8FC1F
:100EC000824605E0FFF7F4FCA0EB0A000228A0D858
:100ED00097FAA7F0B0FA80F040F06000B6EB501F30
:100EE00002D128680CE062E197FAA7F0B0FA80F02E
:100EF00040F06000B7EB501F01D1286A00E0686A3B
:100F000097FAA7F1B1FA81F101F01F0106FA01F297
:100F10001042D7D00120FFF7D7FB34E0FFE796FA65
:100F2000A6F1B1FA81F108EB8101C1F88094FFF7D5
:100F3000BFFC824606E000BFFFF7BAFCA0EB0A0048
:100F4000022872D897FAA7F0B0FA80F040F060005B
:100F5000B6EB501F01D128680BE097FAA7F0B0FA62
:100F600080F040F06000B7EB501F01D1286A00E02C
:100F7000686A97FAA7F1B1FA81F101F01F0106FA48
:100F800001F21042D8D12078400765D5E86940F0D9
:100F90008050E861E869DFF8CCB000F08050009044
:100FA000DBF8001041F48071CBF80010FFF780FCF3
:100FB000824605E0FFF77CFCA0EB0A00642834D8E9
:100FC000DBF80000C005F5D5E06801280AD008B1BB
:100FD000052813D0286A20F001002862286A20F032
:100FE000040002E0286A40F001002862E06841F253
:100FF000883B90B3FFF75CFC82460BE0286A40F028
:1010000004002862EEE700BFFFF752FCA0EB0A01E4
:1010100059450AD897FAA7F0B0FA80F040F040009E
:10102000B6EB501F02D128680CE0A3E097FAA7F0B6
:10103000B0FA80F040F04000B7EB501F01D1286AB1
:1010400000E0686A97FAA7F1B1FA81F101F01F0296
:1010500006FA02F10842D7D031E005E00010024064
:101060000000424200700040FFF722FC824605E08B
:10107000FFF71EFCA0EB0A0159457BD897FAA7F0B1
:10108000B0FA80F040F04000B6EB501F01D1286864
:101090000BE097FAA7F0B0FA80F040F04000B7EB11
:1010A000501F01D1286A00E0686A97FAA7F1B1FAE7
:1010B00081F101F01F0206FA02F10842D8D1E0697D
:1010C00080B36968C1F38101022970D04FF080714B
:1010D0004F000228484609D091FAA1F1B1FA81F1F6
:1010E00048F82100FFF7E4FB044669E08A4691FADC
:1010F000A1F1B1FA81F1C14648F82100FFF7D8FB10
:10110000804605E0FFF7D4FBA0EB0800022854D886
:1011100097FAA7F0B0FA80F040F02000400902D022
:10112000286801E061E0686A97FAA7F1B1FA81F1F5
:1011300001F01F0106FA01F10842E3D1206AB0F57F
:10114000803F05D16868A16820F4003008436860DA
:10115000D4E908010843696821F474110843686000
:101160009AFAAAF0B0FA80F049F82060FFF7A0FBE5
:10117000044606E021E000BFFFF79AFB001B0228AF
:101180001BD897FAA7F0B0FA80F040F02000400991
:1011900001D0286800E0686A97FAA7F1B1FA81F1F6
:1011A00001F01F0106FA01F10842E5D01DE01EE042
:1011B000FFF77EFB001B022802D90320BDE8F88F51
:1011C00097FAA7F0B0FA80F040F02000400901D073
:1011D000286800E0686A97FAA7F1B1FA81F101F096
:1011E0001F0106FA01F10842E2D10020E6E70120E2
:1011F000E4E7000010B5040003D094F8510010B1EA
:1012000004E0012010BD204600F038F8022084F8E8
:1012100051002068016821F040010160D4E901011A
:101220000843D4E903121143084361690843218B41
:1012300001F400710843E1690843216A0843A16A87
:10124000084321680860A069042101EA1040616A2E
:101250000843216848602168E06A08612068C16924
:1012600021F40061C161044900200870606501201B
:1012700084F85100002010BD0400002010B5006863
:10128000124986B088421ED11148C16941F480419B
:10129000C161C0690F4C00F4804004904FF42040BD
:1012A0000090022001900320039069462046FFF73A
:1012B00017FA00214FF48040CDE900010291694600
:1012C0002046FFF70DFA06B010BD000000380040C0
:1012D00000100240000C01402DE9F84F00259A460D
:1012E0000446ADF8005090F8510001287ED1E9B3D2
:1012F000E2B394F85000012878D0012684F85060B9
:10130000222084F851006565A163A287E287A56465
:10131000E5642563A586E586A0684FF40049484545
:1013200004D12068036823F480430360A06A4FF46B
:101330000057B84209D12068036823F400530360C2
:101340002068036843F40053036060684FF48278B8
:10135000404501D1A06878B120680168490603D4EE
:10136000016841F040010160E06800E001E0E8B19F
:1013700031E00120BDE8F88F84F8505013460A464A
:101380002046CDF800A000F040F9F3E753460022D4
:101390000121204600F0A5FC48BB2068C168A06B75
:1013A000421CA2630170E08F401EE087E08F01289D
:1013B000ECD813E0534600220121204600F091FCB6
:1013C000A8B92068C068A16B0880A06B801CA063CE
:1013D000E08F401EE087E08F0128EBD8A06AB8427A
:1013E00007D12068016841F4805101E068E007E01E
:1013F0000160534600220121204600F072FC08B132
:101400000320B7E7E0680028206817D0C068A16B08
:101410000880A06B801CA063E08F401EE087A06A5C
:10142000B84217D1534600220121204600F059FC52
:1014300050B1606D40F002006065E1E7C168A06BEB
:10144000421CA2630170E7E72068C068ADF80000A5
:10145000BDF80000606840450AD1A068484502D048
:10146000B0F5806F04D12068016821F0400101606F
:1014700084F85160A06AB8420DD120688068C043EA
:10148000C00608D4204600F02AFC012807D02168B5
:101490006FF01000886084F8505000206AE7606D9B
:1014A00040F0020060652068016821F4005101608D
:1014B0002068016841F40051016084F8505058E7F9
:1014C000022057E72DE9F843044690F8510098466A
:1014D000012870D139B332B394F8500001286AD092
:1014E000012684F85060122084F8510000256565BB
:1014F0002163A286E286E564A564A563A587E587E6
:10150000A06A7703B84209D12068016821F400512C
:1015100001602068016841F400510160A068B0F5E5
:10152000004F03D007E00120BDE8F8832068016880
:1015300041F48041016020680168490603D40168D4
:1015400041F040010160E0680028606804D0D8B133
:10155000E08E012818D021E010B1E08E012808D1DA
:10156000206B411C216321680078C860E08E401E1A
:10157000E0860004000C1FD04346002202212046D2
:1015800000F0AFFBA8B9EBE7206B21680088C860CA
:10159000206B801C2063E08E401EE0860004000C5F
:1015A0000AD0434600220221204600F09AFB002880
:1015B000EAD00320B8E726E0A06AB84204D1206848
:1015C000016841F480510160434600220221204617
:1015D00000F087FB30B9434601228021204600F00D
:1015E00080FB20B1606D40F010006065E1E7A0680D
:1015F00018B92068C1688068009084F8516084F848
:101600005050002090E702208EE72DE9F843002596
:10161000DDF820800446ADF8005090F85100012814
:1016200003D094F8510022287DD169B162B15BB139
:1016300094F85000012876D0012684F8506094F880
:101640005100012803D005E00120BDE8F8833220D5
:1016500084F851006565A263A387E3872163A386AD
:10166000E386A564E564A06A4FF40057B84209D147
:101670002068016821F4005101602068016841F48C
:101680000051016020680168490603D4016841F0F7
:1016900040010160E0684FF48271B0F5006F60684E
:1016A00007D0002867D088426ED1E08E012862D032
:1016B0006AE020B188420CD1E08E012809D1206B6C
:1016C00021680088C860206B801C2063E08E401E6B
:1016D000E086E08E80B9A06AB84244D120680168F3
:1016E00041F4805101603EE02068C068A16B088031
:1016F000A06B801CA0639EE043460022022120468E
:1017000000F0EFFA002874D1206B21680088C860CF
:10171000206B801C2063E08E401E0004000CE086DD
:1017200009D1A06A00E0C7E0B84204D1206801688E
:1017300041F480510160434600220121204600F01F
:10174000D0FA00286FD12068C068A16B0880A06B18
:10175000801CA063E08F401EE087E08E0028CBD184
:10176000606800286AD1434600220121204600F02B
:10177000B8FAF0BBB8E7206B411C21632168007800
:10178000C860E08E401EE086E08E98B9A06AB8423C
:1017900004D12068016841F4805101604346002271
:1017A0000121204600F09DFA18BB2068C068A16B9B
:1017B000087040E0434600220221204600F091FAE2
:1017C000B8B9206B411C216321680078C860E08EA5
:1017D000401E0004000CE08607D1A06AB84204D184
:1017E0002068016841F480510160002243460121D4
:1017F00000E018E0204600F074FAA0B92068C16843
:10180000A06B421CA2630170E08F401EE087E08E57
:101810000028CFD1606888B94346002201212046C4
:1018200000F05FFA08B103200FE72068C168A06BE1
:10183000421CA2630170E08F401EE087A06AB8429C
:1018400010D1434600220121204600F04AFA18B187
:10185000606D40F002000FE02068C068ADF8000045
:10186000BDF80000434601228021204600F039FAED
:1018700020B1606D40F010006065D4E784F85160DD
:10188000A06AB84214D120688168C943C9060FD440
:10189000616D41F002016165016821F40051016050
:1018A0002068016841F40051016084F85050CBE693
:1018B00084F850500020C8E60220C6E64FF0E02130
:1018C0000428086903D020F004000861704740F044
:1018D0000400FAE7704710B5401EB0F1807F01D3D5
:1018E000012010BD4FF0E02460610F21601700F06F
:1018F000E5F90020A06107202061002010BD10B58F
:10190000FFF7E8FF10BD70B5040004D094F839006B
:10191000002510B106E0012070BD84F83850204643
:1019200000F020F8022084F839002068C16821F412
:101930000051C160204600F07DFA2068016921F461
:10194000904101612068416921F02A0141612068CC
:10195000C16841F40051C160E563012084F8390099
:10196000002070BDF0B519490768DFF85CC0481564
:10197000002402230322164D460085B0674507D197
:101980008F6947F480478F61896901F480410AE0DB
:10199000DFF840C0674515D1CF6947F40037CF6104
:1019A000C96901F40031CDE90321CDE9000369469D
:1019B0002846FEF795FECDE9006469462846029464
:1019C000FEF78EFE05B0F0BD003801400010024069
:1019D00000080140004400402DE9F047044690F81B
:1019E000390099460D46012801D0222858D12DB33F
:1019F00022B394F83800012852D0012684F83860C8
:101A00000027E76394F8390022281AD05FF012000B
:101A100084F83900A284E2844FF48058E08C4B466D
:101A2000401EE084A0684FF0000240454FF0800166
:101A3000204613D100F0B6FA08BB04E00120BDE84F
:101A4000F0873220E4E728882168C0F30800486066
:101A5000206908B16D1C08E0AD1C06E000F0A2FA98
:101A600068B9216815F8010B4860E08C0028D5D1D1
:101A70004B4600224021204600F094FA08B1032092
:101A8000DDE794F83900322806D084F8396000BFC9
:101A900084F838700020D2E7222084F83900F7E774
:101AA0000220CCE7FEE700002DE9FF410D46074686
:101AB0000024FEF705FE3C23012234493448FFF799
:101AC00001FD02AE31193C2301223148FFF704FC2D
:101AD000641CE4B2082CF5D329463846FEF7EDFD28
:101AE0002A4C9DF80800E41CE070BDF8090040BADB
:101AF00040082080BDF80B1049BA4908A180BDF804
:101B00000D1049BAE1809DF80F10A170FEF751FC4D
:101B10000022204BFEF7C4FB6FF00E02FEF732FCF2
:101B2000E61E2A46C6E90401CDE9000118481AA1BB
:101B3000D83000F081FA16493C23D8311E22A1F199
:101B40008000FFF749FF2088FEF733FC6FF00402A6
:101B5000FEF718FC0022154BFEF79CFBC6E90601B8
:101B600002460B480B4612A1F63000F065FA084910
:101B70003C23F6311E22A1F19E00FFF72DFF4FF40A
:101B80007A70FEF7A1FDBDE8FF810000080000208B
:101B900068000020C0AF1C410A25753A200A527225
:101BA0007464203D20256C660A000000000070402F
:101BB00054727464203D20256C660A002DE9F043C0
:101BC000294885B0816941F010018161816901F086
:101BD00010010491816941F004018161816901F082
:101BE00004010491816941F00801816180691F4FFE
:101BF00000F008004FF46045049000222946384662
:101C0000FEF750FEDFF86880002252214046FEF7C2
:101C100049FE002201214046FEF744FEDFF85490C1
:101C2000012441F223060022314648460094FEF783
:101C300039FECDE900540225694638460395FEF782
:101C40004FFD5220CDE90004694603954046FEF75A
:101C500047FDCDE90064694648460395FEF740FD1F
:101C600005B0BDE8F0830000001002400010014004
:101C700000080140000C01400E4810B50C490160FD
:101C80004FF482714160002102228160C0E9031299
:101C90001202C0E905122022C0E9072141628162D7
:101CA0000A21C162FFF7A6FA002800D0FEE710BDA6
:101CB0000038004068000020FEE770470907090E61
:101CC000002806DA00F00F0000F1E02080F8141D73
:101CD000704700F1E02080F8001470477047012041
:101CE00070472DE9F0471D4690460E460446FEF724
:101CF000DFFD07465FEA08004FF000084FF4005A86
:101D00004FF0010926D034E0681C23D025B1FEF73E
:101D1000CFFDC01BA8421DD92068416821F0E00119
:101D200041602068016821F040010160A06A5045CF
:101D300009D12068016821F4005101602068016820
:101D400041F40051016084F8519084F850800320E0
:101D5000BDE8F0872068806836EA0000D4D10DE045
:101D6000681C06D0002DD7D0FEF7A2FDC01BA842EC
:101D7000D2D82068806836EA0000F1D00020E7E77A
:101D8000704710B5FEF79AFDBDE81040FFF7B7BDEC
:101D900010B590B002200090012004901020002483
:101DA000059007946846FEF765FF00B1FEE70F2037
:101DB000CDE90A040C940D9400210AA80E94FEF7B4
:101DC0001BFE00B1FEE7FEF7DBFE4FF47A71B0FBBD
:101DD000F1F0FFF780FD0420FFF770FD00221146AF
:101DE000501EFEF7D7FD10B010BD00000D48016871
:101DF00041F00101016041680B4A114041600168F6
:101E00000A4A11400160016821F4802101604168A3
:101E100021F4FE0141604FF41F0181600449C003B9
:101E200008607047001002400000FFF8FFFFF6FE58
:101E300008ED00E02DE9F041044600680169E26820
:101E400021F44051114301612169A068084361698F
:101E500008432168CA6841F20C639A430243CA608E
:101E600020684169A26921F44071114341614C49E4
:101E700020686425322688423CD1FEF79FFE00EBA5
:101E8000C00101EB001061688900B0FBF1F7FEF7BB
:101E900095FE00EBC00101EB00106168B0468900BF
:101EA000B0FBF1F0B0FBF5F06FF01801484307EB21
:101EB000800106EB0110B0FBF5F000F0F006FEF734
:101EC0007DFE00EBC00101EB001061688900B0FBF2
:101ED000F1F0B0FBF5F006EB0016FEF76FFE00EB3D
:101EE000C00101EB001061688900B0FBF1F7FEF75B
:101EF00065FE3BE0FEF74AFE00EBC00101EB00107F
:101F000061688900B0FBF1F7FEF740FE00EBC0010D
:101F100001EB00106168B0468900B0FBF1F0B0FB46
:101F2000F5F06FF01801484307EB800106EB011054
:101F3000B0FBF5F000F0F006FEF728FE00EBC00164
:101F400001EB001061688900B0FBF1F0B0FBF5F027
:101F500006EB0016FEF71AFE00EBC00101EB0010C5
:101F600061688900B0FBF1F7FEF710FE00EBC001DD
:101F700001EB001061688900B0FBF1F0B0FBF5F0F7
:101F80006FF01801484307EB800108EB0110B0FB2C
:101F9000F5F0216800F00F0030448860BDE8F08162
:101FA000003801402DE9F0471D4690460E46044694
:101FB000FEF77EFC07465FEA08004FF000094FF08D
:101FC000010808D030E0681C05D095B1FEF770FC20
:101FD000C01BA8420DD82068006836EA0000F2D184
:101FE00027E0681C20D025B1FEF762FCC01BA84288
:101FF0001AD92068C16821F08001C1602068C168D9
:1020000021F02001C1602068C16821F48071C160A5
:102010002068416921F00101416184F8398084F828
:1020200038900320BDE8F0872068006836EA000099
:10203000D7D00020F6E7FEE70FB4084B10B504A98F
:1020400002AA039800F0DEF8044602A9002000F07E
:1020500070FC204610BC5DF814FB0000332900081A
:1020600002E008C8121F08C1002AFAD17047704761
:10207000002001E001C1121F002AFBD170470000BF
:102080002DE9FF5F82B00021DDE90430020DDDF8AB
:1020900040B0034318D044F61050A2F2FF3242433E
:1020A0001514119801281FD0A5EB0B00401C5FEA06
:1020B000000A4FF000064E4FDFF83891B046504608
:1020C00015D5CAF1000413E0119801244AA3012890
:1020D00001D16FEA0B010298119AC0E90031C0E901
:1020E000024206B0BDE8F09FCBF10000DFE70446F6
:1020F0000021404A491842EB0450CDE9001012E09B
:10210000E00707D032463B4640464946FEF7C8F84E
:102110008046894632463B4610461946FEF7C0F8CF
:1021200006460F466410002CEAD1DDE90401DDE922
:102130000023BAF1000F06DAFEF7B2F842464B462A
:10214000FEF7AEF805E0FEF706FA42464B46FEF70C
:1021500002FA04460E460022284BFEF783FA03D803
:102160004FF0FF30014607E00022254B2046314664
:10217000FDF7EFFFFEF75EFA102409E0002C0ADB02
:102180000A220023FEF738F9039B30321A55641EE9
:1021900050EA0102F2D1641C039AC4F11103144401
:1021A000119A012A03D0012208430DD10AE0084305
:1021B00004D000204FF0110B119072E7A3EB0B0538
:1021C0006D1E0DE05B4504DD4FF0000205F10105D9
:1021D00004E003DA4FF00002A5F10105002AECD07B
:1021E00002981199C0E90231C0E9004579E7000081
:1021F000000014400000F03F300000000000F043F9
:102200000000E03F2DE9FF4F95B09B46894606460A
:1022100000250FE2252877D100242746F84A01211E
:10222000059400E0044316F8013F203B01FA03F057
:102230001042F7D130782A2811D06FF02F03307870
:10224000A0F13002092A16D8059A44F0020402EBE4
:10225000820203EB42021044761C0590EFE759F826
:10226000042B0592002A03DA504244F400540590EE
:1022700044F00204761C30782E2816D116F8010F8F
:1022800044F004042A280DD06FF02F023078A0F11A
:102290003003092B09D807EB870302EB4303C71868
:1022A000761CF3E759F8047B761C30786C280FD045
:1022B00006DC4C2817D068280DD06A2814D104E019
:1022C000742810D07A280FD10DE044F400140AE0ED
:1022D00044F4801401E044F440147278824202D144
:1022E00004F58014761C761C307866280BD013DC3D
:1022F000582877D009DC002875D04528F6D0462824
:10230000F4D047281AD19DE118E0632835D064281D
:1023100079D0652812D195E1702873D008DC672840
:10232000F1D069286FD06E280DD06F2806D1B5E0A6
:1023300073282CD0752875D0782874D05A461799F0
:1023400090476D1C75E1C4F30250022809D00328A0
:102350000DD0D9F8001004280DD00D6009F1040942
:1023600067E1D9F80010EA17C1E90052F6E7D9F899
:1023700000100D80F2E70D70F0E719F8041B8DF8DE
:10238000001000208DF80100EA46012003E059F812
:1023900004AB4FF0FF3061074FF0000102D40DE0B5
:1023A00008F101018846B9420FDA8045F8DB1AF8D6
:1023B00008100029F4D108E008F1010188468142A3
:1023C000FADB1AF808100029F6D105985B46A0EB55
:1023D000080721463846179A00F094FA284400EB83
:1023E000080507E04DE029E10DE01AF8010B5A4617
:1023F00017999047B8F10108F7D25B462146384655
:10240000179A13E142E00A220092C4F302524FF0FD
:10241000000A022A08D059F804CB032A4FEAEC71CB
:102420000AD00DE029E02AE009F1070121F00702B6
:10243000F2E802C1914609E00FFA8CFC4FEAEC7118
:10244000042A03D14FFA8CFC4FEAEC71002907DA19
:102450000A460021DCF1000C61EB02012D2202E0B2
:10246000220504D52B228DF80420012203E0E20787
:1024700001D02022F7E7904659E00A2102E010221D
:102480000DE010214FF0000A00910BE010224FF0F8
:10249000000A44F004040827009203E008224FF0E9
:1024A000000A0092C4F30252022A05D059F804CB64
:1024B0000021032A08D009E009F1070121F00702F1
:1024C000F2E802C1914605E01FFA8CFC042A01D112
:1024D0000CF0FF0C4FF00008220728D5702806D01A
:1024E000009B83F0100353EA0A0305D00EE040225C
:1024F0008DF80420012208E05CEA010206D03022B7
:102500008DF804208DF8050002229046009B83F090
:10251000080353EA0A030AD15CEA010201D1620707
:1025200005D530228DF804204FF001087F1E582871
:1025300004D034A003900EA802900DE036A0F9E775
:1025400053466046009AFDF757FF84460398825C25
:102550000298401E029002705CEA0100F0D10298DD
:1025600006A9081A00F1200A600702D524F4803475
:1025700000E00127574502DDA7EB0A0000E000203C
:1025800000EB0A01009005984144401A0590E003D1
:1025900006D45B462146179A059800F0B3F9054426
:1025A000002706E001A85A46C05D179990476D1CA8
:1025B0007F1C4745F6DBE0030CD55B462146179AA6
:1025C000059800F09FF9054404E030205A46179919
:1025D00090476D1C0099481E00900029F5DC08E02A
:1025E000029802995A460078491C0291179990471F
:1025F0006D1CBAF10001AAF1010AF1DC65E10000ED
:1026000009280100303132333435363738396162C8
:10261000636465660000000030313233343536378C
:1026200038394142434445460000000000F058F963
:102630000544761C307800287FF4ECAD19B02846AC
:10264000BDE8F08F620700D4062709F1070222F0E7
:10265000070CFCE80223E14603F000485FEA080C9F
:1026600002D00FF2702C0DE05FEA045C02D50FF28D
:10267000682C07E05FEAC47C02D00FF2602C01E016
:10268000AFF2700C4FF0FF3823F00043CDF850C08C
:1026900065280CD006DC452809D046281DD04728DF
:1026A0003DD13DE0662818D067287ED138E0002172
:1026B000112F01DB112000E0781CCDE9000106A9F3
:1026C0000EA8FFF7DDFCDDE90F010E9A0391002152
:1026D000009207F1010A04914DE04FF0004000978D
:1026E000CDE9011006A90EA8FFF7CAFCDDE90F022B
:1026F00003920E9B11990022DDF80CA00093049226
:1027000011B9791C00EB010AB7EB0A0004D4C0F13F
:10271000FF3007F1010A0490AAEB0700019044E0A2
:10272000012F00DA01270021112F01DD112000E027
:102730003846CDE9000106A90EA8FFF7A1FCDDE9A6
:102740000F010E9A0391002104910092BA462107CD
:102750000CD40399514500DA8A46BAF1010F05DD20
:10276000009AAAF10101515C302908D0B84202DA7E
:1027700010F1040F06DA0121CDE9011015E0AAF1EC
:102780000101E9E7002805DC049901440491AAEB62
:10279000000102E0411C514500DD8A460499401ABF
:1027A000401C01904FF000400290200704D4019893
:1027B000504501DBCDF8048000208DF84F000298D1
:1027C0000DF14F07B0F1004F25D02B200E9002984D
:1027D0004FF0020800280CDA404202902D200E90A3
:1027E00007E00A210298FDF7F1FD3031029007F869
:1027F000011DB8F10001A8F10108F2DC02980028DF
:10280000EFD1791E0E980870307800F0200040F06B
:10281000450007F8020D12A8C01B00F10708149824
:10282000007800B1012000EB0A01019801EBE07192
:1028300005984144401A401E0590E00306D45B46CB
:102840002146179A059800F05DF805441498007821
:1028500018B15A46179990476D1CE00324D55B4682
:102860002146179A059800F04DF805441CE004989D
:10287000002807DBDDE90301884203DD0098405CA6
:10288000179901E0179930205A469047049805F1AE
:102890000105401C04900198401E019004D12E2097
:1028A0005A46179990476D1CBAF10001AAF1010A26
:1028B000DDDC05E017F8010B5A46179990476D1CAF
:1028C000B8F10001A8F10108F4DC5B462146179A33
:1028D0000598ABE62D0000002B0000002000000052
:1028E0002DE9F041044600251E461746880404D40D
:1028F00005E039462020B0476D1C641EF9D52846F6
:10290000BDE8F0812DE9F041044600251E469046C1
:10291000C80301D5302700E02027880404D505E04E
:1029200041463846B0476D1C641EF9D52846BDE8BF
:10293000F0810A68531C0B601070704770B50C462C
:102940000546FDF7BDFE0A20FDF7BEFE3C23012231
:1029500008490948FEF7B6FD06493C230122491CF7
:102960000548FEF7AFFD21462846BDE87040FDF75B
:10297000A4BE0000090000206800002008B5FDF793
:10298000A5FFFFF705FA4D48816941F00401816117
:10299000806900F004000090FFF710F9FFF76CF970
:1029A000484847494FF4E13500240160C0E901542B
:1029B0000C26C460C0E904468461C461FEF7A3FF2D
:1029C00000B1FEE73F48404940380160C0E901548A
:1029D000C460C0E904468461C461FEF794FF00B19D
:1029E000FEE7384801219C3003224160C0E9021211
:1029F0000160DFF8D88001464046FDF771FE344D96
:102A000000274FF4FA74A5F1280600BF35F8171017
:102A100056F82700FFF792FF2046FDF755FE7F1C72
:102A20000A2FF3DB4FF47A70FDF74EFE0FF2A40984
:102A30004746A0464FF6FF7A4846FDF783FB82B231
:102A40002048534649464038FEF7C6FF0121384624
:102A5000FDF724FF44464046FDF736FE0121384687
:102A6000FDF71CFF2046FDF72FFE01213846FDF73C
:102A700015FF2046FDF728FE01213846FDF70EFF21
:102A80005FF0000435F8141056F82400FFF70CF836
:102A9000641C0A2CF6DB4FF4FA60FDF715FE0948BA
:102AA000082216A17C30FFF7C7FA06493C237C3187
:102AB0001E22A1F1BC00FEF78FFFBDE7001002400F
:102AC000004400400001002000380140000801409F
:102AD00050000020496E6974696174696E67205402
:102AE000656D7065726174757265206D6561737571
:102AF00072656D656E740A0D00000000526F756E90
:102B0000647320646F6E65203D202569200A0000F3
:102B1000000000000000000001020304060708098D
:102B20000000000001020304482B00080000002000
:102B30006800000060200008B02B0008680000203A
:102B400048050000702000080000000000000000A0
:102B50000080C20000000000000000000000000033
:102B60000000000000000000000000000000000065
:102B7000000C01400008014000100140001001401D
:102B8000000C0140000C0140000801400008014019
:102B900000100140000C01400100400000400020F6
:102BA00002000010100002000080200000A24A0471
:04000005080000ED02
:00000001FF
