:020000040800F2
:1000000000500020210200080D31000811310008C5
:1000100015310008193100081D31000800000000EA
:100020000000000000000000000000007533000820
:1000300021310008000000003D340008253100088F
:1000400019230008192300081923000819230008A0
:100050001923000819230008192300081923000890
:100060001923000819230008192300081923000880
:100070001923000819230008192300081923000870
:100080001923000819230008192300081923000860
:100090001923000819230008192300081923000850
:1000A0001923000819230008192300081923000840
:1000B0001923000819230008192300081923000830
:1000C0001923000819230008192300081923000820
:1000D0001923000819230008192300081923000810
:1000E000313100081923000819230008000000001E
:1000F0000000000000000000000000000000000000
:1001000000000000000000005FF808F100B583B0B7
:1001100002F07AF8304B314A1360314A1360314BA8
:10012000314A03E011681960043304322F498B42CD
:10013000F8D32A4B1A682E4B9A4204D1284B1A68DE
:100140002C4B9A4200D0FEE7234B2B4A13602B4ADC
:1001500013602B4B02E000221A600433294A9342B9
:10016000F9D3254B1B6813B9244B1B6803B1FEE779
:1001700002F056F8694601A802F022F8224C234BFF
:100180001C1BA410002504E01F4B53F82530984792
:100190000135AC42F8DC1E4C1E4B1C1BA410002584
:1001A00004E01B4B53F8253098470135AC42F8DC8E
:1001B0000099019802F0F4FD0546174C174B1C1BE3
:1001C000A41004E0013C144B53F824309847002C51
:1001D000F8DC284601F0D0FFBABADECA00000020E1
:1001E0008802002000000020107900088C02002006
:1001F0007856341232547698900200201C1F00204A
:1002000090020020201F00204C0300084C0300082F
:100210004C0300084C0300084C0300084C03000882
:1002200008B5FFF773FF00BF00BEFEE71EF0040F26
:100230000CBFEFF30880EFF309807146364A104790
:100240002DE9F04182B004468846084B5E6B9F6BF7
:100250009D6A074801F0BCFFCDF800803B4632465E
:100260002946204601F0E0FF00BEFEE700ED00E079
:100270004874000800BEFEE71EF0040F0CBFEFF349
:100280000880EFF309807146244A10472DE9F041B8
:1002900082B004468846084B5E6B9F6B9D6A074898
:1002A00001F096FFCDF800803B46324629462046B5
:1002B00001F0BAFF00BEFEE700ED00E05874000850
:1002C0001EF0040F0CBFEFF30880EFF309807146B6
:1002D000134A10472DE9F04182B004468846084B86
:1002E0005E6B9F6B9D6A074801F072FFCDF800803E
:1002F0003B4632462946204601F096FF00BEFEE707
:1003000000ED00E06474000800BEFEE700BEFEE7FA
:1003100000BEFEE770470000410200088D020008A1
:04032000D5020008FA
:1003240010790008000000208C02002010790008D9
:10033400000000100000001090020020201F002088
:08034400000000100000001091
:1003500010B5044601F09CF8064BA3FB0030800961
:1003600000F03AFB002221464FF0FF3000F002FB84
:10037000002010BDD34D621008B5074A136843F042
:1003800010031360032000F0E3FA0020FFF7E0FF02
:1003900002F09EFD002008BD00200240024A1368C2
:1003A00001331360704700BF94020020014B1868AE
:1003B000704700BF9402002010B582B00190FFF793
:1003C000F5FF0446FFF7F2FF001B019B9842F9D3AB
:1003D00002B010BDF0B44B6901229A400468D4F811
:1003E000003223F47C534D6A43EA052343F00103B2
:1003F000C4F800320568D5F81C32D4432340C5F850
:100400001C32CB69C3B90568D5F80C322340C5F856
:100410000C3206684B69CF688D8845EA074548333A
:1004200046F8335003684E698F680D8845EA0745E2
:10043000483603EBC6035D60CB69012B18D1056814
:10044000D5F80C321343C5F80C3206684B690F68B7
:100450008D8845EA0745483346F8335003684E69AE
:100460008F688D8945EA0745483603EBC6035D6012
:100470008B6933B90568D5F804322340C5F80432D6
:1004800005E00568D5F804321343C5F804320B695A
:1004900033B90568D5F814321C40C5F8144205E09C
:1004A0000468D4F814321343C4F814320B6A012BD5
:1004B00005D10168D1F81C321A43C1F81C22026828
:1004C000D2F8003223F00103C2F800320020F0BC61
:1004D000704700BF002800F0918038B5044690F8BE
:1004E000393013F0FF0F04D1002380F8383002F0C8
:1004F00037FD022384F839302268136823F00203A1
:1005000013602268136843F001031360FFF74EFF86
:1005100005460BE0FFF74AFF401B0A2806D90320D7
:1005200084F83900002384F8383038BD23685A68CD
:1005300012F0010FEED05A6812F0010F4FD0A269ED
:10054000012A01D0002100E08021E269012A01D1C5
:1005500041F04001226A012A01D141F02001626A82
:10056000012A01D141F01001A26A012A01D141F012
:100570000801E26A012A01D141F004011A6822F05F
:10058000FC020A431A602168A268E3681A432369DF
:100590001A4363691A436368013B1343CB612268C2
:1005A000136823F001031360FFF700FF05460BE01B
:1005B000FFF7FCFE401B0A2806D9032084F8390007
:1005C000002384F8383038BD23685A6812F0010FD0
:1005D000EED05B6813F0010F03D1002302E000238B
:1005E00000E001232BB10020E063012384F83930BF
:1005F00038BD042384F83930012038BD012070470C
:10060000F8B590F83830012B00F0D480012380F841
:10061000383090F83930DBB2222B03D1322380F806
:10062000393002E0122380F8393003689A6812F0FA
:10063000806F09D19A6812F0006F07D19A6812F0A2
:10064000805F05D0022504E0002502E0012500E0DE
:100650000425042D00F0A68005F1180212019C5813
:1006600004F001049C50036B9A6862B9066805F1B6
:10067000180424013759D3F800E0DA6842EA4E53EF
:100680003B4333510EE0D0F800E005F1180424019B
:100690005EF804705E6842EAC602DB681A433A43B9
:1006A0004EF804200E460446026B136903F00F0354
:1006B0001361036805F1180109010B445A6822F01F
:1006C0000F025A6003680B445868226B1269024398
:1006D0005A602268206BC77D837D1B0443EA076351
:1006E000477D43EA0723007D034328010244C2F803
:1006F00088312268276B97F81BE0BB7E1B0443EA16
:100700000E6397F819E043EA0E233F7E3B43024411
:10071000C2F88C312268535843F001035350FFF75D
:1007200045FE07460FE0B6F1FF3F0CD026B1FFF7BC
:100730003DFEC01B864206D2032084F83900002308
:1007400084F83830F8BD3DB923689A681A4B934352
:1007500014BF0123002310E0012D07D123689A68FC
:10076000164B934314BF0123002306E023689A68C5
:10077000134B934314BF01230023002BD3D194F8D0
:100780003930DBB2322B06D1222384F839300023F2
:1007900084F8383002E0012384F83930002084F8EE
:1007A0003800F8BD042380F83930002380F8383051
:1007B0000120F8BD0220F8BD03000004000300087A
:1007C00000000310F8B590F83830012B00F0BD8020
:1007D000012380F8383090F83930DBB2122B03D186
:1007E000322380F8393002E0222380F8393016466F
:1007F0000D460446FFF7DAFD07460FE0B6F1FF3F6E
:100800000CD026B1FFF7D2FDC01B864206D20320D2
:1008100084F83900002384F83830F8BD3DB92368E6
:10082000DB6813F0030F0CBF0123002306E02368ED
:100830001B6913F0030F0CBF01230023002BDDD134
:10084000626B216805F11B031B01CB5803F0040305
:100850009360636B9A683AB9216805F11B02120133
:100860008A58520D1A6006E0216805F11B02120138
:100870008A58D2085A60616B226805F11B031B017C
:10088000D25802F00202CA60616B22681A445268B0
:1008900002F00F020A61626B21680B445B68C3F3CC
:1008A0000723D361616B22682B011A44D2F8B82167
:1008B0000A75616B22681A44D2F8B821120A4A7587
:1008C000616B22681A44D2F8B821120C8A75616BE8
:1008D00022681A44D2F8B821120ECA75616B2268D8
:1008E0001A44D2F8BC210A76616B22681A44D2F805
:1008F000BC21120A4A76616B22681A44D2F8BC21E4
:10090000120C8A76626B21680B44D3F8BC311B0E43
:10091000D3762DB92268D36843F02003D36004E076
:100920002268136943F02003136194F83930DBB275
:10093000322B03D1122384F8393002E0012384F8EA
:100940003930002084F83800F8BD0220F8BD00BF1F
:10095000074AD36823F4E0631B041B0C000200F475
:10096000E060184340F0BF6040F40030D060704752
:1009700000ED00E030B4164BDB68C3F30223C3F193
:100980000704042C28BF04241D1D062D01D9DD1EDB
:1009900000E00025012303FA04F4013C2140A940B2
:1009A000AB40013B1A400A43002806DA00F00F0072
:1009B0001201D2B2074B1A5407E01201D2B200F171
:1009C000604000F5614080F8002330BC704700BFF4
:1009D00000ED00E014ED00E00138B0F1807F0AD2B4
:1009E000064B5860F021064A82F8231000209860D8
:1009F00007221A6070470120704700BF10E000E036
:100A000000ED00E0042805D1054A136843F0040313
:100A100013607047024A136823F0040313607047A1
:100A200010E000E0F0B583B000263446D5E00122A6
:100A3000A2400B6813409A4240F0CE804D68122DC0
:100A40002DD00BD8022D27D003D85DB3012D1ED099
:100A500035E0032D30D0112D1BD030E0614FBD4269
:100A600020D008D8A7F58017BD421BD007F58037E6
:100A7000BD4224D116E05C4FBD4213D007F580374C
:100A8000BD420FD0A7F58017BD4218D10AE0CE684D
:100A900015E0CE68043612E0CE6808360FE0CE6866
:100AA0000C360CE08D684DB1012D02D10261082693
:100AB00005E04261082602E0002600E00426FF2B44
:100AC00001D8864601E000F1040EFF2B01D8A200F8
:100AD00002E0A4F108029200DEF800700F259540B4
:100AE00027EA050506FA02F22A43CEF800204A68F2
:100AF00012F0805F70D03D4A956945F0010595611F
:100B0000926902F001020192019AA708BD1C384ABD
:100B100052F8255004F0030292004FF00F0E0EFA27
:100B200002FE25EA0E0E334DA8420DD005F5806574
:100B3000A8420BD005F58065A84209D005F580656F
:100B4000A84207D1032506E0002504E0012502E0C4
:100B5000022500E0042505FA02F24EEA02020237FD
:100B6000234D45F827204A6812F4803F05D005F54B
:100B700080652A681A432A6004E01F4D2A6822EA29
:100B800003022A604A6812F4003F04D01A4D6A68D2
:100B90001A436A6004E0184D6A6822EA03026A6038
:100BA0004A6812F4801F04D0134DAA681A43AA6041
:100BB00004E0114DAA6822EA0302AA604A6812F40E
:100BC000001F04D00C4DEA681343EB6004E00A4DAB
:100BD000EA6822EA0303EB6001340F2C7FF627AFAB
:100BE00003B0F0BD000021100000311000100240E1
:100BF0000000014000080140000401400AB1016109
:100C00007047090401617047C3685940C16070476B
:100C1000704700BF08B5044B5B69034203D0024B29
:100C20005861FFF7F5FF08BD0004014030B583B0FF
:100C30000446036813F0010F00F09680B24B5B6826
:100C400003F00C03042B0AD0AF4B5B6803F00C03DA
:100C5000082B1BD1AC4B5B6813F4803F16D04FF4CC
:100C6000003393FAA3F3A84B1A684FF4003393FAB6
:100C7000A3F3B3FA83F303F01F0322FA03F313F091
:100C8000010F71D06368002B6ED1A0E26368B3F5E9
:100C9000803F05D19C4A136843F48033136026E0FB
:100CA00063B903F1804303F504331A6822F48032F8
:100CB0001A601A6822F480221A6018E0B3F5A02F97
:100CC0000CD103F18043A3F53C331A6842F480222F
:100CD0001A601A6842F480321A6008E08A4B1A6877
:100CE00022F480321A601A6822F480221A60636843
:100CF000EBB1FFF75BFB054605E0FFF757FB401B39
:100D0000642800F266824FF4003393FAA3F37E4B1B
:100D10001A684FF4003393FAA3F3B3FA83F303F0A2
:100D20001F0322FA03F313F0010FE6D01CE0FFF7D4
:100D30003DFB054605E0FFF739FB401B642800F248
:100D40004A824FF4003393FAA3F36F4B1A684FF4BF
:100D5000003393FAA3F3B3FA83F303F01F0322FAE9
:100D600003F313F0010FE6D1236813F0020F00F034
:100D70009080654B5B6813F00C0F0AD0624B5B6888
:100D800003F00C03082B27D15F4B5B6813F4803F03
:100D900022D1022393FAA3F35B4B1A68022393FA3E
:100DA000A3F3B3FA83F303F01F0322FA03F313F060
:100DB000010F03D02369012B40F00F8252480368D2
:100DC00023F0F8016369F82292FAA2F2B2FA82F2F1
:100DD00093400B4303605CE023699BB3012292FACA
:100DE000A2F3B3FA83F39B0003F1844303F5840376
:100DF0001A60FFF7DBFA054605E0FFF7D7FA401B5C
:100E0000022800F2EC81022393FAA3F33E4B1A6806
:100E1000022393FAA3F3B3FA83F303F01F0322FA36
:100E200003F313F0010FE8D03748036823F0F8010B
:100E30006369F82292FAA2F2B2FA82F293400B436B
:100E4000036026E0012393FAA3F3B3FA83F39B0034
:100E500003F1844303F5840300221A60FFF7A6FA26
:100E6000054605E0FFF7A2FA401B022800F2B9810F
:100E7000022393FAA3F3244B1A68022393FAA3F3F1
:100E8000B3FA83F303F01F0322FA03F313F0010F05
:100E9000E8D1236813F0080F52D0A3693BB30122B5
:100EA00092FAA2F3B3FA83F3184941F82320FFF72B
:100EB0007DFA054605E0FFF779FA401B022800F2AB
:100EC0009281022393FAA3F293FAA3F20E4A526A92
:100ED00093FAA3F3B3FA83F303F01F0322FA03F3A5
:100EE00013F0010FE7D00120FFF766FA28E0012395
:100EF00093FAA3F3B3FA83F30021044A42F82310D0
:100F0000FFF754FA054609E000100240800442420F
:100F1000FFF74CFA401B022800F26781022393FA84
:100F2000A3F293FAA3F2BA4A526A93FAA3F3B3FA7A
:100F300083F303F01F0322FA03F313F0010FE7D149
:100F4000236813F0040F00F0A180B14BDA6942F07E
:100F50008052DA61DB6903F080530193019BAD4A53
:100F6000136843F480731360FFF720FA054605E029
:100F7000FFF71CFA401B642800F23981A54B1B685F
:100F800013F4807FF4D0E368012B05D1A04A136AE3
:100F900043F00103136222E063B903F1804303F5D8
:100FA00004331A6A22F001021A621A6A22F0040259
:100FB0001A6214E0052B09D1954B1A6A42F004021B
:100FC0001A621A6A42F001021A6208E0904B1A6A29
:100FD00022F001021A621A6A22F004021A62E3681D
:100FE00053B3FFF7E3F9054607E0FFF7DFF9401BCE
:100FF00041F28833984200F2FC80022393FAA3F274
:1010000093FAA3F3B3FA83F35B0943F00203DBB271
:10101000022B02D17E4B1A6A01E07D4B5A6A0223F1
:1010200093FAA3F3B3FA83F303F01F0322FA03F353
:1010300013F0010FD9D029E0FFF7B8F9054607E012
:10104000FFF7B4F9401B41F28833984200F2D38095
:10105000022393FAA3F293FAA3F3B3FA83F35B099F
:1010600043F00203DBB2022B02D1694B1A6A01E0A2
:10107000674B5A6A022393FAA3F3B3FA83F303F09C
:101080001F0322FA03F313F0010FD9D1E369002BF8
:1010900000F0B3805E4A526802F00C02082A00F0A9
:1010A000AE80022B68D14FF0807393FAA3F3B3FAAA
:1010B00083F39B0003F1844303F5840300221A6049
:1010C000FFF774F9054605E0FFF770F9401B0228A9
:1010D00000F297804FF0007393FAA3F34C4B1A6819
:1010E0004FF0007393FAA3F3B3FA83F303F01F03F3
:1010F00022FA03F313F0010FE6D1236AB3F5803F20
:1011000006D143494B6823F40032A36813434B6074
:101110003F48436823F47411236A626A13430B4304
:1011200043604FF0807393FAA3F3B3FA83F39B0009
:1011300003F1844303F5840301221A60FFF736F9B3
:10114000044604E0FFF732F9001B02285BD84FF099
:10115000007393FAA3F32E4B1A684FF0007393FABF
:10116000A3F3B3FA83F303F01F0322FA03F313F09C
:10117000010FE7D0002049E04FF0807393FAA3F30A
:10118000B3FA83F39B0003F1844303F58403002245
:101190001A60FFF70BF9044604E0FFF707F9001B9C
:1011A000022832D84FF0007393FAA3F3184B1A6851
:1011B0004FF0007393FAA3F3B3FA83F303F01F0322
:1011C00022FA03F313F0010FE7D100201EE0012003
:1011D0001CE003201AE0032018E0012016E00320A1
:1011E00014E0032012E0032010E003200EE00320AF
:1011F0000CE003200AE0032008E0002006E00120C4
:1012000004E0032002E0032000E0032003B030BD2F
:10121000001002400070004030B486B01F4D02AC98
:1012200028686968AA68EB680FC42B8AADF8043097
:101230001B4B5B6803F00C02082A2AD103F47011DF
:101240004FF4701292FAA2F2B2FA82F221FA02F28A
:1012500006A90A4412F8102C13F4803F15D0104B45
:101260005B6803F400314FF4003393FAA3F3B3FA4D
:1012700083F321FA03F306A90B4413F8140C094B6A
:10128000B3FBF0F000FB02F004E0074800FB02F0C3
:1012900000E0044806B030BC704700BF1873000877
:1012A0000010024000127A0000093D0070B5744B36
:1012B0001B6803F007038B420BD2714A136823F0BB
:1012C00007030B431360136803F00703994240F0D0
:1012D000C680036813F0020F06D06A4C636823F0DF
:1012E000F0028368134363600D460446036813F0FD
:1012F000010F75D04268012A13D14FF4003393FADD
:10130000A3F3604B19684FF4003393FAA3F3B3FAD5
:1013100083F303F01F0321FA03F313F0010F27D126
:101320009FE0022A13D14FF0007393FAA3F3554BB9
:1013300019684FF0007393FAA3F3B3FA83F303F041
:101340001F0321FA03F313F0010F11D18BE00223E5
:1013500093FAA3F34B4B1968022393FAA3F3B3FA5E
:1013600083F303F01F0321FA03F313F0010F7CD082
:1013700044494B6823F0030313434B60FFF716F80F
:1013800006466368012B0ED106E0FFF70FF8801BBD
:1013900041F2883398426AD83A4B5B6803F00C03F9
:1013A000042BF2D11CE0022B15D106E0FEF7FEFF64
:1013B000801B41F2883398425BD8324B5B6803F064
:1013C0000C03082BF2D10BE0FEF7F0FF801B41F27B
:1013D000883398424FD82B4B5B6813F00C0FF3D136
:1013E000274B1B6803F007039D420AD2244A136867
:1013F00023F007032B431360136803F007039D4298
:101400003BD1236813F0040F06D01E494B6823F428
:10141000E062E36813434B60236813F0080F07D0C2
:10142000184A536823F46053216943EAC1035360A7
:10143000FFF7F2FE134B5B6803F0F002F02393FA20
:10144000A3F3B3FA83F322FA03F30F4AD35CD84031
:101450000E4B18600020FEF77BFF002070BD0120BE
:1014600070BD012070BD012070BD012070BD032042
:1014700070BD032070BD032070BD012070BD00BF92
:101480000020024000100240747400080C0000208C
:10149000014B1868704700BF0C00002008B5FFF72B
:1014A000F7FF084B5B6803F4E0624FF4E06393FAE4
:1014B000A3F3B3FA83F322FA03F3034AD35CD840CD
:1014C00008BD00BF001002408474000808B5FFF793
:1014D000DFFF084B5B6803F460524FF4605393FAEC
:1014E000A3F3B3FA83F322FA03F3034AD35CD8409D
:1014F00008BD00BF00100240847400082DE9F041CF
:1015000005460E4690461C46FEF750FF0746B8F1CA
:10151000000F2AD05BE0B4F1FF3F26D024B1FEF7E4
:1015200045FFC01B844220D22A68536823F0E003A1
:1015300053602A68136823F040031360AB6AB3F565
:10154000005F09D12A68136823F4005313602A68E6
:10155000136843F400531360012385F851300023CE
:1015600085F850300320BDE8F0812B689B6836EA8F
:101570000303D0D10020BDE8F081B4F1FF3F26D0B5
:1015800024B1FEF713FFC01B844220D22A6853689F
:1015900023F0E00353602A68136823F040031360CC
:1015A000AB6AB3F5005F09D12A68136823F40053CE
:1015B00013602A68136843F400531360012385F80D
:1015C0005130002385F850300320BDE8F0812B68AE
:1015D0009B6836EA0303D0D00020BDE8F08100BF4D
:1015E00030B583B090F85150EDB2012D40F0C58078
:1015F000002900F0C480002A00F0C38090F8504019
:10160000012C00F0C080012480F85040122480F8A2
:1016100051400024446501638286C286C4648464A8
:1016200084638487C487826AB2F5005F09D1016848
:101630000A6822F400520A6001680A6842F4005203
:101640000A608268B2F5004F04D101680A6842F46A
:1016500080420A600268116811F0400F03D11168DE
:1016600041F0400111601D460446C368002B2CD197
:10167000436813B1C38E012B1AD12268236B591C06
:1016800021631B78D360E38E013BE38610E02B4699
:10169000002202212046FFF731FF002875D1226881
:1016A000236B591C21631B78D360E38E013BE386D7
:1016B000E38E002BEBD1A36AB3F5005F33D1226830
:1016C000136843F4805313602DE0436813B1C38E55
:1016D000012B1CD12368226B1288DA60236B023342
:1016E0002363E38E013BE38611E02B4600220221B7
:1016F0002046FFF703FF002849D12368226B128898
:10170000DA60236B02332363E38E013BE386E38ECF
:10171000002BEAD1A36AB3F5005F04D122681368F5
:1017200043F4805313602B46002202212046FFF72A
:10173000E5FE28B1636D43F010036365032327E0E2
:101740002B46012280212046FFF7D8FE034628B110
:10175000636D43F010036365032319E0A2682AB99F
:101760002268D168019192680192019A012284F85D
:101770005120002284F850200AE0022308E00123CF
:1017800006E0012304E0022302E0032300E0032338
:10179000184603B030BD00BF10B582B00024ADF8CC
:1017A000064090F85140E4B2012C05D090F8514029
:1017B000E4B2222C40F07781002900F07681002AE3
:1017C00000F07581002B00F0748190F85040012CDE
:1017D00000F07181012480F8504090F85140E4B24B
:1017E000012C02D1322480F85140002444658263E8
:1017F0008387C38701638386C3868464C464836AE2
:10180000B3F5005F09D10268136823F40053136035
:101810000268136843F40053136003681A6812F0F7
:10182000400F03D11A6842F040021A600446C368B0
:10183000B3F5006F7DD143682BB1B3F5827F0CD136
:10184000C38E012B09D12368226B1288DA60236BC7
:1018500002332363E38E013BE386E38E002B4DD1FD
:10186000A36AB3F5005F04D12268136843F4805380
:101870001360049B002201212046FFF73FFE002851
:1018800040F01B81A36B2268D2681A80A36B0233DD
:10189000A363E38F013BE387BDE0049B00220221A9
:1018A0002046FFF72BFE002840F009812368226BB9
:1018B0001288DA60236B02332363E38E013B9BB211
:1018C000E38643B9A36AB3F5005F04D122681368C5
:1018D00043F480531360049B002201212046FFF74C
:1018E0000DFE002840F0ED80A36B2268D2681A80BC
:1018F000A36B0233A363E38F013BE387E38E002BEB
:10190000CBD16368002B40F08680049B002201212C
:101910002046FFF7F3FD002840F0D580A36B226836
:10192000D2681A80A36B0233A363E38F013BE38782
:1019300071E043682BB1B3F5827F0BD1C38E012BCD
:1019400008D12268236B591C21631B78D360E38E76
:10195000013BE386E38E002B47D1A36AB3F5005F1A
:1019600004D12268136843F480531360049B00225F
:1019700001212046FFF7C2FD002840F0A680A36B9E
:101980002268D2681A70E38F013BE38743E0049B2F
:10199000002202212046FFF7B1FD002840F0978089
:1019A0002268236B591C21631B78D360E38E013BB3
:1019B0009BB2E38643B9A36AB3F5005F04D1226802
:1019C000136843F480531360049B002201212046D6
:1019D000FFF794FD00287CD1A36B5A1CA2632268F8
:1019E000D2681A70E38F013BE387E38E002BCED1E0
:1019F000636883B9049B002201212046FFF77EFD26
:101A0000002868D1A36B5A1CA2632268D2681A709E
:101A1000E38F013BE387A36AB3F5005F13D1049B17
:101A2000002201212046FFF769FD28B1636D43F0D4
:101A30000203636503234FE02368DB689BB2ADF8C4
:101A40000630BDF80630049B012280212046FFF7B6
:101A500055FD034628B1636D43F01003636503230E
:101A60003AE0012284F85120A26AB2F5005F16D153
:101A70002268916811F0100F11D0636D43F00203DA
:101A80006365136823F4005313602268136843F4FA
:101A900000531360002384F8503001231CE000221F
:101AA00084F8502018E0022316E0012314E00123FB
:101AB00012E0012310E002230EE003230CE00323D5
:101AC0000AE0032308E0032306E0032304E00323E2
:101AD00002E0032300E00323184602B010BD00BF5C
:101AE00070B584B00024ADF80E4090F85150EDB2BE
:101AF000012D40F0FD80002900F0FC80002A00F05C
:101B0000FB8090F85040012C00F0F880012480F810
:101B10005040222480F8514000244465816382872C
:101B2000C2878464C46404638486C4868468B4F50C
:101B3000004F04D105682C6824F480442C60846A2A
:101B4000B4F5005F09D105682C6824F400542C60BA
:101B500005682C6844F400542C601E460446436813
:101B6000B3F5827F0AD1836843B980F8503000967C
:101B700013460A46FFF710FE0546C6E023681A68BA
:101B800012F0400F03D11A6842F040021A60E36875
:101B900093B131E03346002201212046FFF7AEFC2D
:101BA000002840F0AD80A36B5A1CA2632268D26863
:101BB0001A70E38F013BE387E38F012BEAD8A36A16
:101BC000B3F5005F24D12268136843F48053136097
:101BD0001EE03346002201212046FFF78FFC00283B
:101BE00040F09080A36B2268D2681A80A36B023306
:101BF000A363E38F013BE387E38F012BE9D8A36A5B
:101C0000B3F5005F04D12268136843F48053136076
:101C10003346002201212046FFF770FC05460028CC
:101C200072D1E36833B9A36B5A1CA2632268D268ED
:101C30001A7006E0A36B2268D2681A80A36B023385
:101C4000A363E38F013BE387A36AB3F5005F13D17E
:101C50003346002201212046FFF750FC28B1636D76
:101C600043F00203636503254FE02368DB689BB202
:101C7000ADF80E30BDF80E306368B3F5827F0BD13E
:101C8000A368B3F5004F02D0B3F5806F04D122688A
:101C9000136823F040031360012384F85130A36AD2
:101CA000B3F5005F20D123689B6813F0100F1BD0A1
:101CB000204600F071F8012812D1636D43F0020351
:101CC00063652268136823F4005313602268136865
:101CD00043F400531360002384F85030012514E0CE
:101CE00023686FF010029A60002384F850300CE0F3
:101CF00002250AE0012508E0012506E0022504E0AE
:101D0000032502E0032500E00325284604B070BD4A
:101D100000283CD010B5044690F8513013F0FF0F66
:101D200001D101F055F9022384F85130226813687B
:101D300023F04003136021686268A3681A43E368D4
:101D40001A4323691A4363691A43A36903F40073AE
:101D50001343E2691343226A1343A26A1A430A60D7
:101D60002168638B03F00402636A13434B602368AA
:101D7000E26A1A612268D36923F40063D361002008
:101D8000044B18706065012384F8513010BD0120A8
:101D9000704700BF98020020012070472DE9F843EA
:101DA000814601680B6923F44052C36813430B61F9
:101DB000816803691943436919430068C26822F4C2
:101DC000B05323F00C030B43C360D9F800104B69E8
:101DD00023F44072D9F8183013434B61D9F80050FE
:101DE0005B4B9D4259D1FFF771FB00EB800000EB8C
:101DF0008000D9F80440A400B0FBF4F4554EA6FBD3
:101E0000043464092401FFF761FB00EB800000EB60
:101E10008000D9F804309B00B0FBF3F7FFF756FBC6
:101E200000EB800000EB8000D9F804309B00B0FB91
:101E3000F3F3A6FB03235B094FF0640808FB13735D
:101E40001B013233A6FB03235B0903F0F0031C44A0
:101E5000FFF73CFB00EB800000EB8000D9F804307A
:101E60009B00B0FBF3F7FFF731FB00EB800000EBCA
:101E70008000D9F804309B00B0FBF3F3A6FB0323EA
:101E80005B0908FB13731B013233A6FB0323C3F367
:101E900043131C44AC60BDE8F883FFF7FFFA00EB86
:101EA000800000EB8000D9F80440A400B0FBF4F4FB
:101EB000284EA6FB043464092401FFF7EFFA00EB77
:101EC000800000EB8000D9F804309B00B0FBF3F7F2
:101ED000FFF7E4FA00EB800000EB8000D9F8043053
:101EE0009B00B0FBF3F3A6FB03235B094FF06408F0
:101EF00008FB13731B013233A6FB03235B0903F0BA
:101F0000F0031C44FFF7CAFA00EB800000EB8000EE
:101F1000D9F804309B00B0FBF3F7FFF7BFFA00EBF2
:101F2000800000EB8000D9F804309B00B0FBF3F395
:101F3000A6FB03235B0908FB13731B013233A6FBCB
:101F40000323C3F343131C44AC60BDE8F88300BF14
:101F5000003801401F85EB512DE9F04105460E4642
:101F600090461C46FEF722FA0746B8F1000F26D02D
:101F700053E0B4F1FF3F22D024B1FEF717FAC01BA3
:101F800084421CD22A68D36823F08003D3602A6875
:101F9000D36823F02003D3602A68D36823F48073C6
:101FA000D3602A68536923F001035361012385F844
:101FB0003930002385F838300320BDE8F0812B68E4
:101FC0001B6836EA0303D4D10020BDE8F081B4F1E8
:101FD000FF3F22D024B1FEF7E9F9C01B84421CD296
:101FE0002A68D36823F08003D3602A68D36823F07B
:101FF0002003D3602A68D36823F48073D3602A68EF
:10200000536923F001035361012385F8393000231C
:1020100085F838300320BDE8F0812B681B6836EA6C
:102020000303D4D00020BDE8F08100BF58B310B541
:10203000044690F8393013F0FF0F04D1002380F8E4
:10204000383001F00FF8022384F839302268D36861
:1020500023F40053D3602046FFF7A0FE22681369E3
:1020600023F4904313612268536923F02A035361D8
:102070002268D36843F40053D3600020E063012357
:1020800084F8393010BD0120704700BF70B5044698
:102090000D461E4690F83930DBB2012B01D0222BC1
:1020A0005AD1002D5AD0002A5AD094F83830012B3A
:1020B00058D0012384F838300023E36394F8393092
:1020C000DBB2222B03D1322384F8393002E0122311
:1020D00084F83930A284E28423E0013BE384A368DE
:1020E000B3F5805F12D13346002280212046FFF7EE
:1020F00033FF002838D122682B88C3F308035360CC
:1021000023690BB902350CE001350AE033460022A1
:1021100080212046FFF720FF40BB23682A785A60C1
:102120000135E38C002BD8D13346002240212046D4
:10213000FFF712FF0346D8B994F83920D2B2322AF9
:1021400003D1222284F8392002E0012284F83920C8
:10215000002284F838200CE002230AE0012308E082
:10216000012306E0022304E0032302E0032300E04E
:102170000323184670BD00BFFEE700BF08B50D4B36
:102180001B6813B90C4A0B4B1A600A4B1A68C31C24
:1021900023F00303134409498B4206D903F004F8E2
:1021A0000C2303604FF0FF3008BD02490B6010465E
:1021B00008BD00BF9C020020201F0020004C002012
:1021C00001230360014B0B60704700BF0400002037
:1021D0000FB400B583B004AB53F8042B01938021F6
:1021E000064803F0C3FC002803DD0146034800F065
:1021F00007F803B05DF804EB04B07047A4020020B8
:102200004FF0FF30704700BF08B500F087F8024B71
:10221000024A9A6008BD00BF00ED00E0000000081F
:1022200008B500F0A1F808BDF8B504460D461746FC
:102230001E462648FFF7CCFF21682548FFF7C8FF58
:1022400061682448FFF7C4FFA1682348FFF7C0FF77
:10225000E1682248FFF7BCFF21692148FFF7B8FF7A
:1022600061692048FFF7B4FFA1691F48FFF7B0FF7D
:10227000E1691E48FFF7ACFF1D48FFF7A9FF29469B
:102280001C48FFF7A5FF1C4CE16A1C48FFF7A0FFA4
:10229000216B1B48FFF79CFFE16B1A48FFF798FF83
:1022A00015F0800F03D039461748FFF791FF15F45A
:1022B000004F03D031461548FFF78AFF1448FFF757
:1022C00087FF06991348FFF783FFF8BD2C730008BA
:1022D0003C7300084C7300085C7300086C730008C2
:1022E0007C7300088C7300089C730008AC730008B2
:1022F000BC730008C873000800ED00E0D873000844
:10230000E8730008F87300080874000818740008DF
:102310002874000830740008FEE700000F4B1A68AC
:1023200042F001021A6059680D4A0A405A601A6860
:1023300022F0847222F480321A601A6822F4802219
:102340001A605A6822F4FE025A604FF41F029A6023
:102350004FF00062034B9A60704700BF00100240CC
:102360000000FFF800ED00E01F4B5B6803F00C037A
:10237000042B06D0082B08D03BBB1C4A1C4B1A6010
:1023800026E01A4A1A4B1A6022E0174A536852682C
:10239000C3F38343023312F4803F05D1154A02FB95
:1023A00003F3134A136013E00F4A526812F4003F1C
:1023B00005D0104A02FB03F30D4A136008E00B4AF4
:1023C00002FB03F30A4A136002E0084A084B1A6052
:1023D000054B5B68C3F30313074AD15C044A1368D7
:1023E000CB401360704700BF0010024000127A001B
:1023F0000C00002000093D00747400082DE9F04134
:1024000088B02B4B9A6942F010029A619A6902F0E7
:1024100010020192019A9A6942F004029A619A6943
:1024200002F004020292029A9A6942F008029A614A
:102430009B6903F008030393039BDFF8808000226D
:102440004FF460414046FEF7D9FB1A4E002252215C
:102450003046FEF7D3FB002201213046FEF7CEFBCB
:1024600001240494144F002241F223013846FEF760
:10247000C5FB4FF46043049305940225079504A916
:102480004046FEF7CFFA522304930594079504A91A
:102490003046FEF7C7FA41F22303049305940795EB
:1024A00004A93846FEF7BEFA08B0BDE8F08100BFC7
:1024B0000010024000080140000C014000100140E3
:1024C0002DE9F0438FB0B14D284603F01BFBB04C13
:1024D0004FF0FF3382B229462046FFF7D7FDAD4DBE
:1024E000284603F00FFB4FF0FF3382B22946204607
:1024F000FFF7CCFD4FF47A720021A748FEF762F98E
:10250000B0B1A64D284603F0FDFA4FF0FF3382B27A
:1025100029462046FFF7BAFD9E4D284603F0F2FA01
:102520004FF0FF3382B229462046FFF7AFFD28E186
:10253000994B5B6B1B7DFF2B00F01B81AA2B00F0DE
:102540001A814A4618E100230A22954995480068F5
:1025500001F0E4F918B3924B1A68C2F30743013B48
:10256000914941F82320914E9149304603F0A6FA53
:10257000904F384603F0C6FA854D4FF6FF7382B28E
:1025800039462846FFF782FD8B4803F0BBFA4FF629
:10259000FF7382B231462846FFF778FD0AE0874D87
:1025A000284603F0AFFA4FF6FF7382B22946784807
:1025B000FFF76CFD013C00E00924002CC3DA7A49E6
:1025C0004B680A68794C486A0790086A0690C8699F
:1025D0000590886904904869039008690290C8686A
:1025E0000190896800917649204603F067FA4FF61A
:1025F000FF73412221466648FFF748FDC846002682
:10260000B2E0654C236B01221A75216B664B53F8BF
:102610002620120C4A75216B53F82620120A8A755F
:10262000226B53F82630D375236B00251D76236B60
:102630005D76236B9D76236BDD76564F384603F02F
:1026400061FA4FF0FF3382B239465148FFF71EFD61
:102650002A4629462046FEF7B5F8B0B1594D28461E
:1026600003F050FA4A4C4FF0FF3382B2294620461D
:10267000FFF70CFD384603F045FA4FF0FF3382B206
:1026800039462046FFF702FD09E0434B5B6B1B7D9B
:10269000FF2B03D00022AA2B01D16DE0C8460521F3
:1026A0003D48FDF7ADFF012816D1474803F02AFA4F
:1026B000374C4FF0FF3382B244492046FFF7E6FC27
:1026C000344D284603F01EFA4FF0FF3382B22946FC
:1026D0002046FFF7DBFC42E0032817D13C4D28469B
:1026E00003F010FA2A4C4FF0FF3382B229462046FD
:1026F000FFF7CCFC274D284603F004FA4FF0FF33D8
:1027000082B229462046FFF7C1FC28E038BB314D94
:10271000284603F0F7F91E4C4FF0FF3382B22946EA
:102720002046FFF7B3FC1C4B1B6BDA7D2A4909A836
:1027300003F0C4F909A803F0E5F94FF0FF3382B2C2
:1027400009A92046FFF7A2FC124D284603F0DAF94A
:102750004FF0FF3382B229462046FFF797FC012154
:102760001E48FEF751FA0136092E7FF74AAFC146DF
:1027700003E0FF2200E000229146B9F1FF0F3FF491
:102780001BAF0A2001F0E2FB9DE600BF8C7400083D
:10279000681D002054760008281D00209874000849
:1027A000B01D0020A8030020240300205C1E002090
:1027B000B0740008B8740008C0740008CC74000835
:1027C000E8740008187500083075000844750008A2
:1027D0005875000860750008707500080008014011
:1027E00008B50022FEF70AFA08BD00BF08B50122AD
:1027F000FEF704FA08BD00BFF8B506460F46FFF71E
:10280000EFFF0A20FDF7D8FD094D0A4C3C230122B9
:1028100029462046FEF7E4FE3C230122A918204663
:10282000FEF7DEFE39463046FFF7E0FFF8BD00BF99
:1028300054000020C41C00202DE9F04788B08046D9
:10284000894616461F46109D002406940794FFF7FC
:10285000C7FF3C23012280498048FEF7C1FE08E003
:102860003C23012206A921447C48FFF739F90134B1
:10287000E4B2072CF4D949464046FFF7B7FF9DF86C
:102880001820774CE2709DF819309DF81A0040EA44
:102890000321490821809DF81BE09DF81CC04CEAEB
:1028A0000E214908A1809DF81D109DF81E9049EA4F
:1028B0000128A4F806809DF81FA084F802A0DFF884
:1028C000D881CDF814A0CDF810900391CDF808C0B0
:1028D000CDF804E000906349404603F0EFF83C2354
:1028E000502241466048FFF7D1FB208802F016F9DC
:1028F0004FA3D3E9002302F087F94FA3D3E90023C4
:1029000002F0ACFADFF89481C8E900014CA3D3E9E6
:10291000002302F0A3FA01F041FD4BA3D3E9002309
:1029200002F09CFA4AA3D3E9002301F0BBFF024660
:102930000B4600204D4902F091FA00224C4B02F068
:1029400063F94C4BC3E900010022494BD8E900016F
:1029500002F05AF9C8E900012388013B9BB247F60F
:10296000FD7293420AD87300C3F11B03FF22FA548D
:10297000C6F10D06202307F816300CE047F6FD726D
:10298000934208D97300C3F11B030022FA54C6F125
:102990000D0607F81620324B1B88374C0293DFF8E0
:1029A000FC90D9E90023CDE900236A1C3349204675
:1029B00003F084F82C4E3C231A4621463046FFF79C
:1029C00065FB2C4BD3E9000102F0CEFB80B2DFF8AF
:1029D000D0802B4B53F825301843C8F80000294FFE
:1029E000C5EB85739B002433F850EC07641B64002F
:1029F0001234D9E9000102F0B7FB234B185300232E
:102A00000A2241462148006800F0F2FEC5F109059E
:102A10001F4C57F825201F49204603F04FF83C2350
:102A20001A4621463046FFF731FB08B0BDE8F08773
:102A300000000000C0AF1C4100000000C0FFDF40EC
:102A4000000000000088C3400000000000D6AA403B
:102A500083DBB5DCE1796B3FA4030020C41C0020BC
:102A60001C1D002074750008681D00200000F03F48
:102A700000005940801C0020881C0020A875000818
:102A8000100000202403002090030020A803002051
:102A9000E01E0020CC7500080C1E0020A81D0020A0
:102AA000241D002070B582B001F04EF906460924BD
:102AB0001AE01F4B33F814101E4B53F824000094F7
:102AC0001D4B2246FFF7B8FE1C4B1A6801321A60F4
:102AD0001B4D1C49284602F0F1FF3C231E222946CB
:102AE0001948FFF7D3FA013C002CE2DA0A231C2232
:102AF00011491648FEF774FD114C1549204602F0A5
:102B0000DDFF114D3C231E2221462846FFF7BEFA69
:102B100001F01AF9034632460E49204602F0CEFF74
:102B20003C231E2221462846FFF7B0FABCE700BF2F
:102B30009C00002074000020580000208C0300201E
:102B40005C1E0020E4750008681D0020B41D0020F4
:102B5000F475000808760008FEE700BF00B58BB0EA
:102B60002348244B0363244B4363244B0360022319
:102B7000436000238360C3604FF48032026143618D
:102B80008361C361036243628362C362FDF7A2FC97
:102B900020B140F2F6211A48FFF7DEFF1448036B1C
:102BA00065221A60026B00239360026BD360026B94
:102BB0000821116105930693012207924FF44A619F
:102BC000009101934FF6E37102914FF6F871039172
:102BD000049308920E2309936946FDF7FBFB20B18D
:102BE00040F211310648FFF7B7FF0BB05DF804FB68
:102BF000281D0020700300204C03002000640040CA
:102C00001C76000808B50B480B4B03600B4B436068
:102C100000238360C36003610C2242618361C3614E
:102C2000FFF704FA20B140F252310548FFF794FF54
:102C300008BD00BF681D00200038014020A107002A
:102C40001C76000808B50B480B4B03600B4B436028
:102C500000238360C36003610C2242618361C3610E
:102C6000FFF7E4F920B140F265310548FFF774FF42
:102C700008BD00BFA01E00200044004020A10700A6
:102C80001C76000808B51048104B03604FF482739F
:102C9000436000238360C36002220261012242611B
:102CA0004FF4007282612822C26103624362836230
:102CB0000A23C362FFF72CF820B140F23F310448E9
:102CC000FFF74AFF08BD00BFC41C002000380040C9
:102CD0001C76000808B51048104B03604FF482734F
:102CE00043604FF4004383600023C360022202610B
:102CF000012242614FF400728261C3610362436248
:102D000083620A23C362FFF703F820B14FF44A71CC
:102D10000348FFF721FF08BDB41D0020003001402B
:102D20001C76000800B591B00223069301230A9394
:102D300010230B9300230D9306A8FDF777FF20B116
:102D40004FF430711448FFF707FF0F230193002160
:102D5000029103914FF480630493059101A8FEF75B
:102D6000A5FA20B140F2CE210B48FFF7F5FEFEF7A1
:102D70008FFB0A4BA3FB00308009FDF72DFE0420DA
:102D8000FDF740FE00220F214FF0FF30FDF7F2FD6E
:102D900011B05DF804FB00BF1C760008D34D621033
:102DA00030B587B0FDF7E8FAFFF7BCFF394B9A69F9
:102DB00042F004029A619B6903F004030593059BAA
:102DC000FFF71CFBFFF7CAFEFFF71CFFFFF73AFFF8
:102DD000FFF758FFFFF77EFF2F4901234B608B6001
:102DE0000322CA600B602D48FDF71CFE2C4C2046C8
:102DF00002F088FE4FF0FF3382B221462948FFF7E8
:102E000045F900240BE0284B33F81410274B53F8F6
:102E10002400FFF7F1FC3220FDF7CEFA0134092C33
:102E2000F1DD234C204602F06DFE4FF0FF3382B2FD
:102E300021461C48FFF72AF90A231C221D491E4877
:102E4000FEF7CEFB4FF47A70FDF7B6FA00220421AC
:102E50000A2000F0A9FC194B186000240394029486
:102E600001940225009523464FF4807214491548B9
:102E700000F0B0FE039402940194009523464FF4B1
:102E800080721149114800F0A5FE00F027FF07B03D
:102E900030BD00BF00100240AC030020000801401C
:102EA0002C760008681D00209C0000207400002083
:102EB0004076000838000020B41D0020A803002040
:102EC00058760008C124000868760008A52A000882
:102ED00000B583B0204B9A6942F001029A619B6968
:102EE00003F001030193019B0320FDF731FD002254
:102EF00011466FF00B00FDF73DFD002211466FF00B
:102F00000A00FDF737FD002211466FF00900FDF7BA
:102F100031FD002211466FF00400FDF72BFD002269
:102F200011466FF00300FDF725FD002211466FF0FA
:102F30000100FDF71FFD002211464FF0FF30FDF7A5
:102F400019FD064A536823F0E06343F000735360B1
:102F500003B05DF804FB00BF001002400000014018
:102F60000268184B9A422BD110B586B003F5D633C0
:102F7000DA6942F00072DA61DB6903F000730193F1
:102F8000019B4FF4807302930023039304930E4C30
:102F900002A92046FDF746FD4FF400730293022379
:102FA00003930323059302A92046FDF73BFD074A3F
:102FB000536823F4C04343F48043536006B010BD0C
:102FC000704700BF00640040000C01400000014059
:102FD00010B586B003681E4A934214D11D4B9A69FE
:102FE00042F480529A619B6903F480530093009BE2
:102FF000A0230293022303930323059302A91648F7
:10300000FDF710FD22E0154A93421FD1114BDA69FA
:1030100042F48042DA61DB6903F480430193019B4F
:103020004FF42043029302230393032305930C4C94
:1030300002A92046FDF7F6FC4FF4804302930023DB
:103040000393049302A92046FDF7ECFC06B010BDE3
:1030500000300140001002400008014000380040EC
:10306000000C014010B586B00368244A934220D179
:10307000234B9A6942F480429A619B6903F480432E
:103080000093009B4FF400730293022303930323E6
:1030900005931C4C02A92046FDF7C4FC4FF4806345
:1030A000029300230393049302A92046FDF7BAFC80
:1030B00022E0154A93421FD1114BDA6942F40032E3
:1030C000DA61DB6903F400330193019B4FF4007371
:1030D000029302230393032305930A4C02A920467B
:1030E000FDF7A0FC4FF48063029300230393049345
:1030F00002A92046FDF796FC06B010BD003801403D
:10310000001002400008014000440040704700BF2A
:10311000FEE700BFFEE700BFFEE700BFFEE700BF1F
:10312000704700BF08B5FDF739F900F01BFA08BD7C
:1031300008B54FF40050FDF76DFD08BD134A12F0BD
:10314000070F08D0D11D21F00701C1F5BB53103383
:1031500013440A4601E041F270730D4802600021F9
:1031600041601344083B23F007030A480360596099
:103170001960991A51601360074B1960074B196069
:103180004FF00042064B1A60704700BFCC0300208E
:10319000C4030020C0030020401B0020BC0300200B
:1031A0003C1B0020124A00E01A4613688342FBD3FE
:1031B00010B451685418A04203D1406801445160D2
:1031C000104641684418A3420CD10A4C2468A3421B
:1031D00006D05B681944416013681B68036002E015
:1031E000046000E00360904200D0106010BC7047A3
:1031F000C4030020C003002070B5044600F09CFD0D
:10320000304B1B680BB9FFF799FF2F4B1B681C4213
:1032100047D164B1083414F0070F08D024F0070434
:10322000083404F0070313B100F0C2F8FEE7002CE5
:1032300039D0264B1B689C4237D8254B1D6801E0CE
:103240002B4615466A68944202D92A68002AF7D1AB
:103250001C4A126895422AD01E6808362A681A60ED
:103260006B681B1B102B0AD9281910F0070F02D00E
:1032700000F09EF8FEE743606C60FFF793FF6A681A
:1032800012490B689B1A0B60124909688B4201D2E4
:1032900010490B600C4B1B681A436A6000232B60BB
:1032A00006E0002604E0002602E0002600E00026FA
:1032B00000F0DEFD16F0070F02D000F079F8FEE70F
:1032C000304670BDC00300203C1B0020BC03002022
:1032D000C4030020401B002038B338B50446A0F1D9
:1032E000080550F8043C114A126813EA020002D1A2
:1032F00000F05EF8FEE754F8081C11B100F058F831
:10330000FEE788B181B923EA020344F8043C00F0E7
:1033100013FD54F8043C064A11680B441360284618
:10332000FFF740FF00F0A4FD38BD70473C1B0020B4
:10333000BC03002006480068006880F3088862B675
:1033400061B6BFF34F8FBFF36F8F00DF00BF000088
:1033500008ED00E04FF0807340F8043C40F8081C92
:10336000034B40F80C3C40F8202C4038704700BF1D
:10337000C1330008074B19680868B0E8F00F80F304
:103380000988BFF36F8F4FF0000080F311884EF073
:103390000D0E7047041C00204FF08052034B1A6042
:1033A000BFF34F8FBFF36F8F704700BF04ED00E096
:1033B000EFF311804FF0500181F311887047002026
:1033C00008B5054B1B68B3F1FF3F02D0FFF7F0FFD4
:1033D000FEE7FFF7EDFFFEE7B000002008B5FFF7BE
:1033E000E7FF094A136801331360BFF34F8FBFF340
:1033F0006F8F012B07D1054B1B6813F0FF0F02D015
:10340000FFF7D6FFFEE708BDB000002004ED00E0A6
:1034100080F31188704700BF08B5074B1B6813B9CC
:10342000FFF7C6FFFEE7013B034A136013B9002014
:10343000FFF7EEFF08BD00BFB0000020EFF30980EA
:10344000BFF36F8F0D4B1A6820E9F00F10602DE964
:1034500008404FF0500080F3118800F0DFFD4FF07E
:10346000000080F31188BDE8084019680868B0E8DA
:10347000F00F80F30988BFF36F8F7047041C0020A2
:1034800008B5FFF795FF00F065FC18B14FF08052CA
:10349000024B1A600020FFF7BBFF08BD04ED00E0FF
:1034A000064B1B68064AA2FB03239B09013B054A06
:1034B00013600722044B1A60704700BF0C00002005
:1034C000D34D621014E000E010E000E000B583B0DE
:1034D0001F4B1A78D2B20192FF221A701B78DBB20E
:1034E0008DF803309DF8033003F05003194A137030
:1034F0000722194B1A6009E0174A1368013B136051
:103500009DF803305B00DBB28DF803309DF803308B
:1035100013F0800FF0D1104A13681B0203F4E0632C
:103520001360019BDBB20A4A13700C4B1A6842F419
:1035300070021A601A6842F070421A60FFF7B0FF1A
:103540000022074B1A60FFF7F5FEFFF739FF00BFB7
:1035500000E400E0441B0020481B002020ED00E0B8
:10356000B000002008B500F059FE012801D0FFF797
:1035700087FF08BD00F1080343604FF0FF3282600F
:10358000C360036100230360704700BF0023036131
:10359000704700BF43684B609A688A609A685160C0
:1035A00099600861036801330360704730B40D68A7
:1035B000B5F1FF3F01D1026907E000F1080200E028
:1035C0001A4653681C68A542FAD253684B6099604A
:1035D0008A605160086103680133036030BC704742
:1035E00003694268816891608268416851605A68E5
:1035F000904201D182685A60002202611868013845
:103600001860704710B50446FFF7E8FEA26BE36B45
:103610009A4201D1012400E00024FFF7FDFE20467C
:1036200010BD00BF10B50446FFF7D8FEA36B0BB961
:10363000012400E00024FFF7EFFE204610BD00BF8C
:1036400038B504461546026C3AB903685BBB40685E
:1036500000F048FE002363602CE06DB9806801F043
:10366000A9FDA268236C1344A360626893421CD333
:103670002368A36000201DE0C06801F09BFD236C5F
:103680005B42E2681A44E26021688A4202D26268C0
:103690001344E360022D0AD1A36B53B1A36B013B2A
:1036A000A363002006E0002004E0002002E00020E8
:1036B00000E00020A36B0133A36338BD026C72B13C
:1036C00010B50346C4681444C4604068844201D302
:1036D0001868D8600846D96801F06CFD10BD7047C5
:1036E00010B50446FFF77AFE0BE0636A63B104F19C
:1036F000240000F009FD08B100F08AFDA36C013B35
:10370000A364A36C002BF0DC4FF0FF33A364FFF73E
:1037100083FEFFF763FE0BE0236963B104F1100041
:1037200000F0F2FC08B100F073FD636C013B6364D0
:10373000636C002BF0DC4FF0FF336364FFF76CFE2B
:1037400010BD00BF38B510B9FFF732FEFEE70D46D9
:103750000446FFF743FE2168E26B236C03FB021073
:1037600060600020A063A160013A02FB0313E360E4
:103770004FF0FF336364A36455B9236983B104F147
:10378000100000F0C1FC01280AD1FFF705FE07E098
:1037900004F11000FFF7EEFE04F12400FFF7EAFE4B
:1037A000FFF73AFE012038BD70B510B9FFF700FEF3
:1037B000FEE70D46064619B101FB00F0013000E0BE
:1037C00000204C30FFF718FD044658B10DB92060B9
:1037D00002E000F14C030360E6632564012120460A
:1037E000FFF7B0FF14B9FFF7E3FDFEE7204670BD19
:1037F000F0B585B0019210B9FFF7DAFDFEE70E468D
:103800001D46044619B9036C1BB9012302E00123CC
:1038100000E0002313B9FFF7CBFDFEE7022D03D133
:10382000E36B012B02D102E0012300E0002313B976
:10383000FFF7BEFDFEE700F0F1FC18B9019B1BB9D4
:10384000012302E0012300E0002313B9FFF7B0FDDC
:10385000FEE70027FFF7C2FDA26BE36B9A4201D39C
:10386000022D16D12A4631462046FFF7E9FE636A4B
:1038700043B104F1240000F047FC012805D1FFF713
:103880008BFD02E008B1FFF787FDFFF7C5FD0120C2
:1038900042E0019B1BB9FFF7BFFD00203CE01FB9D0
:1038A00002A800F071FC0127FFF7B6FD00F044FA12
:1038B000FFF794FD636CB3F1FF3F01D10023636414
:1038C000A36CB3F1FF3F01D10023A364FFF7A4FD74
:1038D00001A902A800F068FCC0B92046FFF792FEDB
:1038E00070B1019904F1100000F0DCFB2046FFF7F5
:1038F000F7FE00F0BDFA0028ACD1FFF74DFDA9E7B7
:103900002046FFF7EDFE00F0B3FAA3E72046FFF7ED
:10391000E7FE00F0ADFA002005B0F0BDF0B585B0CF
:10392000019210B9FFF744FDFEE70D461F4604461D
:1039300019B9036C1BB9012302E0012300E0002345
:1039400013B9FFF735FDFEE700F068FC18B9019BDD
:103950001BB9012302E0012300E0002313B9FFF7A4
:1039600027FDFEE70026FFF739FDA36B33B3E668BA
:1039700029462046FFF7A2FE97B9A36B013BA3633C
:10398000236813B900F0FCFC6060236993B104F173
:10399000100000F0B9FB01280CD1FFF7FDFC09E095
:1039A000E660636A33B104F1240000F0ADFB08B1B6
:1039B000FFF7F2FCFFF730FD01204BE0019B1BB944
:1039C000FFF72AFD002045E01EB902A800F0DCFB4D
:1039D0000126FFF721FD00F0AFF9FFF7FFFC636C54
:1039E000B3F1FF3F01D100236364A36CB3F1FF3F48
:1039F00001D10023A364FFF70FFD01A902A800F085
:103A0000D3FB08BB2046FFF70DFEB8B1236833B9DE
:103A1000FFF7E4FC606800F011FCFFF7FDFC019982
:103A200004F1240000F03EFB2046FFF759FE00F0B1
:103A30001FFA002897D1FFF7AFFC94E72046FFF765
:103A40004FFE00F015FA8EE72046FFF749FE00F022
:103A50000FFA002005B0F0BD0A4B1B681B680BB9BC
:103A6000012300E0002323B14FF0FF32064B1A6020
:103A70007047044B1B68DB68DB685A68024B1A60AE
:103A8000704700BF4C1B0020081C002038B50C46B6
:103A900019B98000FFF7B0FB044654B15420FFF77A
:103AA000ABFB054608B1046304E02046FFF714FCB5
:103AB00000E00025284638BD10B50446006BFFF72E
:103AC0000BFC2046FFF708FC10BD00BF70B5044694
:103AD0001546002306E0C856E21882F83400CA569C
:103AE00012B101330F2BF6D9002384F84330062D91
:103AF00000D90625E56265640026A664201DFFF74F
:103B000045FD04F11800FFF741FD2461C5F10705EB
:103B1000A5616462E66484F8506070BD38B5002425
:103B200006E014200E4B00FB0430FFF723FD0134A8
:103B3000062CF6D90B4D2846FFF71CFD0A4C2046F3
:103B4000FFF718FD0948FFF715FD0948FFF712FDBB
:103B50000848FFF70FFD084B1D60084B1C6038BD7F
:103B6000701B0020301C0020441C0020181C00206A
:103B7000581B0020581C00204C1B0020141C002047
:103B800010B50F4B1B6858600E4B1B68984207D24C
:103B90000D4B18680A4B19680431FFF707FD10BD7B
:103BA00004460A4B1868064B19680431FFF7FEFCFF
:103BB000074B1B689C4201D2054B1C6010BD00BF27
:103BC000041C0020101C0020141C00204C1B002092
:103BD000081C00202DE9F04F83B00C9EDDF83480E6
:103BE00010B9FFF7E5FBFEE78B4617469A4681467C
:103BF000062E02D9FFF7DCFBFEE70E991046FFF711
:103C000045FF044600284BD0036B07F18045013D7A
:103C100003EB850323F0070500970F9B32465946B7
:103C2000FFF754FF524649462846FFF793FB2060B2
:103C3000B8F1000F01D0C8F80040FFF7CFFB214AD0
:103C4000136801331360204B1B683BB91E4B1C608B
:103C50001368012B0CD1FFF761FF09E01B4B1B68B8
:103C600033B9194B1B68DB6A9E4201D3164B1C60AB
:103C7000174A136801331360E36A012505FA03F05C
:103C800014490A6802430A6003EB83039A00211D6A
:103C900011481044FFF77EFCFFF7BEFB2C4601E005
:103CA0004FF0FF34012C09D1084B1B6833B1064B90
:103CB0001B68DB6A9E4201D9FFF76EFB204603B00A
:103CC000BDE8F08F001C0020041C0020501B0020C9
:103CD0002C1C00206C1C0020701B002000B585B03F
:103CE0000023039302930193009380220D490E4811
:103CF000FFF770FF01280ED1FFF75AFB4FF0FF329C
:103D00000A4B1A6001220A4B1A600022094B1A6002
:103D1000FFF7DCFB03E010B9FFF74AFBFEE705B055
:103D20005DF804FBA476000805400008081C00208C
:103D3000501B0020101C0020024A1368013313603E
:103D4000704700BFFC1B0020014B1868704700BF84
:103D5000101C0020F8B53B4B1B68002B64D13A4B7C
:103D60001A6801321A601E6896B9384B1B681B68C6
:103D700013B1FFF71DFBFEE7344A1168344B186896
:103D800010601960334A136801331360FFF764FE53
:103D9000314B1B689E4203D200243AE0012400E02C
:103DA00000242A4B1B681B680BB9012300E0002389
:103DB00023B14FF0FF32284B1A602AE0234B1B68D7
:103DC000DB68DD686B689E4202D2234A136020E004
:103DD0002F1D3846FFF704FCAB6A1BB105F1180034
:103DE000FFF7FEFBEB6A012202FA03F11B480268AF
:103DF0000A43026003EB83039A00394618481044D3
:103E0000FFF7C8FBEA6A174B1B68DB6A9A42C5D208
:103E1000C7E7144B1B68DB6A03EB83039A00104B64
:103E20009B58012B06D806E00F4A13680133136034
:103E3000002400E001240D4B1B6803B1012420463F
:103E4000F8BD00BFFC1B0020101C00204C1B0020F4
:103E5000141C00200C1C0020081C00206C1C0020DE
:103E6000701B0020041C00206C1B0020701C002014
:103E700038B52E4B1B6813B9FFF79AFAFEE7FFF728
:103E8000ADFA2A4B1A68013A1A601B68002B46D11A
:103E9000274B1B682BBB002444E0264BDB68DC6807
:103EA00004F11800FFF79CFB251D2846FFF798FB3F
:103EB000E36A012202FA03F11F4802680A43026022
:103EC00003EB83039A0029461C481044FFF762FB6A
:103ED000E26A1B4B1B68DB6A9A4202D30122194B30
:103EE0001A60144B1B68002BD7D1174B1B6853B9B2
:103EF0000DE0FFF72FFF10B10122124B1A60124A9A
:103F00001368013B1360104B1B68002BF1D10D4B64
:103F10001B68012B05D1FFF73FFA012402E00024C2
:103F200000E00024FFF778FA204638BDFC1B002093
:103F3000001C0020181C00206C1C0020701B00209E
:103F4000041C0020701C00206C1B002010B510B356
:103F50000446134B1B6813B1FFF72AFAFEE7FFF77D
:103F6000EBFE104B1B681C440F4B18680430FFF726
:103F700037FB50B90C4B1B68DA6A012303FA02F2D3
:103F80000A490B6823EA02030B602046FFF7F8FD9D
:103F9000FFF76EFF00E0002008B9FFF7FDF910BD44
:103FA000FC1B0020101C0020041C00206C1C0020A6
:103FB00010B51BE0FFF7C0FE0F4B1C68FFF758FF62
:103FC000A4B1FFF70BFA0C4BDB68DC68201DFFF790
:103FD00007FB0A4A1368013B1360094A1368013B57
:103FE0001360FFF719FA2046FFF766FD044B1B68C4
:103FF000002BDFD110BD00BF581B0020001C00208B
:10400000541B002008B5FFF7D3FF034B1B68012B9F
:10401000F9D9FFF7C1F9F6E7701B002038B51C4B42
:104020001B681BB101221B4B1A6038BD0022194BC3
:104030001A60194B1B68B3FA83F3DBB2C3F11F0399
:1040400003EB83018A0015498A5812B9FFF7B0F9CA
:10405000FEE7124D9900CA1890002844426854683F
:10406000446019448A0008322A44944205D16068A9
:1040700003EB83018A002A44506003EB83039A0018
:10408000064B1A445368DA68054B1A6038BD00BF06
:10409000FC1B0020701C00206C1C0020701B0020EA
:1040A000041C002038B510B9FFF782F9FEE70C4672
:1040B000114D29681831FFF779FA28680430FFF7A5
:1040C0008FFA48B92B68DA6A012303FA02F20B4926
:1040D0000B6823EA02030B60B4F1FF3F06D1064BE5
:1040E000196804310648FFF755FA38BD054B1868C2
:1040F0002044FFF745FD38BD041C00206C1C002047
:10410000581C0020101C002038B5C368DC6814B9A6
:10411000FFF74EF9FEE704F118052846FFF760FAAD
:10412000134B1B68A3B9251D2846FFF759FAE36A0C
:10413000012202FA03F10F4802680A43026003EB0E
:1041400083039A0029460C481044FFF723FA03E042
:1041500029460A48FFF71EFAE26A094B1B68DB6A28
:104160009A4203D90120074B186038BD002038BDA2
:10417000FC1B00206C1C0020701B0020181C002061
:10418000041C0020701C002008B510B9FFF710F9BE
:10419000FEE7034A12680260024A1268426008BDE4
:1041A0000C1C0020101C002038B510B9FFF700F9D6
:1041B000FEE70D46044611B9FFF7FAF8FEE7FFF7F0
:1041C0000DF9114B19682A68B2F1FF3F13D020682E
:1041D0000E4B1B68984202D0636899420DD2636807
:1041E000C81A82420BD95B1A13442B602046FFF792
:1041F000CBFF002404E0002402E0012400E00124BD
:10420000FFF70AF9204638BD101C00200C1C0020C6
:104210000122014B1A607047701C0020054B1B687F
:1042200023B1054B1B681BB9022070470120704762
:1042300000207047501B0020FC1B002000284AD0A3
:1042400038B50246C36A24490968C96A8B4241D21B
:104250008169002905DB20490968C96AC1F10701A4
:104260008161506903EB830399001C4B1944884218
:1042700001D1012300E0002343B31446151D284655
:10428000FFF7AEF970B9E36A03EB83018A001349C3
:104290008A583AB9012202FA03F311490A6822EA5C
:1042A00003030B600C4B1B68DB6AE362012202FA1A
:1042B00003F10B4802680A43026003EB83039A0090
:1042C000294606481044FFF765F938BD024B1B68C4
:1042D000DB6AD36238BD7047041C0020701B0020CD
:1042E0006C1C002000283ED038B50446214B1B68CA
:1042F000984202D0FFF75CF8FEE7836C13B9FFF732
:1043000057F8FEE7013B8364C16A426C91422CD0AE
:104310006BBB051D2846FFF763F970B9E26A02EB33
:1043200082018B001449CB583BB9012303FA02F2F6
:1043300012490B6823EA02030B60636CE362C3F16A
:104340000702A261012404FA03F00C490A6802433F
:104350000A6003EB83039A00294607481044FFF7DD
:1043600019F9204638BD00207047002038BD0020D4
:1043700038BD00BF041C0020701B00206C1C0020F6
:10438000054B1B6823B1044B1A68936C013393648B
:10439000014B1868704700BF041C00202DE9F04154
:1043A0008AB004460D4600F07BF8374B064693F979
:1043B00000800F46B8F1FF3F0DD022462B46204625
:1043C000294600F0BBFE30B90022002320462946D2
:1043D00000F0AAFE20B1304639460AB0BDE8F081AF
:1043E0002A4B0890CDE90245CDE904450193B8F187
:1043F000000F19D1264F4FF0604620462946002273
:104400000023CDE9066700F067FE002834D00223C0
:104410000093684600F038FAA8B1089BC3B9DDE9FB
:1044200006010AB0BDE8F0811A4F00262046294651
:1044300000220023CDE9066700F04EFE68B102239A
:1044400098450093E5D100F0AFFE22230360E4E736
:1044500000F0AAFE089B0360E1E70123B8F1020F18
:1044600000930BD100F0A0FE212303600A4800F066
:104470000DFACDE90601D0E701230093684600F06C
:1044800003FA0028F2D1EDE7B4000020AC76000872
:10449000FFFFEFC70000F0FFBC7400080000000041
:1044A0002DE9F04FB1F5801F85B006460F460B464B
:1044B0005ADA024621F00044224300F0F780002936
:1044C000C0F279810022D64B00F09EFB0B460F46CE
:1044D000D44906468B426FF0350249DCC3F313051D
:1044E00005F5152404F6647404F4801E8EF07F51E3
:1044F00081F440111B15A3F2FF3341EA05079C1814
:1045000030460022C84B394604EB1E5400F0C8F96F
:10451000AB1CC3F31303022B82468B464FF0000201
:104520002FDC002300F0D8FD002800F0C880002C0C
:1045300000F04A81204600F001FBA5A3D3E9002347
:1045400006460F4600F060FBA3A3D3E90023044610
:104550000D463046394600F057FB02460B462046D2
:10456000294600F09FF909E0AE4900228B42B5DDF3
:1045700032463B463046394600F094F905B0BDE876
:10458000F08F4FF0804300F08DF902460B46504605
:10459000594600F063FC064620460F4600F0CEFA6E
:1045A0003246CDE900013B4630463946CDE9026747
:1045B00000F02AFB02460B468046894600F024FBA9
:1045C00087A3D3E9002306460F4600F01DFB86A310
:1045D000D3E9002300F066F932463B4600F014FBB5
:1045E00083A3D3E9002300F05DF932463B4600F097
:1045F0000BFB81A3D3E9002300F054F942464B465C
:1046000000F002FB7EA3D3E90023804689463046B2
:10461000394600F0F9FA7CA3D3E9002300F042F90F
:1046200032463B4600F0F0FA79A3D3E9002300F0CC
:1046300039F932463B4600F0E7FA0B460246494656
:10464000404600F02FF9A5F5C223C5F5D725A3F202
:104650007A4351351D43002D8046894656DD0022A0
:10466000724B5046594600F0CFFA52465B4600F076
:10467000CBFA06460F46002C68D132463B464046F0
:10468000494600F00FF9DDE9022300F0BDFA0246C9
:104690000B463046394600F003F902460B465046B9
:1046A000594600F0FDF805B0BDE8F08F0022002368
:1046B00000205F4900F0D2FB05B0BDE8F08F56A3A3
:1046C000D3E900235046594600F09EFA02460B46B5
:1046D0000020564900F0E4F8524606460F465B4675
:1046E0005046594600F090FA02460B46304639468D
:1046F00000F08AFA06460F46002C40F09B800246E6
:104700000B465046594600F0CBF837E7002C00F036
:10471000A5802FA3D3E90023DDE9000100F074FA9E
:1047200042464B4604460D465046594600F0B8F8FE
:10473000DDE9022300F068FA27A3D3E90023064647
:104740000F46DDE9000100F05FFA21E020A3D3E984
:104750000023DDE9000100F057FA32463B460446EB
:104760000D464046494600F09DF8DDE9022300F081
:104770004BFA19A3D3E9002380468946DDE90001FD
:1047800000F042FA02460B464046494600F08AF8DD
:1047900002460B463046394600F082F852465B46E8
:1047A00000F07EF802460B462046294600F078F8D5
:1047B00005B0BDE8F08F02460B4600F071F800220C
:1047C000002300F04BFBD9E600200021D6E600BF15
:1047D0000000E0FE422EE63F763C7935EF39EA3DB7
:1047E00044523EDF12F1C23FDE03CB966446C73F20
:1047F000599322942449D23F935555555555E53F39
:104800009FC678D0099AC33FAF788E1DC571CC3F43
:1048100004FA97999999D93F555555555555D53F0E
:1048200000005043FFFFEF7F0000F03F0000E03F3B
:10483000000050C3204600F081F90FA3D3E9002304
:104840008046894600F0E0F90DA3D3E90023044631
:104850000D464046494600F0D7F999E702460B4617
:104860005046594600F01CF8DDE9022300F0CCF96F
:1048700013E700BFAFF300800000E0FE422EE63FEA
:10488000763C7935EF39EA3D002070470020014938
:10489000704700BF0000F87F81F0004102E000BFD8
:1048A00083F0004330B54FEA41044FEA430594EAF0
:1048B000050F08BF90EA020F1FBF54EA000C55EA2B
:1048C000020C7FEA645C7FEA655C00F0E2804FEAFC
:1048D0005454D4EB5555B8BF6D420CDD2C4480EADE
:1048E000020281EA030382EA000083EA010180EA0E
:1048F000020281EA0303362D88BF30BD11F0004F5C
:104900004FEA01314FF4801C4CEA113102D0404291
:1049100061EB410113F0004F4FEA03334CEA1333CC
:1049200002D0524263EB430394EA050F00F0A780E4
:10493000A4F10104D5F1200E0DDB02FA0EFC22FADF
:1049400005F2801841F1000103FA0EF2801843FAD3
:1049500005F359410EE0A5F120050EF1200E012AC4
:1049600003FA0EFC28BF4CF0020C43FA05F3C01802
:1049700051EBE37101F0004507D54FF0000EDCF17B
:10498000000C7EEB00006EEB0101B1F5801F1BD324
:10499000B1F5001F0CD349085FEA30004FEA3C0C28
:1049A00004F101044FEA445212F5800F80F09A801E
:1049B000BCF1004F08BF5FEA500C50F1000041EB22
:1049C000045141EA050130BD5FEA4C0C404141EB26
:1049D000010111F4801FA4F10104E9D191F0000F4D
:1049E00004BF01460020B1FA81F308BF2033A3F1D0
:1049F0000B03B3F120020CDA0C3208DD02F1140CC7
:104A0000C2F10C0201FA0CF021FA02F10CE002F101
:104A10001402D8BFC2F1200C01FA02F120FA0CFCFA
:104A2000DCBF41EA0C019040E41AA2BF01EB045143
:104A3000294330BD6FEA04041F3C1CDA0C340EDC41
:104A400004F11404C4F1200220FA04F001FA02F384
:104A500040EA030021FA04F345EA030130BDC4F142
:104A60000C04C4F1200220FA02F001FA04F340EA37
:104A70000300294630BD21FA04F0294630BD94F0E8
:104A8000000F83F4801306BF81F480110134013DCF
:104A90004EE77FEA645C18BF7FEA655C29D094EA40
:104AA000050F08BF90EA020F05D054EA000C04BFBE
:104AB0001946104630BD91EA030F1EBF00210020A9
:104AC00030BD5FEA545C05D14000494128BF41F048
:104AD000004130BD14F580043CBF01F5801130BDAC
:104AE00001F0004545F0FE4141F470014FF0000037
:104AF00030BD7FEA645C1ABF194610467FEA655CE8
:104B00001CBF0B46024650EA013406BF52EA033589
:104B100091EA030F41F4002130BD00BF90F0000F77
:104B200004BF0021704730B54FF4806404F13204B3
:104B30004FF000054FF0000150E700BF90F0000F6C
:104B400004BF0021704730B54FF4806404F1320493
:104B500010F0004548BF40424FF000013EE700BF63
:104B600042004FEAE2014FEA31014FEA02701FBFF3
:104B700012F07F4393F07F4F81F06051704792F0C5
:104B8000000F14BF93F07F4F704730B54FF460743F
:104B900001F0004521F0004120E700BF50EA01028A
:104BA00008BF704730B54FF000050AE050EA010237
:104BB00008BF704730B511F0004502D5404261EBA7
:104BC00041014FF4806404F132045FEA915C3FF4E8
:104BD000DCAE4FF003025FEADC0C18BF03325FEA81
:104BE000DC0C18BF033202EBDC02C2F1200300FA36
:104BF00003FC20FA02F001FA03FE40EA0E0021FA5B
:104C000002F11444C1E600BF70B54FF0FF0C4CF444
:104C1000E06C1CEA11541DBF1CEA135594EA0C0FFA
:104C200095EA0C0F00F0DEF82C4481EA030621EA35
:104C30004C5123EA4C5350EA013518BF52EA033570
:104C400041F4801143F4801338D0A0FB02CE4FF022
:104C50000005E1FB02E506F00042E0FB03E54FF052
:104C60000006E1FB03569CF0000F18BF4EF0010E4A
:104C7000A4F1FF04B6F5007F64F5407404D25FEA46
:104C80004E0E6D4146EB060642EAC62141EA5551F9
:104C90004FEAC52040EA5E504FEACE2EB4F1FD0C3B
:104CA00088BFBCF5E06F1ED8BEF1004F08BF5FEAB9
:104CB000500E50F1000041EB045170BD06F000466B
:104CC00046EA010140EA020081EA0301B4EB5C0418
:104CD000C2BFD4EB0C0541EA045170BD41F4801110
:104CE0004FF0000E013C00F3AB8014F1360FDEBF35
:104CF000002001F0004170BDC4F10004203C35DA11
:104D00000C341BDC04F11404C4F1200500FA05F393
:104D100020FA04F001FA05F240EA020001F0004234
:104D200021F0004110EBD37021FA04F642EB0601AA
:104D30005EEA430E08BF20EAD37070BDC4F10C04D4
:104D4000C4F1200500FA04F320FA05F001FA04F298
:104D500040EA020001F0004110EBD37041F1000184
:104D60005EEA430E08BF20EAD37070BDC4F120058F
:104D700000FA05F24EEA020E20FA04F301FA05F2F7
:104D800043EA020321FA04F001F0004121FA04F29F
:104D900020EA020000EBD3705EEA430E08BF20EA6F
:104DA000D37070BD94F0000F0FD101F000464000A9
:104DB00041EB010111F4801F08BF013CF7D041EA2B
:104DC000060195F0000F18BF704703F0004652002F
:104DD00043EB030313F4801F08BF013DF7D043EA00
:104DE0000603704794EA0C0F0CEA135518BF95EAB6
:104DF0000C0F0CD050EA410618BF52EA4306D1D13D
:104E000081EA030101F000414FF0000070BD50EA5B
:104E1000410606BF1046194652EA430619D094EAE5
:104E20000C0F02D150EA013613D195EA0C0F05D1CF
:104E300052EA03361CBF104619460AD181EA030123
:104E400001F0004141F0FE4141F470014FF00000DB
:104E500070BD41F0FE4141F4780170BD70B54FF076
:104E6000FF0C4CF4E06C1CEA11541DBF1CEA1355F6
:104E700094EA0C0F95EA0C0F00F0A7F8A4EB0504D8
:104E800081EA030E52EA03354FEA013100F08880CF
:104E90004FEA03334FF0805545EA131343EA126398
:104EA0004FEA022245EA111545EA10654FEA00264D
:104EB0000EF000419D4208BF964244F1FD0404F506
:104EC000407402D25B084FEA3202B61A65EB030562
:104ED0005B084FEA32024FF480104FF4002CB6EB1F
:104EE000020E75EB030E22BFB61A754640EA0C009F
:104EF0005B084FEA3202B6EB020E75EB030E22BFDF
:104F0000B61A754640EA5C005B084FEA3202B6EB1F
:104F1000020E75EB030E22BFB61A754640EA9C00DE
:104F20005B084FEA3202B6EB020E75EB030E22BFAE
:104F3000B61A754640EADC0055EA060E18D04FEA6C
:104F4000051545EA16754FEA06164FEAC30343EA0C
:104F500052734FEAC2025FEA1C1CC0D111F4801FD9
:104F60000BD141EA00014FF000004FF0004CB6E7D2
:104F700011F4801F04BF01430020B4F1FD0C88BF71
:104F8000BCF5E06F3FF6AFAEB5EB030C04BFB6EB7C
:104F9000020C5FEA500C50F1000041EB045170BD6F
:104FA0000EF0004E4EEA113114EB5C04C2BFD4EB9C
:104FB0000C0541EA045170BD41F480114FF0000E20
:104FC000013C90E645EA060E8DE60CEA135594EA9C
:104FD0000C0F08BF95EA0C0F3FF43BAF94EA0C0F9F
:104FE0000AD150EA01347FF434AF95EA0C0F7FF414
:104FF00025AF104619462CE795EA0C0F06D152EA68
:1050000003353FF4FDAE1046194622E750EA41064B
:1050100018BF52EA43067FF4C5AE50EA41047FF45C
:105020000DAF52EA43057FF4EBAE12E74FF0FF3CC1
:1050300006E000BF4FF0010C02E000BF4FF0010C92
:105040004DF804CD4FEA410C7FEA6C5C4FEA430C0B
:1050500018BF7FEA6C5C1BD001B050EA410C0CBF5A
:1050600052EA430C91EA030F02BF90EA020F0020BC
:10507000704710F1000F91EA030F58BF994208BF23
:1050800090422CBFD8176FEAE37040F001007047E0
:105090004FEA410C7FEA6C5C02D150EA013C07D137
:1050A0004FEA430C7FEA6C5CD6D152EA033CD3D082
:1050B0005DF8040B704700BF8446104662468C467C
:1050C0001946634600E000BF01B5FFF7B7FF0028AF
:1050D00048BF10F1000F01BD4DF808EDFFF7F4FFD8
:1050E0000CBF012000205DF808FB00BF4DF808ED63
:1050F000FFF7EAFF34BF012000205DF808FB00BF86
:105100004DF808EDFFF7E0FF94BF012000205DF8A7
:1051100008FB00BF4DF808EDFFF7CEFF94BF01205C
:1051200000205DF808FB00BF4DF808EDFFF7C4FF55
:1051300034BF012000205DF808FB00BF4FEA410C9E
:105140007FEA6C5C02D150EA013C0AD14FEA430C81
:105150007FEA6C5C02D152EA033C02D14FF00000BE
:1051600070474FF0010070474A0011D212F500124B
:1051700011D20DD56FF47873B3EB62520ED44FEAAF
:10518000C12343F0004343EA505323FA02F070472F
:105190004FF00000704750EA013002D14FF0FF306D
:1051A00070474FF000007047014B1868704700BF10
:1051B0001801002010B5431E0A44914204D011F892
:1051C000014B03F8014FF8E710BD03460244934238
:1051D00002D003F8011BFAE770472DE9F04788B0C9
:1051E000149F002B1E461299B8BF03F1004327F00D
:1051F0002007B6BF1E4600232D23462F1446109DC0
:10520000DDF84CA00B7003D0452F03D1013501E030
:10521000032300E0022307AA049206AA03928DE862
:1052200028042246334600F03BFD472F804602D13A
:10523000119BDB0728D5462F08EB050911D198F8FB
:105240000030302B0AD10022002320463146FFF7E0
:1052500043FF18B9C5F10105CAF80050DAF800306B
:1052600099440022002320463146FFF735FF08B954
:10527000302202E0CDF81C9006E0079B994503D947
:10528000591C07911A70F8E74046079B159AC8EB1E
:105290000303136008B0BDE8F087034673B5002927
:1052A000B8BF494203F8022BB4BF2D222B22092993
:1052B00042701ADD0DF1070216460A2591FBF5F43E
:1052C00005FB1411092C01F1300102F8011D2146E2
:1052D000F4DC3031541E02F8011CB4421A460AD2E2
:1052E00014F8012B03F8012BF7E71A463024214468
:1052F00002F8024B5970101A02B070BD2DE9F04F40
:1053000091B00C46DDF8688016461F46054601F050
:105310005FFA03681846099300F0F4FB00230E932C
:10532000D8F800300A90073323F0070303F108028E
:1053300094F81890D4F800B0C8F80020D3E90023FE
:10534000C4E91223D4F84CA0D4F848802AF00043D2
:105350000B934FF0FF32A74B40460B99FFF7EEFE41
:10536000A0B94FF0FF32A34B40460B99FFF7C8FEA0
:1053700060B90022002340465146FFF7B7FE10B146
:105380002D2384F843309C4B9C4A0AE04246534606
:1053900040465146FFF7D2FE002800F09281984B1C
:1053A000984AB9F1470F8CBF904698460323236172
:1053B0002BF0040323604FF0000A3DE0B9F1670FC2
:1053C00000F08A81B9F1470F00F0868123600193D4
:1053D000636800210DF1330205900292009342466A
:1053E00053460691CDF81090CDF80CE02846FFF713
:1053F000F4FE09F0DF03472B804600F08481B9F109
:10540000650F0D9900F28D8101394A4604F1500073
:105410000D91FFF742FF0E9A82468318012A2361FD
:1054200000F37C812268D10700F178819DF8333048
:1054300013B12D2384F84330009733460FAA214639
:10544000284600F09FF9013002D14FF0FF3096E17D
:1054500023685A0501D4236965E0B9F1650F40F26C
:10546000D580D4E9120100220023FFF735FE78B37E
:105470000123654A31462846B8470130E5D00E9BE6
:105480000D9A9A420BDB2368D80708D423689B0740
:1054900040F111814FF0000804F1190906E10A9B5F
:1054A000099A31462846B8470130CED04FF000085F
:1054B00004F11A090E9B013B9845E7DA01234A469D
:1054C00031462846B8470130BFD008F10108F1E75E
:1054D0000D9B002B29DC01234B4A31462846B84757
:1054E0000130B2D00D9B23B90E9B13B92368D907A5
:1054F000CCD50A9B099A31462846B8470130A4D03A
:105500004FF0000904F11A0A0D9B5B42994509DA34
:105510000123524631462846B847013095D009F15B
:105520000109F1E70E9B4246A7E00E9AA36D9A424D
:10553000A8BF1A46002A914606DC4FF0000A29EA65
:10554000E97904F11A0B11E0134631464246284628
:10555000B8470130F1D178E701235A463146284651
:10556000B84701303FF471AF0AF1010AA36DC9EBEE
:1055700003029245F0DB08EB03090D9A0E9B9A4259
:105580000FDB2368DA070CD40E9B0D9A9844C9EB05
:1055900008089B1A9845A8BF9846B8F1000F08DC88
:1055A0000FE00A9B099A31462846B8470130EBD1F3
:1055B0004BE743464A4631462846B84701303FF458
:1055C00044AF4FF0000928EAE87804F11A0A09E02C
:1055D0000123524631462846B84701303FF435AFE3
:1055E00009F101090D9A0E9B9B1AC8EB030399451B
:1055F000EEDB4BE7FFFFEF7FB0760008B4760008E4
:10560000B8760008BC760008C07600080E9A012A19
:1056100001DCDB0738D50123424631462846B8472E
:1056200001303FF412AF0A9B099A31462846B84729
:1056300001303FF40AAFD4E9120100220023FFF742
:105640004BFD20B14FF0000804F11A090EE00E9B4B
:1056500008F10102013B19E001234A463146284680
:10566000B84701303FF4F1AE08F101080E9B013B51
:105670009845F1DB534604F1500231462846B847BD
:1056800001307FF403AFE0E642460123314628466D
:10569000B8470130EED1D8E601234A4631462846C4
:1056A000B84701303FF4D1AE08F10108E3680F9A22
:1056B0009B1A9845F0DBE0680F9B9842B8BF1846EC
:1056C0005DE062680EA8531C0DF1340E4BF480634C
:1056D0007FF474AE062201E012B90122626075E621
:1056E000002106910DF133018DE80C002360059037
:1056F0004246CDF81090CDF80CE002915346284672
:10570000FFF76BFD80460D9BD81C02DB626893425D
:105710001DDDA9F102095FFA89F970E60133236101
:1057200084E6B9F1660F14D10029636807DD2161B1
:1057300013B92268D2071DD501330B4419E013B900
:105740002268D00701D5023313E0012311E04FF0A6
:1057500067090D9B0E9A934205DB22682361D107EE
:1057600008D5013305E0002BD4BFC3F102030123A8
:10577000134423610D9B4FF0000AA36556E611B058
:10578000BDE8F08F2DE9F04791461F460A698B6806
:1057900006469342B8BF1346C9F8003091F843203B
:1057A0000C46DDF8208012B10133C9F800302368BF
:1057B000990642BFD9F800300233C9F80030256895
:1057C00015F0060510D104F1190A07E0012352462D
:1057D00039463046C04701301AD00135E368D9F860
:1057E00000209B1A9D42F1DB94F84330226800337D
:1057F00018BF012392060FD5E118302081F843002D
:105800005A1C94F845102244023382F8431003E0F6
:105810004FF0FF30BDE8F08704F1430239463046CF
:10582000C0470130F4D02268D9F80050E36802F094
:105830000602042A08BF5D1B2269A3680CBF25EA83
:10584000E57500259342C4BF9B1AED184FF000097F
:105850001A344D4509D00123224639463046C04707
:105860000130D5D009F10109F3E70020BDE8F08748
:105870002DE9F04317460A7E85B06E2A9846064603
:105880000C460C9B01F1430E00F0AE8011D8632A48
:1058900022D009D8002A00F0BB80582A40F0CA80E4
:1058A00081F84520834955E0642A1ED0692A1CD01E
:1058B000C0E0732A00F0B08009D86F2A2ED0702A79
:1058C00040F0B8800A6842F020020A603EE0752A83
:1058D00024D0782A3AD0ADE01A6801F14205111DB2
:1058E0001960136884F84230A8E021681A6811F042
:1058F000800F02D0111D196008E011F0400F02F175
:105900000401196002D0B2F9003000E01368002BE6
:105910003CDA2D225B4284F8432037E021681A6884
:1059200011F0800F02D0111D196007E011F0400F37
:1059300002F10401196001D0138800E01368227E8F
:105940005C496F2A14BF0A2208221BE078225A49B8
:1059500084F845202268186812F0800F00F10405D1
:105960001D6003D1550601D5038800E00368D00708
:1059700044BF42F0200222601BB9226822F02002BC
:1059800022601022002084F8430001E049490A22E5
:105990006568002DA56008DB206820F00400206009
:1059A0002BB9002D7DD175460CE0002B79D07546C2
:1059B000B3FBF2F002FB1033CB5C05F8013D03466C
:1059C0000028F5D1082A0BD12368DA0708D5236906
:1059D00062689A42DEBF302305F8013C05F1FF35CD
:1059E000C5EB0E0323612EE008681A6810F0800FE3
:1059F000496903D0101D1860136808E010F0400FCB
:105A000002F104001860136801D0198000E01960E9
:105A100000232361754616E01A68111D1960156888
:105A200000216268284600F0E9FE08B1401B606072
:105A3000636804E004F1420584F8422001232361F5
:105A4000002384F84330CDF800803B4603AA21466A
:105A50003046FFF797FE013002D14FF0FF3026E0CD
:105A600023692A4639463046C0470130F5D02368BD
:105A70009B0710D5002504F1190907E001234A46C8
:105A800039463046C0470130E7D00135E368039A14
:105A90009B1A9D42F2DBE068039B9842B8BF184610
:105AA00005E00B7804F1420584F842308AE705B03E
:105AB000BDE8F083C2760008D37600080EB400B5C6
:105AC0004FF402719CB0ADF814106FF000410491D6
:105AD00007914FF6FF711DAB02900690084853F8EE
